:020000040800F2
:1000000000000220E58200083583000835830008DF
:1000100035830008358300083583000800000000A0
:100020000000000000000000000000003583000810
:10003000358300080000000035830008657F000854
:1000400035830008358300083583000835830008B0
:1000500035830008358300083583000835830008A0
:100060003583000835830008358300083583000890
:100070003583000835830008358300083583000880
:100080003583000835830008358300083583000870
:10009000358300083583000835830008757F000824
:1000A0003583000835830008358300083583000850
:1000B0003583000835830008358300083583000840
:1000C0003583000835830008358300083583000830
:1000D0003583000835830008358300083583000820
:1000E0003583000835830008358300083583000810
:1000F0003583000835830008358300083583000800
:1001000035830008358300083583000835830008EF
:1001100035830008358300083583000835830008DF
:1001200035830008358300083583000835830008CF
:10013000358300080000000000000000358300083F
:100140003583000835830008358300080D800008DA
:10015000358300083583000835830008358300089F
:10016000358300083583000835830008358300088F
:10017000358300083583000835830008000000003F
:1001800000000000358300080000000000000000AF
:1001900035830008000000000000000035830008DF
:1001A000000000000000000000000000358300088F
:1001B000358300083583000835830008358300083F
:0401C000358300087B
:1001C40010B5054C237833B9044B13B10448AFF38D
:1001D40000800123237010BDE40000200000000013
:1001E4006085000808B5034B1BB103490348AFF30E
:1001F400008008BD00000000E800002060850008C1
:1002040002F1000102F1000102F1000102F100011A
:1002140002F1000102F1000102F1000102F100010A
:1002240002F1000102F1000102F1000102F10001FA
:1002340002F1000102F1000102F1000102F10001EA
:1004940002F1000102F1000101383FF7B1AE7047EB
:1004A40053B94AB9002908BF00281CBF4FF0FF31D7
:1004B4004FF0FF3000F07AB9ADF1080C6DE904CECD
:1004C40000F006F8DDF804E0DDE9022304B070472B
:1004D4002DE9F0478C460D460446089E002B51D169
:1004E4008A4217466DD9B2FA82FEBEF1000F0BD0D4
:1004F400CEF1200C01FA0EF520FA0CFC02FA0EF7EC
:100504004CEA050C00FA0EF44FEA174A250CBCFB22
:10051400FAF81FFA87F90AFB18CC45EA0C4508FBE0
:1005240009F3AB420AD9ED1908F1FF3280F02381B7
:10053400AB4240F22081A8F102083D44ED1AA4B276
:10054400B5FBFAF00AFB105544EA054400FB09F92F
:10055400A14509D9E41900F1FF3380F00A81A145CE
:1005640040F2078102383C44A4EB090440EA084005
:100574000021002E61D024FA0EF40023346073604D
:10058400BDE8F0878B4207D9002E54D0002186E8BD
:1005940021000846BDE8F087B3FA83F1002940F052
:1005A4008E80AB4202D3824200F2FA80841A65EB59
:1005B40003050120AC46002E3FD086E81010BDE8AC
:1005C400F08712B90127B7FBF2F7B7FA87FEBEF13D
:1005D400000F34D1EB1B3A0C1FFA87FC0121B3FB4B
:1005E400F2F8250C02FB183345EA03450CFB08F32B
:1005F400AB4207D9ED1908F1FF3002D2AB4200F249
:10060400D1808046ED1AA3B2B5FBF2F002FB10557F
:1006140043EA05440CFB00FCA44507D9E41900F1A6
:10062400FF3302D2A44500F2B8801846A4EB0C04B0
:1006340040EA08409DE731463046BDE8F087CEF1F8
:10064400200405FA0EF307FA0EF720FA04F83A0C20
:1006540025FA04F448EA0308B4FBF2F14FEA18451A
:1006640002FB11441FFA87FC45EA044501FB0CF325
:10067400AB4200FA0EF409D9ED1901F1FF3080F014
:100684008A80AB4240F2878002393D44EB1A1FFA5C
:1006940088F5B3FBF2F002FB103345EA034500FB97
:1006A4000CF3AB4207D9ED1900F1FF386FD2AB421E
:1006B4006DD902383D44EB1A40EA01418FE7C1F19C
:1006C400200722FA07F88B4005FA01F448EA0303ED
:1006D40020FA07FE4FEA134CFD404EEA040EB5FB28
:1006E400FCF94FEA1E440CFB19551FFA83F844EA3F
:1006F400054509FB08F4AC4202FA01F200FA01FADA
:1007040008D9ED1809F1FF3043D2AC4241D9A9F11F
:1007140002091D442D1B1FFA8EFEB5FBFCF00CFBD9
:1007240010554EEA054400FB08F8A04507D9E41823
:1007340000F1FF3529D2A04527D902381C4440EAEC
:100744000940A4EB0804A0FB02894C45C6464D466B
:1007540015D312D056B1BAEB0E0364EB050404FAB8
:1007640007F7CB401F43CC40376074600021BDE8DD
:10077400F0871846F8E69046E0E6C245EAD2B8EBC0
:10078400020E69EB03050138E4E72846D7E7404643
:1007940091E78146BEE7014678E702383C4445E7E5
:1007A400084608E7A8F102083D442BE7704700BF5C
:1007B40038B50E4A0E4B12781B6805464FF47A7012
:1007C400B0FBF2F0B3FBF0F000F0A8F808B90F2D7D
:1007D40001D9012038BD0446024629464FF0FF30B6
:1007E40000F05AF8034B20461D6038BD000000207D
:1007F4007C0000200400002008B50B4B1A6842F46A
:1008040000721A601A6842F480621A601A6842F42C
:1008140080721A60032000F02DF80120FFF7C8FF52
:1008240007F02CFB002008BD003C0240034A044BA7
:1008340011681B780B441360704700BF200100202F
:1008440000000020014B1868704700BF2001002001
:1008540038B50446FFF7F6FF631C054602D0044B87
:100864001B781C44FFF7EEFF401B8442FAD838BDC6
:1008740000000020074AD3684FF6FF010B40000236
:1008840043F0BF6300F4E06043F400330343D360F8
:10089400704700BF00ED00E0184B70B4DC68C4F38F
:1008A4000224C4F10706042E04F1040328BF04261D
:1008B400062B17D9033C0125A540013D2A400123FD
:1008C400B340013B1940A140002841EA02010CDB7E
:1008D40000F1604000F561400901C9B280F80013DD
:1008E40070BC704700221446E9E7054B00F00F0086
:1008F40009010344C9B2197670BC704700ED00E0E9
:10090400FCEC00E000F01F0101234009024A8B4087
:1009140042F82030704700BF00E100E00138B0F138
:10092400807F0ED2084B10B4084C5860F02084F835
:1009340023000022072110469A6019605DF8044BD9
:1009440070470120704700BF10E000E000ED00E0B8
:10095400044A136804280CBF43F0040323F004037F
:100964001360704710E000E0704700BF08B5FFF760
:10097400FBFF08BD214BDA68D00605D52049CA69BA
:1009840010200243CA61D8601C4BDA68910606D570
:100994001B49CA69202042F00802CA61D860174B7B
:1009A400DA68520606D51649CA69402042F00402A4
:1009B400CA61D860114BDA68100606D51049CA69B5
:1009C400802042F00202CA61D8600C4BDA68D1057B
:1009D40007D50B49CA694FF4807042F00102CA611D
:1009E400D860064BDA68920706D50549CA69022021
:1009F40042F02002CA61D860704700BF003C024048
:100A0400240100202DE9F84F4D4F3C7E012C02D1EA
:100A14000220BDE8F88F9B469046002301228A46B7
:100A240081463A76FB61FFF70DFF464C06464CF2D1
:100A3400503504E0FFF706FF801BA8424BD8E3685B
:100A4400D803F7D4E368D90744BF0123E3603D4BDF
:100A5400DA6812F4F97F37D1B9F1000F40D11A697D
:100A640022F440721A611A691A6119695FFA88F8E6
:100A740041F0010119618AF800800023FB61FFF74E
:100A8400E1FE304C06464CF2503504E0FFF7DAFE46
:100A9400801BA8423BD8E368DA03F7D4E368DB079A
:100AA40044BF0123E360274BD86810F4F97002D0E7
:100AB400FFF760FF0120234A136923F00103136148
:100AC40000233B76BDE8F88FFFF754FF0023012095
:100AD4003B76BDE8F88F002303203B76BDE8F88F12
:100AE4001A6922F440721A61B9F1010F1A691AD015
:100AF400B9F1020F0DD042F440721A611A6942F042
:100B040001021A61CAF80080CAF804B0B5E70320EC
:100B1400D1E742F400721A611A6942F001021A61C3
:100B2400CAF80080A9E742F480721A611A691FFAB0
:100B340088F842F001021A61AAF800809DE700BF1C
:100B440024010020003C0240064B1A69002A01DB04
:100B5400002070470449054A59605A601869C00F5B
:100B6400704700BF003C024023016745AB89EFCDCD
:100B7400034A136943F0004313610020704700BF28
:100B8400003C0240144B70B500220446DA61FFF7C2
:100B940059FE124D0646631C12D1104AD368D8037D
:100BA400FCD40E4BDA68D20744BF0122DA600B4B47
:100BB400D86810F4F97002D0FFF7DCFE012070BD94
:100BC400EB68D903EDD524B1FFF73CFE801B8442CA
:100BD400E1D2032070BD00BF24010020003C02408C
:100BE4002DE9F047524E337E012B03D102273846BC
:100BF400BDE8F087012305464CF250308846337631
:100C0400FFF7C0FF0746002840F089804FF0FF330C
:100C1400C8F800302B68012B3FD0D5F80890EB685A
:100C24004B44994553D2434C4FEAC90A2DE0022B59
:100C34000CBF4FF400734FF44073226922F44072E6
:100C44002261226913432361236923F0F80323619A
:100C5400236943F0020343EA0A032361236943F44B
:100C6400803323614CF25030FFF78CFF236923F06B
:100C7400FA030AF1080A2361002855D1EB68AA682F
:100C840009F1010913444B4521D92B7C002BD4D005
:100C9400012BCCD14FF48073CFE7264C2B6922690A
:100CA40022F440722261226942F004022261226924
:100CB4001B0242F480329BB2134323614CF2503046
:100CC400FFF760FF236923F0040307462361194BF0
:100CD4001A6891050FD51A6822F400721A601A680E
:100CE40042F400621A601A6822F400621A601A68F8
:100CF40042F400721A600F4B1A6852050FD51A6835
:100D040022F480621A601A6842F480521A601A68E7
:100D140022F480521A601A6842F480621A60002336
:100D240033763846BDE8F087C8F800900746CEE72A
:100D340024010020003C02402DE9F04FD1F800C00E
:100D4400DFF8FC81DFF8FCE183B0002503E0013526
:100D5400102D00F093800123AB4003EA0C02934270
:100D6400F5D14E6826F0100ABAF1020F00F089801E
:100D74004FEA45090324D0F800B004FA09F4E44327
:100D840006F003070BEA040B07FA09F70AF1FF3A26
:100D940047EA0B07BAF1010F076040F29880C76871
:100DA4008B683C4003FA09F32343C360F300CED5B8
:100DB4004FF00009CDF80490D8F8443043F4804350
:100DC400C8F84430D8F8444025F0030303F18043C5
:100DD40004F4804403F59C33019405F00304019F5B
:100DE400D3F808A0A4000F27A7402AEA070A4E4F09
:100DF400B8421AD007F58067B8427BD04B4FB8424F
:100E04007DD04B4FB8427FD04A4FB84200F081802A
:100E1400494FB84200F08280484FB8420CBF4FF0AF
:100E240006094FF0070909FA04F94AEA09079F601D
:100E3400DEF80030D443F70354BF23401343CEF805
:100E44000030DEF80430B70354BF23401343CEF818
:100E54000430DEF80830F70254BF23401343CEF8C1
:100E64000830DEF80C30B60205F1010554BF23400A
:100E74001343102DCEF80C307FF46DAF03B0BDE8F2
:100E8400F08F4FEAD50900EB890905F00707D9F877
:100E94002040BF004FF00F0B0BFA07FB24EA0B0AAC
:100EA4000C69BC4044EA0A04C9F820404FEA4509E9
:100EB4000324D0F800A004FA09F4E44306F003077D
:100EC40004EA0A0A07FA09F747EA0A070760876883
:100ED40007EA040ACF6807FA09F747EA0A078760AE
:100EE400D0F804A0C6F300172AEA0303AF401F4357
:100EF400476054E74FF0010909FA04F995E74FF008
:100F0400020909FA04F990E74FF0030909FA04F910
:100F14008BE74FF0040909FA04F986E74FF0050955
:100F240009FA04F981E700BF00000240000802400A
:100F3400000C02400010024000140240001802405D
:100F440000380240003C014002B909048161704745
:100F5400704700BF044A5169014200D1704708B587
:100F64005061FFF7F5FF08BD003C01402DE9F04F4B
:100F740090F8904285B0012C9DF838709DF83CE0C3
:100F8400BDF840C003D1022005B0BDE8F08F01EBED
:100F9400810400EBC404064602F07F0AD0094FF036
:100FA400010B86F890B284F8383084F8391084F84C
:100FB4003FE084F83C7084F83AA084F83B00306841
:100FC400A4F840C0CDF808C08DE8804001F032FD9F
:100FD400002386F8903205B0BDE8F08F90F8903287
:100FE400012B01D10220704710B50123044680F87B
:100FF4009032006801F0EEFE002084F8900210BDEB
:1010040000283AD02DE9F041032307468AB080F83E
:101014009132044607F05CF8386801F0A9FB54F8F3
:10102400106B0FCC6D460FC50FCC0FC594E80300B1
:1010340085E8030007F1040898E80E0030463E46B0
:1010440001F032FB0121386801F09AFB56F810EBED
:101054000FCE6D460FC50FCE0FC594E8030085E88B
:101064000300704698E80E0001F0F2FB0123002013
:1010740087F891320AB0BDE8F0810120704700BFC3
:10108400F0B58C009DF814E0069FBDF81C6065184F
:1010940000EBC505BEF1000F14BF4FF0020C4FF07A
:1010A400030C85F83B2085F83F3085F842C09DF855
:1010B4002050032B1BD8DFE803F0024D3931BEF179
:1010C400010F14D19AB9631800EBC303002E58D151
:1010D400022283F851E0631800EBC30393F85CE049
:1010E40083F84220BEF1020F01D083F83D5063180B
:1010F40000EBC303282283F83910002402FB01010A
:101104005F64027C9E64006883F85C40DC6483F85E
:101114005D403831BDE8F04001F00EBD631800EBCE
:10112400C3034ABB93F8515015BB17E0CAB9621800
:1011340000EBC20292F851E092F85CC0BEF1000FDD
:1011440018BF9E46BCF1020F82F842E0CFD082F86D
:101154003D50CCE7631800EBC303002283F8422020
:10116400C5E7631800EBC30393F85020002AF5D0B9
:10117400022283F84220BAE793F85020002AEDD0E7
:10118400F6E793F85120002A18BF0222A3E700BF14
:101194002DE9F04F056885B00446284601F054FB5C
:1011A400012802D005B0BDE8F08F206801F048FBAB
:1011B4000028F7D0206801F043FB10F4001F2068DA
:1011C4001CBF4FF40013436101F03AFB10F4801F7D
:1011D40020681CBF4FF48013436101F031FB10F011
:1011E400806F20681CBF4FF08063436101F028FBCF
:1011F40010F0020F20681CBF0223436101F020FBA2
:10120400800000F14A81206801F01AFBC1012668C0
:1012140000F10881304601F013FB030700F14F8110
:10122400206801F00DFB10F0007F20683ED101F032
:1012340007FBC306B6D52568AB6923F01003AB6181
:101244002E6AC6F34342022A2BD1C6F30A18B8F118
:10125400000F26D006F00F0606EB860704EBC7073F
:10126400796CF1B14246284601F0DCFA05F5A06339
:1012740003EB4613786C1D69F96CBC4A4044414445
:101284002A407864F9645AB11A6822F0804242F024
:1012940000421A6097F8503083F0010387F8503009
:1012A4002568AB6943F01003AB617BE701F082FD75
:1012B400A16883462068002900F0B08005F5A06588
:1012C40000264FF0010A46E04FEA481200F5A063F9
:1012D400D718B968490770D50421B960F96841F095
:1012E4000201F960B968890500F16281B968C8072B
:1012F4006AD521694FEA880951B109EB08013869B7
:1013040004EBC101C0F3120E886CA0EB0E00C8649C
:1013140009EB080104EBC1010020886581F85DA098
:10132400C7F808A091F83F0010F0FD0F00F07A8193
:10133400032800F0F981C84404EBC80898F8503039
:1013440083F0010388F85030A168206801368E428A
:1013540005F1200562D20AFA06F313EA0B0FF5D061
:101364002B681F045FFA86F8AED400F5A06707EB7C
:101374004817BB685B0700F1A980BB6813F0200322
:1013840000F0AB8008EB8809202304EBC909BB609B
:1013940099F83D30012BD9D1FB68042243F00203B4
:1013A400414689F85D20FB6001F014FD4FF0020313
:1013B40089F85C30A1682068C8E7B968890640F1FB
:1013C400D7802021B9608DE7B968890740F1FE8094
:1013D4004FEA880909EB080104EBC101D7F80CE0D6
:1013E40091F85D002EF0020E0128C7F80CE000F021
:1013F4003081052800F02D81062800F06881082836
:1014040000F0658191F85C000223BB60024641460E
:10141400204606F09DFEA168206897E74FF0007310
:10142400436104E7D6F840340293D6F8403403937A
:10143400039B23F02E030393029B9A07374607D599
:10144400029BDB0700F13B81039B43F00203039300
:10145400029B180715D5039B43F008030393029BD3
:10146400590740F1EA80A169022900F09981E368F3
:10147400032B04BF4EF66023C6F80434204606F05E
:101484005FFE2668029B9A0603D5039B43F0200364
:101494000393039BC7F84034BCE6D5F8403423F0EB
:1014A4002E03C5F84034204606F04EFE0121206884
:1014B40001F056FA20684FF000534361A4E6204639
:1014C40006F03AFE206808234361AAE60423BB60C1
:1014D400FB6843F00203FB6038E7BA68520600F188
:1014E400D980BB6813F4007340F00881BA68D2074E
:1014F40000F10681BB6813F0080340F03A81BA6832
:10150400D20600F15881BB681A0600F16981BA68F5
:1015140012F4806240F07781BB689B077FF516AFB9
:101524004FEA880303EB080104EBC101F86891F862
:101534005D1020F002000129F86000F08681032983
:1015440000F09481042900F09981052900F0AF810D
:10155400062900F09D81082900F09A81434404EB98
:10156400C3030222BA6093F85C2050E70000F81F1E
:10157400B968090770D4B96849057FF5B3AEF9684D
:1015840041F00201F96041468DE80C0001F022FCB3
:1015940008EB8801102004EBC101B8604FF0080E7D
:1015A4004FF4806081F85DE09DE80C00B86099E636
:1015B400FB68206843F002034146FB6001F00AFC2B
:1015C4004FF40073BB60A1682068BFE6B9680806E1
:1015D40000F1B680B968C9067FF51DAF4FEA8809E6
:1015E40009EB080104EBC10191F83F10032900F055
:1015F4001F8109EB080104EBC1014FF0030E102019
:1016040081F85DE0B86091F83F1011F0FD0F7FF4B0
:1016140002AFD058A16820F0804040F00040D05084
:10162400206893E6FB68206843F00203FB604146B0
:1016340001F0D0FB1023BB607DE6D6F8403423F0E4
:101644002E03C6F840342668B36943F00053B361EF
:1016540018E781F85C00D7E6D7F80CE008EB8801BE
:1016640004EBC1014EF0020EC7F80CE04FF0050C7C
:101674004FF0080E4FF0100981F85DC0C7F80890CC
:101684004146C7F808E08DE80C0001F0A3FB9DE893
:101694000C0027E608EB8802F96804EBC20241F06B
:1016A400020E9365042382F85D304146C7F80CE0CE
:1016B40001F090FB4023BB60A168206846E6B36953
:1016C40023F00053B361204606F03AFDBCE609EB73
:1016D400080104EBC101886D03285DD801308865D9
:1016E4000220D15809EB080E04EBCE0E21F0804104
:1016F40041F000418EF85C00D15085E6FB6859E763
:10170400FA6808EB880904EBC90942F00202C9F837
:1017140058304146FA6001F05DFBC7F808A0A168A3
:10172400206889F85DA011E6D05840F00050D050F0
:1017340081F85CA001224146204606F009FDFAE545
:1017440008EB880304EBC303F9689A6D206841F041
:10175400020EC7F80CE001324FF0060E41469A65BE
:1017640083F85DE001F036FB8023BB60A16820684C
:10177400ECE50823BB60FB6843F002034146FB60D1
:1017840008EB880801F026FB04EBC803052283F864
:101794005D20A1682068D9E5002088650420A0E7C1
:1017A400029B206803F4C023B3F5802F18BF0121E6
:1017B40001F0D6F862E6FA6808EB880904EBC90977
:1017C40042F00202C9F858304146FA6001F002FBC7
:1017D4000322102389F85D20A1682068BB60B5E569
:1017E400FB6843F002034146FB6008EB880801F004
:1017F400F1FA04EBC8030621802283F85D10206807
:10180400A168BA60A2E5FB6843F002034146FB60AD
:1018140001F0E0FA282303FB084810214FF480620A
:101824000823B9602068BA60A16888F85D308DE546
:10183400F968206841F00201F96041468DE80C0026
:1018440001F0C8FA9DE80C00D3E6282202FB084206
:1018540092F83F0082F85C1002287FF47FAE92F881
:10186400511081F0010182F8511077E6282202FB21
:1018740008424FF0020182F85C106FE6282101FB58
:1018840008414FF0020081F85C0081F83D2065E6D4
:10189400282202FB0842916D481C0329906585BFEC
:1018A400042100200221906582F85C1056E628226B
:1018B40002FB084282F85C1050E600BF38B590F88D
:1018C4009032012B01D1022038BD0446012580F855
:1018D4009052006800F044FF2946206801F078F82F
:1018E400002084F8900238BD90F89032012B01D189
:1018F4000220704710B50123044680F89032006836
:1019040001F08EFB002084F8900210BD006801F005
:1019140045B800BF01EB810100EBC10191F85C0007
:10192400704700BF006801F07FB800BF006801F095
:1019340071B800BF60B1484A136803F00F038B42CB
:1019440008D2CBB21370136803F00F03994201D08D
:101954000120704703682DE9F0419D0714D55C0709
:1019640004D53E4CA26842F4E052A2601A0704D5A2
:101974003A4CA26842F46042A260384C8568A2687E
:1019840022F0F0022A43A260DF0704460D4622D566
:101994004268012A5BD0931E012B304B1B6850D93F
:1019A400990725D52D4EB36823F003031343B36081
:1019B400FEF748FF41F28837804605E0FEF742FF14
:1019C400A0EB0800B8423FD8B368626803F00C0388
:1019D400B3EB820FF2D1204A136803F00F039D4248
:1019E40009D2EBB21370136803F00F039D4202D0C7
:1019F4000120BDE8F08123685A0706D51749E0683D
:101A04008A6822F4E05202438A601B0707D5134A0E
:101A14002169936823F4604343EAC103936000F0AF
:101A240065FA0E4B0E499B680E4AC3F30313CB5C55
:101A340020FA03F301201360FEF7BAFE0020BDE88C
:101A4400F0819801AED4D3E70320BDE8F081034BC5
:101A54001B689E03A6D4CBE7003C0240003802403A
:101A6400F88600087C000020014B1868704700BF0E
:101A74007C000020044B054A9B680549C3F382237C
:101A84000868D35CD84070470038024008870008D3
:101A94007C000020044B054A9B680549C3F342338C
:101AA4000868D35CD84070470038024008870008B3
:101AB4007C0000202DE9F043036813F0010683B095
:101AC40004460BD0A749866BD1F88C2022F0C06263
:101AD4003243B6FA86F6C1F88C2076099A070BD5FC
:101AE400A049E06BD1F88C2022F0C05202430028B8
:101AF400C1F88C2008BF012613F0040512D09949BF
:101B0400256BD1F88C20B5F5801F22F4401242EAEF
:101B1400050218BFB5FA85F5C1F88C2012BF6D090E
:101B2400002501261F070FD58E48616BD0F88C2045
:101B340022F440020A43B1F5800FC0F88C2000F073
:101B44000781002908BF0125980600F1B980DF0646
:101B540004D5854B94F858201A602368180608D5D4
:101B64008049E06CD1F8942022F440020243C1F889
:101B74009420590608D57B49A06CD1F8942022F012
:101B840080620243C1F89420DA050CD57549606D72
:101B9400D1F8942022F000620243B0F1006FC1F842
:101BA400942008BF01259F0508D56E49606CD1F8C3
:101BB400942022F080520243C1F8942058050BD49B
:101BC400012E15D0B3F5006F12D0012D00F0C280A4
:101BD400002003B0BDE8F0836248216DD0F8942062
:101BE40022F000520A43B1F1005FC0F89420E7D11B
:101BF4005E4B5C4E00221A60FEF724FE074604E0AA
:101C0400FEF720FEC01B022856D833681901F7D40A
:101C14002368DA0740F1F280A26B002A40F0EE80DC
:101C2400504E6068D6F88420D6F88470A16802F417
:101C3400403207F070673A430243606942EA811216
:101C440042EA0072C6F884205E0704D5226BB2F51E
:101C5400801F00F0F180180704D5626BB2F5800F85
:101C640000F0EA80590504D5226DB2F1005F00F05E
:101C74000C811A0511D52369A6686068E268616958
:101C8400384F1B0643EA86130343520843EA0173A1
:101C9400013A43EA0243C7F88430344B314E0122FF
:101CA4001A60FEF7CFFD074633681B018DD4FEF79B
:101CB400C9FDC01B0228F7D9032003B0BDE8F08397
:101CC400284B2B4F002201921A6C42F080521A6466
:101CD4001B6C03F080530193019B3B6843F48073B6
:101CE4003B60FEF7AFFD804605E0FEF7ABFDA0EBE1
:101CF40008000228E0D83B68D905F6D51949236CB9
:101D04000A6F12F4407203F4407010D082420ED075
:101D14000B6F184A23F440730127002017601060EA
:101D24000B670B6FDA0775D4236C03F44070B0F5BE
:101D3400407F00F09F800B498A6822F4F8128A6081
:101D4400084A116FC3F30B030B4313672368FEE6C2
:101D54000126F9E6084B034D00221A60FEF772FDD6
:101D6400064610E000380240E0114742680047424E
:101D740000700040400E474270004742FEF762FD8B
:101D8400801B022898D82B689F00F7D4226850073C
:101D94003CD411071AD5636BC3B95249A669D1F86B
:101DA4008830E569606A03F44033334343EA8513BA
:101DB40043EA0063C1F88830D1F88C30E06A23F438
:101DC400F853013843EA0023C1F88C30D20503D517
:101DD400636DB3F1006F72D0434B424C01221A6021
:101DE400FEF730FD054605E0FEF72CFD401B0228FA
:101DF4003FF662AF23689B00F6D5E9E69F077FF5BF
:101E040023AFE26B002A7FF41FAF09E7236B002B9B
:101E1400C3D0BEE70F46FEF715FD41F28838814670
:101E240006E0FEF70FFDA0EB090040453FF644AF86
:101E34003B6F9B07F5D577E72A4E6068D6F8842078
:101E4400D6F88470A16802F4403207F0E0473A43C0
:101E54000243206942EA811242EA0062C6F8842001
:101E6400D6F88C10A26A21F01F01013A0A43C6F881
:101E74008C20F7E61B48826823F0704122F4F812A4
:101E840021F440710A4382605AE7164F6668D7F816
:101E94008400D7F88420E168C0F3014E02F0E042E8
:101EA400A068324342EA80120EF10106490842EA70
:101EB4004662013942EA0142C7F88420D9E6094959
:101EC400A569D1F88830226AE06903F070632B4376
:101ED400520843EA8013013A43EA0243C1F88830C6
:101EE4007AE700BF0038024070004742284908B52D
:101EF4008B6803F00C03082B07D00C2B1DD0254A4C
:101F04002548042B18BF104608BD4A684B6813F4D3
:101F1400800302F03F0230D149681E48C1F38811A2
:101F2400A1FB0001FEF7BCFA194B5B68C3F3014344
:101F340001335B00B0FBF3F008BD4A684B6813F44F
:101F4400800302F03F020ED149681248C1F38811A0
:101F5400A1FB0001FEF7A4FA0D4B5B68C3F3027307
:101F6400B0FBF3F008BD4B680B48C3F38813A3FB25
:101F740000010023FEF794FAEEE74B680648C3F32A
:101F84008813A3FB00010023FEF78AFACCE700BF05
:101F9400003802400024F40000127A002DE9F041D8
:101FA4000368DA0782B0044636D5AA498A6802F083
:101FB4000C02042A00F0D6808A6802F00C02082A77
:101FC40000F0CC80A3498A6802F00C020C2A00F0CD
:101FD40058816368B3F5803F00F00581B3F5A02F05
:101FE40000F06B819B4D2A6822F480322A602A68B3
:101FF40022F480222A60002B40F0FA80FEF722FCB3
:10200400064605E0FEF71EFC801B642800F20E81E4
:102014002B689903F6D423689A072FD58D4A9168C3
:1020240011F00C0F00F0AC80916801F00C0108294C
:1020340000F0A28087498A6802F00C020C2A00F0A2
:102044007781E368002B00F02181834B814D0122CD
:102054001A60FEF7F7FB064605E0FEF7F3FB801B6C
:10206400022800F2E3802B689807F6D52B682269D2
:1020740023F0F80343EAC2032B6023681A0715D53B
:102084006369002B00F08780744B724D01221A6043
:10209400FEF7D8FB064605E0FEF7D4FB801B0228BA
:1020A40000F2C4806B6F9B07F6D52368580720D4D1
:1020B400A369D3B1674DAA6802F00C02082A66D05E
:1020C400022B674B4FF000021A6000F00081FEF70C
:1020D400B9FB2C46054605E0FEF7B4FB401B02287D
:1020E40000F2A48023689B01F6D4002002B0BDE86E
:1020F400F081584A136C13F0805368D00026594D70
:102104002B68D90540F18280A368012B00F0CF80B1
:10211400052B00F08F804F4D2A6F22F001022A67B1
:102124002A6F22F004022A67002B40F08C80FEF70D
:1021340089FB41F28837804605E0FEF783FBA0EB7C
:102144000800B84272D82B6F9807F6D4002EAFD08F
:10215400404A136C23F080531364A9E74A6857027A
:102164007FF530AF3B4A126895037FF555AF62683F
:10217400002A7FF451AF0AE0526857023FF55AAF84
:10218400344A1268950716D5E268012A13D0012053
:1021940002B0BDE8F081314A2E4D1360FEF752FBC8
:1021A400064604E0FEF74EFB801B02283ED86B6F08
:1021B4009F07F7D479E7274920690A6822F0F802D3
:1021C40042EAC0020A601A077FF570AF58E701932C
:1021D400136C43F080531364136C03F08053019326
:1021E400019B01268BE71B4A136843F48033136079
:1021F400FEF728FB174D064604E0FEF723FB801B81
:10220400642813D82B689803F7D504E72B6843F4A4
:1022140080732B60FEF716FB07462B68DA053FF543
:1022240073AFFEF70FFBC01B0228F6D9032002B0E0
:10223400BDE8F081074B1A6F42F004021A671A6F67
:1022440042F001021A67FEF7FDFA024D804641F2A0
:1022540088370FE00038024000004742800E4742B2
:102264006000474200700040FEF7ECFAA0EB080063
:10227400B842DBD82B6F9B07F6D5002E3FF418AF7E
:1022840066E74A6856027FF5A4AE6BE72B4A2C4DED
:102294001360FEF7D7FA064604E0FEF7D3FA801B74
:1022A4000228C3D82B689907F7D42368E6E6244AA2
:1022B400136F43F001031367C5E7214B1A6842F417
:1022C40080221A601A6842F480321A6090E7FEF79E
:1022D400B9FA064604E0FEF7B5FA801B0228A5D831
:1022E4002B689901F7D4E369D4F820E0676AE66AB9
:1022F400A26A206B1349124C43EA0E0343EA871384
:1023040043EA0663520843EA0073013A43EA02438C
:1023140001226B600A60FEF795FA054604E0FEF7B9
:1023240091FA401B022881D823689A01F7D5DCE68C
:102334004A6856023FF585AE22E700BF00004742D7
:1023440000380240600047422DE9F04704682269E2
:102354008246C068DAF81C10DAF80830DAF810603F
:10236400DAF8145022F4405202432261E268DAF8A7
:102374001800334322F416422B4322F00C020B4381
:102384001343E360636923F440730343B1F5004FDF
:102394006361AB4B61D09C4200F0018103F5806323
:1023A4009C4200F0FC80FFF765FBA64FDAF804308E
:1023B40000EB800000EB80009B00B0FBF3F3A7FB75
:1023C40003235B091D01FFF755FBDAF8043000EB2A
:1023D40080009B0000EB8000B0FBF3F6FFF74AFBA4
:1023E400DAF8042000EB8000930000EB8000B0FBDF
:1023F400F3F3A7FB03234FF064095B0909FB1363A1
:102404001B013233A7FB03235B0903F0F006FFF73C
:1024140031FBDAF8042000EB8000930000EB80002D
:10242400B0FBF3F8FFF726FBDAF8043000EB80008A
:102434009B0000EB8000B0FBF3F0A7FB00304009E9
:1024440009FB10831B013233A7FB0323C3F343139C
:1024540033432B44A360BDE8F0879C425DD003F571
:1024640080639C4259D0FFF705FB764FDAF80430BD
:1024740000EB800000EB80005B00B0FBF3F3A7FBF4
:1024840003235B091E01FFF7F5FADAF8043000EBC9
:1024940080005B0000EB8000B0FBF3F5FFF7EAFA85
:1024A400DAF8042000EB8000530000EB8000B0FB5E
:1024B400F3F3A7FB03235B094FF0640909FB1353F0
:1024C400DB003233A7FB03231B0903F4F875FFF782
:1024D400D1FADAF8042000EB800000EB800053000E
:1024E400B0FBF3F8FFF7C6FADAF8043000EB80002B
:1024F40000EB80005B00B0FBF3F3A7FB03235B0955
:1025040009FB1383DB003233A7FB0323C3F342131A
:1025140033442B44A360BDE8F087FFF7BBFA494F6F
:10252400DAF8043000EB800000EB80005B00B0FBC5
:10253400F3F3A7FB03235B091E01FFF7ABFADAF8F9
:10254400043000EB80005B0000EB8000B0FBF3F58F
:10255400FFF7A0FADAF8042000EB8000530000EB48
:102564008000B0FBF3F3A7FB03234FF064095B097E
:1025740009FB1353DB003233A7FB03231B0903F4CA
:10258400F875FFF787FADAF8042000EB80005300AF
:1025940000EB8000B0FBF3F8FFF77CFAA4E7FFF749
:1025A40079FA284FDAF8043000EB800000EB800061
:1025B4009B00B0FBF3F3A7FB03235B091D01FFF7AB
:1025C40069FADAF8043000EB80009B0000EB80002D
:1025D400B0FBF3F6FFF75EFADAF8042000EB8000B4
:1025E400930000EB8000B0FBF3F3A7FB03234FF051
:1025F40064095B0909FB13631B013233A7FB032343
:102604005B0903F0F006FFF745FADAF8042000EB63
:102614008000930000EB8000B0FBF3F8FFF73AFA78
:10262400DAF8043000EB800000EB80009B00B0FB84
:10263400F3F3A7FB03235B0909FB138302E700BF42
:10264400001001401F85EB5160B338B590F8393064
:10265400044603F0FF0203B32268242384F83930CC
:10266400D36823F40053D3602046FFF76DFE23683C
:102674001A6922F490421A615A6922F02A025A61B4
:10268400DA680025202142F40052DA602846E56326
:1026940084F8391084F83A1038BD80F8382005F0F1
:1026A40037FCD9E70120704784B030B4089D03ACEF
:1026B400012D84E80E0027D0C268284B42F0400266
:1026C400C26001E0013B0DD00269002AFADA026916
:1026D400224B42F00102026101E0013B02D0026997
:1026E400D207FAD44FF480338363069B012B07D1BE
:1026F400836843F006038360836843F020038360A8
:1027040030BC002004B07047836B0F9A23F48033ED
:102714008363C36823F4840323F04003C360C36862
:10272400012A23F44013C36012D00C4B01E0013B97
:10273400DBD00269002AFADA0269084B42F001028E
:10274400026101E0013BD0D00269D107FAD4CCE7A1
:10275400C36843F48013C360E7E700BF400D030080
:1027640002460020936843F001039360704700BF62
:1027740002460020936823F001039360704700BF72
:1027840008B5C368012923F0C043C36009D019B94F
:10279400C36843F08043C3603220FEF759F8002039
:1027A40008BDC36843F00053C3603220FEF750F8FD
:1027B400002008BD890141F020010161054A01E0C2
:1027C400013A05D0036913F02003F9D11846704784
:1027D40003207047400D030010230361054A01E004
:1027E400013A05D0036913F01003F9D11846704774
:1027F40003207047400D030010B49DF804406CB9E9
:1028040003339B080AD000F5805000EB023201EB41
:10281400830051F8043B13608142FAD100205DF833
:10282400044B70470332920808D000F5805001EB46
:102834008202036841F8043B8A42FAD10846704791
:102844004269806910407047406900F00100704798
:1028540084B030B583B007AD85E80E000023C0F81E
:10286400003E836B099A089943F400138363032A97
:102874000446D0F8003457D023F00403C4F80034DD
:102884004FF484632361304B01E0013B02D02269A1
:102894009006FAD4102323612B4B01E0013B02D0B4
:1028A4002269D206FAD461B10022154604F5A06368
:1028B4004FF0FF3001328A429860DD6003F120035B
:1028C400F8D1D4F840340193019B23F02E030193F3
:1028D400019BDB0404D4019B43F48053C4F84034CB
:1028E400C820019BFDF7B4FF00224FF0FF33B4F181
:1028F400A04FA26163611FD04FF40071134A144BBF
:102904006162A262C4F800310A9B1BB9A36943F057
:102914001003A361A2690F4B00201343A36103B00A
:10292400BDE8304004B07047B0F1A04FA4D043F0EC
:102934000403C0F80034A3E78021074A074B61620F
:10294400A262C4F80031DFE7400D03000002000179
:102954000003E000080020A380006000E0004000C5
:10296400D0F8003423F00303C0F80034D0F8002476
:1029740001F0030313430129C0F8003400F580601B
:1029840006D0022904BF41F27073436000207047EF
:102994004BF6803343600020704700BF10B50446F7
:1029A40082B0D4F840340193019B23F02E030193A9
:1029B400019B43F48073C4F840340A20FDF748FFB8
:1029C400019B002023F48073C4F8403402B010BD8E
:1029D40082B0D0F840340193019B23F02E0301937D
:1029E400019B13F4805F019B01D101290AD0DB0410
:1029F40005D521B9019B23F48053C0F8403400204D
:102A040002B0704743F48053C0F84034019B002067
:102A140002B0704782B0D0F8403401930198C0F3FB
:102A2400414002B0704700BF00F58060806880B20A
:102A3400704700BF2DE9F04100F5A06404EB411498
:102A44009DF81C509DF81870BDF820604FF0FF3EB3
:102A5400C4F808E0032D65D8DFE805F051415102C0
:102A64004FFA82FC40F29D6EBCF1000FC4F80CE0FA
:102A74005BDB9B05D20203F0FE5302F4F042D0F874
:102A840018841A43012303FA01F141EA0801C6F349
:102A94000A06AB04C0F81814BCF1000F42EA06029F
:102AA40003F44023ACBF00214FF400411343022F31
:102AB400826943EA010314BF00214FF400310B4340
:102AC40042F00072032D826100F5806E236003D111
:102AD400236843F0005323600020BDE8F0814FFADF
:102AE40082FC40F2252EBCF1000FC4F80CE0C0DAE1
:102AF400D4F80CE04EF4C07EC4F80CE0B9E74FFA09
:102B040082FC40F29D4EBCF1000FC4F80CE00CDBDB
:102B1400B0F1A04FADD0D4F80CE04EF0600EC4F884
:102B24000CE0A6E74FFA82FCA3E7D4F80CE04EF4DD
:102B3400807EC4F80CE09CE780B58AB002AFF860F0
:102B4400B9601346FB7100237B7700237B8300234A
:102B5400FB834FF480733B8300237B61FB68B3F1F9
:102B6400A04F2BD0BB681B79002B27D1FB79002BFE
:102B74000BD1BB685B79012B07D1BB685B78194625
:102B8400F86800F011FA00230DE1FB79012B15D14F
:102B9400BB685B785A01FB68134403F5A0631946CC
:102BA400BB685B785A01FB68134403F5A063DB68D8
:102BB40023F06003CB60BB6800225A71BB681B69B9
:102BC400002B19D0BB681B69BA6812891344013BF6
:102BD400BA681289B3FBF2F3FB83FA8B3B8B9A42FC
:102BE4000CD93B8BFB83FB8BBA68128902FB03F382
:102BF4001A46BB681A6101E00123FB83BB68DB78DA
:102C0400002B07D0FB8BBA68128902FB03F31A4628
:102C1400BB681A61BB685B785A01FB68134403F50F
:102C2400A0631946BB681B69C3F31202FB8BDB0468
:102C340018465F4B03401A43BB689B7A5B0703F05B
:102C4400C04313430B61FB79002B0AD0BB685B784C
:102C54005A01FB68134403F5A0631A46BB68DB689A
:102C64005361FB6803F580639B6803F00103002B49
:102C74000CBF01230023DBB27B77BB685B785A016E
:102C8400FB68134403F5A0631946BB685B785A01DB
:102C9400FB68134403F5A0631B6823F000530B6027
:102CA400BB685B785A01FB68134403F5A0631946BB
:102CB400BB685B785A01FB68134403F5A0631B6887
:102CC4007A7F520713430B60BB685B785A01FB6839
:102CD400134403F5A0631B687B617B6923F0804385
:102CE4007B617B6943F000437B61BB685B785A017D
:102CF400FB68134403F5A0631A467B691360FB79F0
:102D0400002B4FD1BB68DB78002B4BD1BB681B6910
:102D1400002B47D0BB68DB79032B31D801A252F8D2
:102D240023F000BF392D00085D2D0008392D00085F
:102D34005D2D0008BB681B6903339B087B837A8B7A
:102D4400FB68DB6A9BB29A421CD9FB689B6943F01F
:102D54002002FB689A6115E0BB681B6903339B087A
:102D64007B837A8BFB6803F580631B699BB29A4271
:102D74000AD9FB689B6943F08062FB689A6103E0AF
:102D840000BF02E000BF00E000BFBB68D968BB68B9
:102D94005A78BB681B6998B2002300930346F8680D
:102DA400FFF72AFD002318462037BD4680BD00BF2B
:102DB4000000F81F80B483B000AF78607B6803F52F
:102DC40080635B699BB218460C37BD465DF8047B93
:102DD400704700BF80B485B000AF78600B46FB70CD
:102DE4000023FB60FB785A017B68134403F5A0635E
:102DF4001B689B0C03F00303002B0BD0FB785A01D8
:102E04007B68134403F5A0631B689B0C03F0030366
:102E1400022B60D1FB785A017B68134403F5A0634D
:102E24001946FB785A017B68134403F5A0631B68B9
:102E340043F080430B607B68DB6A03F47F03002B61
:102E440035D1FB785A017B68134403F5A063194616
:102E5400FB785A017B68134403F5A0631B6823F0D5
:102E640000430B60FB785A017B68134403F5A063AD
:102E74001946FB785A017B68134403F5A0631B6869
:102E840043F000430B60FB680133FB60FB68B3F560
:102E94007A7F1ED8FB785A017B68134403F5A0633C
:102EA4001B6803F00043B3F1004FECD074E0FB78EF
:102EB4005A017B68134403F5A0631946FB785A0151
:102EC4007B68134403F5A0631B6843F000430B6065
:102ED40062E000BF60E0FB785A017B68134403F5AD
:102EE400A0631946FB785A017B68134403F5A06379
:102EF4001B6843F080430B607B6803F580631B69A8
:102F04009BB2002B35D1FB785A017B68134403F53F
:102F1400A0631946FB785A017B68134403F5A06348
:102F24001B6823F000430B60FB785A017B68134451
:102F340003F5A0631946FB785A017B68134403F533
:102F4400A0631B6843F000430B60FB680133FB6024
:102F5400FB68B3F57A7F1ED8FB785A017B6813446B
:102F640003F5A0631B6803F00043B3F1004FECD0FA
:102F740012E0FB785A017B68134403F5A0631946F9
:102F8400FB785A017B68134403F5A0631B6843F084
:102F940000430B6000E000BF002318461437BD4611
:102FA4005DF8047B704700BF80B485B000AF7860E3
:102FB4000B46FB700123FB730023BB60FB785A01B3
:102FC4007B68134403F5A0631A46FB7BDB041946B4
:102FD400124B0B4043F000431361FB785A017B68AA
:102FE400134403F5A0631B68BB60BB6823F08043F4
:102FF400BB60BB6843F00043BB60FB785A017B684D
:10300400134403F5A0631A46BB68136000231846F3
:103014001437BD465DF8047B704700BF0000F81FFD
:1030240080B586B000AF786000233B617868FFF715
:103034009FFB10217868FFF7BDFB7868FFF7CCFB96
:103044000023FB751FE0FB7D5A017B68134403F5E5
:10305400A0631B68FB60FB6843F08043FB60FB6874
:1030640023F00043FB60FB6823F40043FB60FB7D1B
:103074005A017B68134403F5A0631A46FB68136086
:10308400FB7D0133FB75FB7D0F2BDCD90023FB7526
:1030940034E0FB7D5A017B68134403F5A0631B688D
:1030A400FB60FB6843F08043FB60FB6843F0004334
:1030B400FB60FB6823F40043FB60FB7D5A017B68E3
:1030C400134403F5A0631A46FB6813603B6901339C
:1030D4003B613B69B3F57A7F0CD8FB7D5A017B6871
:1030E400134403F5A0631B6803F00043B3F1004FDE
:1030F400ECD000E000BFFB7D0133FB75FB7D0F2BA3
:10310400C7D97B6803F580631A464FF0FF335361D8
:103114007B684FF0FF325A617868FFF721FB002388
:1031240018461837BD4680BDD0F81437DB699A7845
:10313400062A08D1D0F85827186A998B121A8A429D
:1031440024BF04229A700020704700BF38B5D0F81D
:103154001437DC696178054659B92178A1B9D5F8E5
:103164001437D86908B105F011F90C4B0020187018
:1031740038BD04F07BF96178284604F0D1F9217850
:10318400002363700029EAD0284604F06FF92178FF
:10319400284604F0C5F900232370E0E70C01002061
:1031A4002DE9F043D0F8141785B0FF2301220979E3
:1031B400044602F04BFDFF2879D00146204602F078
:1031C40041FD3420D4F8146705F0D8F8F06194F880
:1031D4001F361A2202FB0342072192F8432681700C
:1031E400012A054608D0022A5AD0002A00F081801C
:1031F400022005B0BDE8F0835549564A0163042115
:1032040011701A2202FB03421A2792F84C0692F814
:103214004866B2F84A262A8309289CBF0A22AA8350
:1032240007FB0342AE7692F8406688BFA883022E5D
:103234004FF0000128BF0226A97069719EB30022D5
:103244004FF0030802F1010907FB03F303EBC90381
:103254002344204693F840361A06194632D4EB70BC
:1032640004F00AF994F81D1694F81C36EA780091D3
:103274008646288B02907146CDF80480204685F856
:1032840000E004F0E3F829780022204605F014F861
:103294005FFA89F39E424A4605D994F81F36D1E76E
:1032A4002D4A0263ADE7002005B0BDE8F083D4F8F1
:1032B4001427034611792046002202F0C7FCFF2898
:1032C40096D07AE72B7104F0D7F894F81D1694F889
:1032D4001C362A7900918646288B02907146CDF8D7
:1032E4000480204685F801E004F0B0F800226978F3
:1032F400CBE7D4F8282619498A4217D001F148416E
:1033040001F5A32101F28A318A420FD0B4F82806CC
:1033140040F24C5188420FD011498A427FF471AF78
:1033240010490C4A2963032111706AE70E49094ABE
:1033340029630221117064E7B4F82A1640F2C450DC
:103344008142EDD040F6CC108142E5D1E8E700BFE0
:10335400F94900080C010020F54A00084C056802F0
:103364000D0F6600B148000895470008F0B5D0F885
:103374001437DD6985B06B7940F642420446039206
:10338400092B08D8DFE803F015074C156277078D81
:10339400A30B03286BD00126304605B0F0BD0123F2
:1033A4006B710221D0F8643798470026304605B087
:1033B400F0BD644B1B78032B4FF0090300F0A6808B
:1033C40000934FF4045200F50773012103F0B6FB98
:1033D4000028E0D194F81C3285F8263094F81D3288
:1033E40085F8273094F81F2294F81E3203EB022349
:1033F4002B8594F8203285F82A3094F8213285F808
:103404002B3094F8223285F82C3094F8241294F856
:103414002332022203EB0123EB856A710126BBE709
:10342400EB8D00934FF4085200F50773012103F06C
:1034340085FB0028AFD1434B1B78022B7DD0032B97
:103444000CBF092304236B710126A5E70022212167
:103454000A230174437442828282C282114603F0B9
:10346400CDFE002895D1374B1B78032B4AD005237A
:103474006B71012690E7002221210B23012701749F
:10348400437447828282C282114603F0B7FE064625
:10349400002880D16F71D4F8643720460221984700
:1034A4007AE709204FF47D712126002304226074F9
:1034B40061822674A382E282204603A903F09EFE61
:1034C40000287FF468AF08236B71012664E7212686
:1034D400092040F2012100233022267460746182A5
:1034E400A382E2821849204603F088FE064600289B
:1034F4007FF451AF01236B712046D4F86437022165
:10350400984749E702236B71012645E7212740F2DA
:10351400111400200126222140F2F31285F82630EE
:10352400042385F827702C8585F82A0085F82B60FC
:1035340085F82C10EA856B712EE707236B71012641
:103544002AE700BF0C01002028000020002302818C
:1035540001608380C3808372704700BF70B40446E7
:10356400807A10BB0123A372FAB1E388A5889D4237
:1035740018BF064607D11DE0013080B2824214D044
:10358400A5889D4216D02568EB5C01F8013BE388D1
:10359400258901339BB29D42E380EDD1013080B295
:1035A4008242E6804FF00003EAD10023A372104662
:1035B40070BC70470023A37270BC704703780A2B59
:1035C40000D070472DE9F04F394B2DED048B1B785B
:1035D400042B9DB053D0022B07D0032B00F0808224
:1035E4001DB0BDEC048BBDE8F08F01F0F5F8054685
:1035F40001F018F92F4B1C78002C61D0132C0A46CB
:103604004FF0000300F0C684142C00F00F85104323
:103614001943020C42EA01420B0C10431943020AFB
:1036240042EA01620B0A10431943020942EA017299
:103634000B0910431943820842EA81728B08104334
:1036440019434B084FEA3002104319434B084FEA21
:103654003002994208BF904200F0FD83164C257851
:10366400002DBDD1594050400123237003F0D6FFF3
:103674001DB0BDEC048BBDE8F04F04F02BB801F095
:10368400D9F9C27A037B934200F07081094B1A780E
:10369400002A00F08581407A084B002800F0B982A6
:1036A4001A78002A9CD101221A7003F045FFDFE743
:1036B4000C0100200B01002000010020010100206A
:1036C400AC4B1B78012B00F00B85022B88D100F446
:1036D40080520023012613431A941B948DF86960C9
:1036E40005D09DF8683043F080038DF8683000F40D
:1036F40080420023134305D09DF8683043F0400313
:103704008DF8683000F400420023134305D09DF87F
:10371400683043F010038DF8683000F40052002341
:10372400134305D09DF8683043F020038DF86830CA
:1037340000F004020023134305D09DF8693043F0E0
:1037440080038DF8693000F008020023134305D08C
:103754009DF8693043F040038DF8693000F00102B0
:103764000023134305D09DF8693043F010038DF80E
:10377400693000F002020023134305D09DF869303C
:1037840043F020038DF869307B4BD3E900230240DA
:103794000B40134305D09DF8693043F002038DF8C4
:1037A4006930764BD3E9002302400B40134305D024
:1037B4009DF8693043F004038DF8693000F4807299
:1037C4000023134305D09DF8693043F002038DF8BC
:1037D400693000F400720023134305D09DF869306A
:1037E40043F008038DF8693000F01000002150EA1E
:1037F400010305D09DF8683043F008038DF8683064
:103804005F4B9FED609A187803F0B2FF5E4B8DF822
:103814006E00187803F0ACFF5C4B9FED5D7A93F873
:10382400712093F87030DFED5B6A6C7A297A8DF839
:103834006F0008EE102AAA79B8EEC88A803A52B20C
:1038440028EE078A07EE102A07EE903AB8EEC77AF8
:10385400EB7936EEC86AF8EEE77AB4EEC78A803BB5
:10386400A1F18005803CF1EE10FAC6EE868A5BB2C7
:103874006DB264B227EE899A00F2C885DFED467A0C
:1038840069EE277A37EE487A67EEA87A67EE877A88
:10389400FCEEE77A17EE900A8038C0B207EE903A51
:1038A400B8EEE77AB4EEC78AF1EE10FA00F28E852C
:1038B400DFED397A69EE277A37EE487A67EEA87A2F
:1038C40067EE877AFCEEE77A17EE906A803EF6B2EE
:1038D40003F04EFF8DF86A00304603F049FF07EE0F
:1038E400905AB8EEE77A8DF86B00B4EEC78AF1EE21
:1038F40010FA00F24B85DFED287A69EE277A37EE6D
:10390400487A67EEA87A67EE877AFCEEE77A17EED4
:10391400900A8038C0B207EE904AB8EEE77AB4EE67
:10392400C78AF1EE10FA00F20485DFED1B7A69EE26
:10393400277A37EE487A67EEA87A67EE877AFCEE44
:10394400E77A17EE904A803CE4B203F011FF8DF859
:103954006C00204603F00CFF8DF86D0072B61AABB4
:1039640003CB0E4B1860596062B639E6012B7FF425
:103974008DAE35E61C010020E0860008E8860008CC
:10398400460100205C8FA23F5001002084020020E9
:10399400C2D5A34300FEFF46000100387C0200208C
:1039A4009E4B1A9293F878100E9193F879100F9118
:1039B40093F87210109193F87310119193F87A1090
:1039C400129193F87B10139193F87410149193F857
:1039D4007510159193F87C10169193F87D1093F857
:1039E40077B093F8804093F8815093F8827093F8FD
:1039F40083C093F87680179193F87E1093F87F3004
:103A04001993C2F3C0030A93C2F380031891089375
:103A1400C2F34003059302F001030493D309029314
:103A2400C2F3801A0023C2F34019C2F3001200F15A
:103A3400090109930D930C930B93079306939E46E8
:103A44001E460F30CDF80CB0019211F8013BA34291
:103A540000F09D80AB4200F0DE80BB4200F00082AB
:103A6400634500F06982434500F0DD82039A934286
:103A740000F031830E9A934200F015820F9A93421C
:103A840000F05484109A934200F01E85119A9342D8
:103A940000F05385129A934200F0A185139A934241
:103AA40000F0A185149A934200F0A185159A9342DF
:103AB40000F0A185169A934200F0A185179A9342CB
:103AC40000F0A185189A934200F0A185099A9346C3
:103AD400199A934208BF4FF0010BCDF824B057E078
:103AE40000F008FF054600F02BFF4D4B1C78002C1E
:103AF40000F09C80132C0A464FF0000300F0D6819E
:103B0400142C7FF484AD02430B43100C40EA0340B1
:103B1400190C02430B43100A40EA0360190A0243DA
:103B24000B43100940EA0370190902430B43900840
:103B340040EA8370990802430B4359084FEA320064
:103B440002430B4359084FEA32004B404240002BDA
:103B540008BF012A00F0C783002B08BF022A00F027
:103B6400CC84002B08BF042A00F0F784002B08BF84
:103B7400082A00F0D384002B08BFB2F5805F40F020
:103B84006A81284B1B78002B7FF42AAD70E5FE2652
:103B940081427FF45AAF019A9DF8683006998DF8F6
:103BA4006B6062F304139DF869208DF86AE061F399
:103BB400820269F3451302996AF3861361F3C7130A
:103BC400079961F3C302049961F300030B9961F34C
:103BD4000412059961F341030C9961F345120899A4
:103BE40061F382030D9961F386120A9961F3C303A9
:103BF40009998DF8683061F3C7128DF8692072B69F
:103C0400094B1A9A1A6062B61DB0BDEC048BBDE86C
:103C1400F08F1870E4E40126BAE700BF84020020A4
:103C24000B0100200001002008030020D44B1E6A71
:103C34001A945F6A06400F4056EA070205D09DF8C1
:103C4400682042F010028DF868209E6ADF6A064000
:103C54000F4056EA070205D09DF8682042F0200282
:103C64008DF868201E6B5F6B06400F4056EA070212
:103C740005D09DF8682042F040028DF868209E6BC4
:103C8400DF6B06400F4056EA070205D09DF8682016
:103C940042F080028DF868201E6D5F6D06400F4073
:103CA40056EA070205D09DF8692042F010028DF80B
:103CB40069209E6DDF6D06400F4056EA070205D06D
:103CC4009DF8692042F020028DF869201E6E5F6E17
:103CD40006400F4056EA070205D09DF8692042F0DD
:103CE40040028DF869209E6EDF6E06400F4056EA52
:103CF400070205D09DF8692042F080028DF8692002
:103D04001E6C5F6C06400F4056EA070205D09DF812
:103D1400692042F004028DF869209E6CDF6C064035
:103D24000F4056EA070205D09DF8692042F00802C8
:103D34008DF869201E695F6906400F4056EA070244
:103D440005D09DF8682042F004028DF868201E68B2
:103D54005F6806400F4056EA070205D09DF86820C8
:103D640042F001028DF868209E68DF6806400F402B
:103D740056EA070205D09DF8682042F002028DF849
:103D840068209E69DF693040394050EA010205D05D
:103D94009DF8682042F008028DF8682093F871209D
:103DA40093F87030DFED775A9FED776AA97807EEC4
:103DB400102A6A7807EE903AA2F180035BB206EE0D
:103DC400903AB8EEC77AF8EEE66A27EE257AF8EE6E
:103DD400E77A36EE475AB4EEE67AA1F18003F1EEC3
:103DE40010FA67EEA57A5BB2C6EE055A3BD89FED92
:103DF400676A27EE866A76EEC76A26EE256A66EE5D
:103E0400266AFDEEE66ACDED016A9DF8040006EE31
:103E1400903AF8EEE66AB4EEE67AF1EE10FA00F2C1
:103E24008E809FED5A6A36EEC77A67EE867A67EE21
:103E3400A57A67EE877AFDEEE77A17EE904A644238
:103E4400E4B203F095FC8DF86A00204603F090FC80
:103E54008DF86B00D3E64E4B00221A70FFF7C0BBFF
:103E64004FF0010E94E6B1EE476AF4EEC66AF1EE45
:103E740010FA00F23381C2F17F0252B29FED436A1D
:103E840006EE902A27EE866AF8EEE66A26EE256AA2
:103E940076EEC76A66EE866AFDEEE66A16EE900A6C
:103EA4004042C0B2B3E74FF0010A71E602430B434C
:103EB400100C40EA0340190C02430B43100A40EA79
:103EC4000360190A02430B43100940EA03701909FD
:103ED40002430B43900840EA8370990802430B4362
:103EE40059084FEA320002430B4359084FEA3200A3
:103EF4004B404240002B08BF012A00F0DC80002B1D
:103F040008BF022A00F00282002B08BF042A00F036
:103F1400E182002B08BF082A00F02F83002B08BF82
:103F2400B2F5805F97D11A4A1378002B7FF458AB0F
:103F340001231370FFF79CBB4FF0FE0E28E6B1EE91
:103F4400476AF4EEC66AF1EE10FA3FF67AAFC1F1B1
:103F54007F0149B29FED0D6A06EE901A67EE867AEC
:103F6400F8EEE66A67EEA57A36EEC77A67EE277A48
:103F7400FDEEE77ACDED017A9DF8044061E700BFDC
:103F8400840200205C8FA23F0000FE420402013C38
:103F94000001002002430B43100C40EA0340190CBB
:103FA40002430B43100A40EA0360190A02430B431D
:103FB400100940EA0370190902430B43900840EAD0
:103FC4008370990802430B4359084FEA32000243B5
:103FD4000B4359084FEA32004B404240002B08BFC4
:103FE400012A68D0002B08BF022A00F08F81002B21
:103FF40008BF042A00F0D182002B08BF082A8DD103
:10400400DC4A1378002B7FF4EBAADB4B93F8701097
:1040140001206229107000F219820A18D2B283F8C2
:104024007020FFF7DDBA01230193B1E502430B438E
:10403400100C40EA0340190C02430B43100A40EAF7
:104044000360190A02430B43100940EA037019097B
:1040540002430B43900840EA8370990802430B43E0
:1040640059084FEA320002430B4359084FEA320021
:104074004B404240002B08BF012A00F03481002B42
:1040840008BF022A00F09982002B08BF042A7FF49B
:104094006DADB84A117800297FF4A2AAB64B93F803
:1040A40071000124A042147001D9411EC9B283F8E1
:1040B4007110FFF795BAAF490B78002B7FF490AAE3
:1040C400AD4B93F8702001205E2A087000F2BE8187
:1040D4000532D2B2A3E74FF0010959E5002096E674
:1040E400A54B1E6A1A945F6A06400F4056EA0702FF
:1040F40005D09DF8682042F010028DF868209E6A71
:10410400DF6A06400F4056EA070205D09DF8682092
:1041140042F020028DF868201E6B5F6B06400F4052
:1041240056EA070205D09DF8682042F040028DF857
:1041340068209E6BDF6B06400F4056EA070205D0ED
:104144009DF8682042F080028DF868201E6D5F6D36
:1041540006400F4056EA070205D09DF8692042F058
:1041640010028DF869209E6DDF6D06400F4056EAFF
:10417400070205D09DF8692042F020028DF86920DD
:104184001E6E5F6E06400F4056EA070205D09DF88A
:10419400692042F040028DF869209E6EDF6E064071
:1041A4000F4056EA070205D09DF8692042F08002CC
:1041B4008DF869201E6C5F6C06400F4056EA0702BA
:1041C40005D09DF8692042F004028DF869209E6CA8
:1041D400DF6C06400F4056EA070205D09DF86920BF
:1041E40042F008028DF869201E695F6906400F409D
:1041F40056EA070205D09DF8682042F004028DF8C3
:1042040068201E685F6806400F4056EA070205D022
:104214009DF8682042F001028DF868209E68DF68EE
:1042240006400F4056EA070205D09DF8682042F088
:1042340002028DF868209E69DF693040394050EAF7
:10424400010205D09DF8682042F008028DF868202C
:1042540093F8712093F87030DFED485A9FED486A67
:10426400E97906EE902AAA7907EE903AA2F1800342
:104274005BB2F8EEE66A07EE103A66EEA56AB8EEAF
:10428400C77AF8EEE77A36EE665AF4EEC76AA1F119
:104294008002F1EE10FA67EEA57A52B2C6EE055A24
:1042A40000F2F4809FED386A27EE866A37EE667A6C
:1042B40026EE256A26EE077ABDEEC77A8DED017AE1
:1042C4009DF8040007EE102AB8EEC77AF4EEC76A28
:1042D400F1EE10FA00F2BC809FED2B6A37EE667A9D
:1042E40067EE867AA3E523490B78002B7FF478A93F
:1042F400214B93F8712001205E2A087000F2E880B7
:104304000532D2B283F87120FFF76AB919490A78E5
:10431400002A7FF465A9184B93F87000012405283E
:104324000C707FF67CAE421FD2B278E60123029372
:104334002EE4F1EE487AB4EEE77AF1EE10FA00F2E8
:104344000981E3439FED0F7A07EE903A29EE079A2D
:10435400F8EEE77A69EE288A77EEC87A67EEA87AEB
:10436400FCEEE77A17EE904AC4F18004E4B2FFF75A
:10437400ECBA00BF00010020840200205C8FA23F41
:104384000000FE42000100380402013CF1EE487ACC
:10439400B4EEE77AF1EE10FA00F2D680EB431FEDAB
:1043A400077A07EE903A29EE077AF8EEE77A27EED5
:1043B400287A77EEC87A67EE877AFCEEE77A17EE0A
:1043C400900AC0F18000C0B2FFF7A5BAF1EE487AB6
:1043D400B4EEE77AF1EE10FA00F2B980DB431FED98
:1043E400177A07EE903A29EE077AF8EEE77A27EE85
:1043F400287A77EEC87A67EE877AFCEEE77A17EECA
:10440400906AC6F18006F6B2FFF762BAF1EE487A16
:10441400B4EEE77AF1EE10FA00F29380D2431FED86
:10442400277A07EE902A29EE077AF8EEE77A27EE44
:10443400287A77EEC87A67EE877AFCEEE77A17EE89
:10444400900AC0F18000C0B2FFF728BA6422E6E502
:10445400B1EE666AB4EEC67AF1EE10FA3FF6F1AC4C
:10446400D2431FED376A07EE102A67EE867AB8EE5C
:10447400C77A67EEA57A77EE666A66EEA77AFDEEEE
:10448400E77ACDED017A9DF80440DAE4B1EE666A8C
:10449400B4EEC67AF1EE10FA00F29F80DB431FED12
:1044A400466A07EE103A27EE866AB8EEC77A26EE19
:1044B400256A37EE667A27EE067ABDEEC77A17EEDE
:1044C400100A4042C0B2FDE601230493FFF760BB2B
:1044D400642217E7504A117800297FF481A84F4BD2
:1044E40093F870000124A04284BF00F1FF31C9B2E7
:1044F400147083F87010FFF773B8474A11780029D5
:104504007FF46EA8454B93F8710005284FF0010421
:1045140088BF411F147088BFC9B2C8E53E490B78F3
:10452400002B7FF45DA83D4B93F871200120622A93
:104534000870CDD80244D2B2E4E601230593FFF714
:1045440027BB8020FFF7AAB98020FFF7E4B98026B3
:10455400FFF7BEB98024FFF7F8B92F490A78002A7B
:104564007FF43EA82D4B93F871000124A0420C70F7
:104574007FF6C8AE421ED2B2C4E627490B78002BA0
:104584007FF42EA8254B93F870200120622A08702E
:104594003FF65CAF0244D2B241E51F490A78002AD3
:1045A4007FF41EA81D4B93F870000124A0420C70E8
:1045B4007FF635AD421ED2B231E517490A78002A9A
:1045C4007FF40EA8154B93F87100012405280C7094
:1045D4007FF698AE421FD2B294E6002072E6012321
:1045E4000693FFF7D5BA01230793FFF7D1BA012346
:1045F4000893FFF7CDBA01230A93FFF7C9BA012341
:104604000B93FFF7C5BA01230C93FFF7C1BA01233B
:104614000D93FFF7BDBA00BF000100208402002003
:10462400F8B5D0F81437DC69A3780546062B0BD807
:10463400DFE803F00C0E0A0A51046000D0F8583782
:10464400DB0701D50423A3700020F8BD236B984732
:10465400228B61694FF48070D2B2A1270126002316
:104664006882EA822F746E74AB82284602F0C6FD1B
:1046740008B10328E8D1A77C3FBB268B62690123DC
:10468400A37416B3A389E589591CA9421DD0013E20
:1046940012FA86F6208A013A13E0A16812F8010F93
:1046A400C854A389208A01339BB28342A38104BFE7
:1046B4000023A781B24203F1010106D0E589A94292
:1046C40003D08842E9D1002DE7D10023A374052348
:1046D400A3700020F8BD6378227E616902F096FE23
:1046E400D5F8583723620023062284F82430A270B8
:1046F4000020F8BD617803F0D5FD012839D194F884
:104704002430002BA0D194F812E0BEF1000F27D181
:10471400278BA07462691FB3A389E689591C8E4252
:104724001ED0013F12FA87F7208A013A14E0A168EB
:1047340012F8010FC854A389208A01339BB2834223
:10474400A38104BF0023A4F80CE0974203F1010104
:1047540006D0E689B14203D08842E8D1002EE6D1E2
:104764000023A3740123284684F82430FEF726FF8F
:104774006AE76178284603F095FD05287FF464AF65
:104784002846A17E02F064FC00283FF45BAF5BE79F
:1047940038B5D0F814370546DC690D4830220021BD
:1047A40003F007FE302200210A4803F002FE238BA7
:1047B4000C2B84BF0C232383064B636104F1080094
:1047C40005F507714FF4F072FEF7C0FE002038BD06
:1047D400A801002078010020D0F8143770B5DC69F6
:1047E400228B0AB9002070BD0A4904F10800FEF7C3
:1047F400B5FE238B8342F5D1074D084E0024E1B268
:10480400304600F097F90134302C05F8010FF6D149
:10481400034870BD78010020A70100207C850008B2
:10482400A8010020204B9A78DB78D009C2F38011CC
:10483400800040EA4100C2F300110843C2F3401172
:1048440040EAC100C2F3C00140EA011002F00101D4
:1048540040EA4110C2F3400140EA8110C2F38002F1
:1048640040EAC210C3F3800240EA0220C3F3C0024C
:1048740040EA4220C3F3801240EA0230C3F34012FC
:1048840040EA4230DA0940EA8230C3F3001240EAD7
:10489400C23003F0010240EA0240C3F3400340EA9D
:1048A4004340C117704700BFA801002038B5D0F8B5
:1048B40014370546DC690D484022002103F079FDD8
:1048C400402200210A4803F074FD238B102B84BF7F
:1048D40010232383064B636104F1080005F5077177
:1048E4004FF42072FEF732FE002038BDD8010020BC
:1048F40018020020D0F8143770B5DC69228B0AB98D
:10490400002070BD0A4904F10800FEF727FE238B3E
:104914008342F5D1074D084E0024E1B2304600F041
:1049240009F90134402C05F8010FF6D1034870BD94
:1049340018020020D70100209C850008D80100201F
:104944002B494A7902F00F02072A10B400D0E2BBC7
:104954000123053A022A8A794979C2F30010C2F385
:1049640040144FEA401040EA041002F0400440EAC8
:10497400040002F0800440EA040002F0010440EA6A
:104984000420C2F3400440EA4420C1F3401440EA46
:104994000430C1F3801440EA4430C1F3001440EA07
:1049A40084304FEAD11140EAC130C2F3800140EAB9
:1049B4000140C2F3C00298BF43F0040340EA4240FE
:1049C4001843C1175DF8044B7047A2F10103501E50
:1049D400B3FA83F302284FEA5313A2F1030098BFFA
:1049E40043F008030228B4D843F00203B1E700BF40
:1049F400D801002038B5D0F814370C4CDA690C49CA
:104A0400158B54610023022DC1F80130C1F8053023
:104A14002360636084BF0223138300F5077102F1EE
:104A240008005022FEF792FD002038BD58020020F5
:104A340060020020D0F8143770B5DC69228B0AB903
:104A4400002070BD1F4904F10800FEF787FD238B89
:104A54008342F5D100211C481C4D1D4E00F06AF81C
:104A6400002168701B4800F065F80021A8701A48FE
:104A740000F060F80021E870184800F05BF80021AD
:104A84002871174800F056F800216871154800F0A5
:104A940051F80021A871144800F04CF80021E87185
:104AA400124800F047F805F8080F0024E1B2304638
:104AB40000F040F80134062C05F8010FF6D1034844
:104AC40070BD00BF58020020FC8500086002002071
:104AD400BC8500083C860008DC8500081C860008AC
:104AE4007C860008BC8600085C8600089C8600085A
:104AF40038B5D0F814370D4ADC690D49258B61614E
:104B04000023042D137053709370D37013710B60D2
:104B140088BF042300F5077188BF238304F10800CC
:104B24002822FEF713FD002038BD00BF70020020CC
:104B340078020020F0B4437A0568077A5BBB4668C4
:104B4400F408214616F0070F4FF0000304F10104A6
:104B54001A4608BF0C4603E02A78D9008A4001337C
:104B6400A342F9D1012101FA06F4FA40631EC56893
:104B74001A40AA4211D303699A420ED8837ABBB170
:104B8400013E01FA06F6164212D06442C06922437D
:104B940000FB02F002E08B4202D80020F0BC704718
:104BA400466806FB017205EBD20502F00707C7E76A
:104BB400C069F0BC00FB02F0704700BF00207047E2
:104BC4002DE9F041D0F8143788B0DD692024064679
:104BD40022466846002103F0ECFB95F82030022BB6
:104BE40042D3032B44D9042B3ED1274F2246002124
:104BF400684603F0DEFB3B788DF8023003F1010ECA
:104C04004FF00508092006215522532387F800E0B8
:104C14008DF803008DF804108DF80B208DF80140F9
:104C24008DF800808DF80C302B7869460D223046C3
:104C340002F0FCFB22460021684603F0BAFB3B78F5
:104C44008DF80080591C012239708DF803208DF8ED
:104C540001408DF802304246694630462B7802F016
:104C6400E5FB08B0BDE8F081002008B0BDE8F081A4
:104C740040238DF80330694630462B780C2202F02D
:104C8400D5FB08B0BDE8F0810801002038B5D0F8A4
:104C94001437DC696178054669B92178B1B9D5F86A
:104CA4001437D86908B103F071FB0D4A0D4B00208D
:104CB4001070187038BD02F0D9FB6178284602F0F4
:104CC4002FFC2178002363700029E8D0284602F0E5
:104CD400CDFB2178284602F023FC00232370DEE775
:104CE400080100200C0100202DE9F043044685B0A2
:104CF400202200214E4803F05CFBD4F814372046F0
:104D040019795D22812300F0A1FFFF2876D00227C4
:104D1400484A494B014601260025204616701D705D
:104D240000F090FF2420D4F8148703F027FBC8F880
:104D34001C0094F81F3680F820701A2101FB0342EE
:104D4400064692F840768570022F92F84806B073B2
:104D540028BF0227B2F84A0692F84C26B081328264
:104D64008FB32A464FF003080D4602F1010905FBF3
:104D740003F303EBC9032344204693F840361A0691
:104D8400194624D4F37002F077FB94F81D16F278D8
:104D940094F81C368646B08902900091CDF80480C0
:104DA4007146204686F800E002F050FB317800227C
:104DB400204603F081FA5FFA89F39F424A4602D9FA
:104DC40094F81F36D1E7002005B0BDE8F0833371B5
:104DD40002F052FB94F81D16327994F81C3686467C
:104DE400B08902900091CDF804807146204686F87F
:104DF40001E002F02BFB00227178D9E7D4F81427E4
:104E04000123117920465D2200F020FFFF2801D004
:104E140003277DE7D4F81427D023117920464722AD
:104E240000F014FFFF2801D0042771E70220CBE72C
:104E3400540100200C0100200801002000207047CC
:104E4400164A174B12781B68052A164A127888BF2F
:104E540043F48033052A88BF43F40033180C184305
:104E64000021020A42EA01620B0A104319430209B3
:104E740042EA01720B0910431943820842EA817223
:104E84008B08104319434B084FEA3002104319436F
:104E94004B084FEA3002504059407047040100204B
:104EA4004C010020070100202DE9F04FD0F8143701
:104EB400DB692DED048B93F82030013B85B0032B87
:104EC40000F29681DFE813F0C801040055020B02DA
:104ED400CA4A557A117AD779567B947992F80BE0BD
:104EE400907A137BDFF85883DFF858A3DFF85893E0
:104EF400DFF858B341EA0521C14D43EA062344EAE9
:104F0400072440EA0E20BF4FBF4EA8F8000024B289
:104F140010792B8009B253885279AAF80040A9F875
:104F240000103B6030708BF8002007EE900AB8EE5A
:104F3400E77A07EE902ADFEDB56AB54FDFF810E3A4
:104F4400F8EEE77A27EE267A67EEA67ABCEEC77A01
:104F5400FCEEE77A8DED007A9DF80060CDED017AE4
:104F64009DF804203A70052E88BF43F48033052A47
:104F7400A84A8EF80060127888BF43F400331E46B6
:104F84000027002A40F0F781DFF8C8E29EF800E02D
:104F9400BEF1010F00F08C82BEF1020F40F02881B7
:104FA4000121DF04029203928DF8091005D59DF8C2
:104FB400082042F080028DF808205E0405D59DF893
:104FC400082042F040028DF808201C0405D59DF805
:104FD400082042F010028DF80820590705D59DF8E5
:104FE400092042F080028DF809201A0705D59DF8A2
:104FF400092042F040028DF80920DF0705D59DF80D
:10500400092042F010028DF809209E0705D59DF86D
:10501400092042F020028DF80920DC0305D59DF813
:10502400092042F002028DF80920990305D59DF864
:10503400092042F004028DF809209A0505D59DF84F
:10504400092042F008028DF80920DB0605D59DF8F9
:10505400083043F008038DF8083002F089FB8DF81E
:105064000E009BF80000DFED6C8A02F081FB6B4AB6
:105074009FED6B7A92F8713092F87020DFED696AD7
:105084008DF80F0008EE103ABAF90030B8EEC88A6D
:1050940007EE902A28EE078A07EE103AB8EEC77A90
:1050A400F8EEE77A36EEC86AB4EEC78AF1EE10FA83
:1050B40067EEA88A86EE869A40F25683F1EE487A25
:1050C400B4EEE77AF1EE10FA00F25A84DB4307EE0D
:1050D400103ADFED557A554AB8EEC77A68EEA77AEA
:1050E40037EE487A67EE897A27EE277AFCEEC77A9C
:1050F400CDED007A9DF800004342C0F18000C0B2BB
:105104001370B9F9003007EE903AF8EEE77AB4EE8E
:10511400E78AF1EE10FA00F2C7839FED437A28EE96
:10512400877A77EEC87A27EE097A27EE277AFCEE9B
:10513400C77A17EE903A803BDBB23D4C1070237077
:1051440002F016FB8DF80A00207802F011FBB8F982
:1051540000308DF80B0007EE903AF8EEE77AB4EEE3
:10516400E78AF1EE10FA00F27B839FED2F7A314A41
:1051740028EE877A77EEC87A27EE097A67EE277ADF
:10518400FCEEE77ACDED007A9DF80000107080F017
:105194008000B5F9003007EE903AB8EEE77AB4EE45
:1051A400C78AF1EE10FA00F22983DFED1F7A68EE68
:1051B400A77A37EE487A27EE898A28EE078AFCEE2A
:1051C400C87A17EE903A803BDBB21B4C1070237008
:1051D40002F0CEFA8DF80C00207802F0C9FA8DF8AE
:1051E4000D0072B602AB03CB144B1860596062B663
:1051F40005B0BDEC048BBDE8F08F00BF5801002062
:10520400480100204C01002046010020A1A0203DBF
:10521400070100200B0100205C8FA23F84020020C4
:10522400C2D5A34300FEFF4600010038020100205E
:105234000301002005010020060100207C0200205B
:10524400740100204A010020440100205001002084
:10525400040100201C0100208C4A8D4910795388D8
:105264000B6010B143F480530B60507910B143F4D8
:1052740000530B60907910B143F480430B60D079F4
:1052840010B143F400430B60D57B917BD77C92F83B
:105294000DC0147B907C92F811E0167CDFF800A21C
:1052A400DFF80092DFF80082DFF800B241EA05215E
:1052B400784D40EA072044EA0C24774F288024B232
:1052C400907AD27AAAF8004009B246EA0E26A9F8E2
:1052D4000010A8F8006038708BF8002025E66B4DAC
:1052E400DFF8ACE12E7995F8058095F80BA095F8D8
:1052F4000D9095F80FC0AC7A297BE8882A896F7CD9
:10530400DFF8A8B1B300360206F4704603F03003A8
:10531400334308F0CF0633434FEA0818AE7B2D7CA5
:1053240008F4407844EA0A2441EA092143EA0803DC
:1053340046EA0C2645EA0727DFF864A1DFF8649102
:10534400DFF854C1DFF86081524DCEF8003024B24A
:1053540009B2C0F38700C2F38702AAF80040A9F893
:1053640000108CF800008BF80020A8F800602F8053
:10537400DBE5464AADE5132A39D0142A5CD01A0C71
:1053840042EA074232433B0C3B43100A40EA0360C3
:10539400190A02430B43100940EA03701909024336
:1053A4000B43900840EA8370990802430B43590861
:1053B4004FEA320002430B4359084FEA32008B4252
:1053C40008BF82420BD0354C2578002D7FF410AFF6
:1053D400594050400123237002F020F94EE02F4B36
:1053E40000221A7005B0BDEC048BBDE8F08F18469E
:1053F4003946FFF725FD002908BF012800F0728215
:10540400002908BF022800F0A982002908BF042847
:1054140000F0D281002908BF082800F0C8820029C2
:1054240008BFB0F5805FDAD11C4B1A78002A7FF4EC
:10543400DFAE01221A7021E018463946FFF700FD5D
:10544400002908BF012800F07A82002908BF022839
:1054540000F0C381002908BF042800F0B7820029A6
:1054640008BF082800F0C482002908BFB0F5805F97
:10547400B5D10A4B1B78002B7FF4BAAE05B0BDEC56
:10548400048BBDE8F04F02F025B900BF54010020A1
:105494004C010020480100204601002009010020A1
:1054A4004A01002044010020740100205001002022
:1054B400E24BD3F820800292D3F8249008EA06083D
:1054C40009EA070958EA090005D09DF8080040F0E8
:1054D40010008DF80800D3F82880D3F82C9008EA3F
:1054E400060809EA070958EA090005D09DF80800EA
:1054F40040F020008DF80800D3F83080D3F83490C1
:1055040008EA060809EA070958EA090005D09DF8DF
:10551400080040F040008DF80800D3F83880D3F834
:105524003C9008EA060809EA070958EA090005D088
:105534009DF8080040F080008DF80800D3F85080F2
:10554400D3F8549008EA060809EA070958EA09005A
:1055540005D09DF8090040F010008DF80900D3F83B
:105564005880D3F85C9008EA060809EA070958EA63
:10557400090005D09DF8090040F020008DF80900CD
:10558400D3F86080D3F8649008EA060809EA0709AA
:1055940058EA090005D09DF8090040F040008DF854
:1055A4000900D3F86880D3F86C9008EA060809EA81
:1055B400070958EA090005D09DF8090040F0800069
:1055C4008DF80900D3F84080D3F8449008EA06081F
:1055D40009EA070958EA090005D09DF8090040F0D6
:1055E40004008DF80900D3F84880D3F84C9008EAF9
:1055F400060809EA070958EA090005D09DF80900D8
:1056040040F008008DF80900D3F81080D3F8149006
:1056140008EA060809EA070958EA090005D09DF8CE
:10562400080040F004008DF80800D3F80080D3F897
:10563400049008EA060809EA070958EA090005D0AF
:105644009DF8080040F001008DF80800D3F80880A8
:10565400D3F80C9008EA060809EA070958EA090091
:1056640005D09DF8080040F002008DF80800D3F83A
:105674001880D3F81C9006EA080607EA090756EAD8
:10568400070005D09DF8080040F008008DF80800D8
:1056940093F87100DFED6A6A93F87030DFED695AB0
:1056A4009FED695A07EE900AF8EEE77A07EE103A92
:1056B40067EEA66A07EE904AB8EEE76AB8EEC77AD4
:1056C40075EEE67AF4EEC66AF1EE10FA27EE057A84
:1056D40085EEA75A5DD9F1EE667AB4EEE76AF1EE8B
:1056E40010FA00F25C81E24307EE902A9FED5B6AB8
:1056F400564BF8EEE77A27EE066A77EEE67A26EE60
:10570400056A67EE867AFCEEE77A17EE902A524233
:10571400D2B21A7007EE901AB8EEE76AF4EEC66ACF
:10572400F1EE10FA00F2ED80DFED4C7A484C67EEB2
:10573400277A76EE666A67EE857A67EEA67AFCEEDD
:10574400E77A17EE903A2370104602F011F88DF8BC
:105754000A00207802F00CF88DF80B0072B63D4B6D
:10576400029A1A6062B643E5DFED3C7A374A68EE86
:10577400A77A37EE487A67EE897A27EE877AFCEEC5
:10578400C77ACDED007A9DF80000107080F080009B
:10579400B7E4DFED325A2D4B67EE255A36EE666AD2
:1057A40065EE855A25EE866AFCEEC67ACDED007A62
:1057B4009DF800201A70ADE727480278002A7FF48C
:1057C40017AD1E4B93F870100124A142047001D947
:1057D4004A1ED2B283F870200AE51F490A78002ACB
:1057E4007FF406AD154B93F87100012405280C7065
:1057F40001D9421FD2B283F87120F9E4F1EE487A5C
:10580400B4EEE77AF1EE10FA00F2B880DB4307EE6B
:10581400103ADFED127AB8EEC77A68EEA77A37EE5F
:10582400488A67EE897A28EE278AFCEEC87A17EE52
:10583400903AC3F18003DBB2C7E400BF84020020C6
:10584400C2D5A34300FEFF465C8FA23F02010020A5
:105854000301002008030020090100200001003892
:10586400B1EE487AF4EEC77AF1EE10FA00F28E80C7
:10587400DB4307EE103A5FED077A664AB8EEC77A63
:1058840068EEA77A37EE487A67EE897A27EE277AA8
:10589400FCEEC77ACDED007A9DF800004342C0F1DA
:1058A4008000C0B2137074E4B1EE487AF4EEC77AA3
:1058B400F1EE10FA70D8DB4307EE103ADFED567ABA
:1058C400B8EEC77A68EEA77A37EE487A67EE897A37
:1058D40027EE277AFCEEC77A17EE903AC3F18003DD
:1058E400DBB22AE44D490B78002B7FF481AC4C4B9E
:1058F40093F8702001205E2A087077D80532D2B25E
:1059040068E7F1EE667AB4EEE76AF1EE10FA4AD887
:10591400CB4307EE903A9FED406A424CF8EEE77AAB
:1059240027EE067A77EEE67A27EE057A67EE877A2F
:10593400FCEEE77A17EE903A5B42237004E73749AE
:105944000B78002B7FF454AC354B93F87120012075
:105954005E2A08705BD80532D2B24CE72F490A7828
:10596400002A7FF445AC2E4B93F8700001240528DF
:105974000C707FF62FAF421FD2B22BE7802324E4B2
:10598400294A002313708020FFF7BBBB214A002360
:1059940013708020FFF7FDBB8023FFF7CEBB224BA3
:1059A40000201870B6E61F4C00232370CCE61B4978
:1059B4000B78002B7FF41CAC194B93F8702001205A
:1059C400622A087012D80244D2B203E7134802785C
:1059D400002A7FF40DAC124B93F871100124A142FC
:1059E40004707FF608AF4A1ED2B204E76422F1E6DF
:1059F4000A490B78002B7FF4FBAB094B93F8712019
:105A04000120622A087002D80244D2B2F3E664226A
:105A1400F1E600BF05010020000100380901002063
:105A2400840200200301002002010020D0F8143772
:105A3400F0B5DC69A57889B00646002D39D0012D72
:105A44005ED15F4F63783946202201F0DFFC28469F
:105A540002F044FC94F82030032B70D0042B68D05F
:105A6400022B4DD13978002940F083807B78012BBB
:105A740000F08C800F2B43D1D6F81437DC696846CC
:105A8400202202F096FC94F82030022B00F08B8048
:105A9400032B73D10121032206238DF800108DF806
:105AA40001208DF8023069462378304601F0BEFCAF
:105AB40064E063784249202201F0A8FC642002F0EB
:105AC4000DFC94F82030032BD6F814372946DF69EF
:105AD40068464FF0200216D002F06BFC97F82020A5
:105AE400022A36D0032A09D101238DF801208DF82A
:105AF4000030694630463B7801F098FC0123A370DE
:105B0400002009B0F0BD02F054FC97F82020022ACE
:105B14002CD0032AF2D1012106238DF800108DF830
:105B240001208DF80230694630463B7801F07EFC56
:105B3400E4E73B78022B25D0202BE1D105E03B782C
:105B4400002BDDD17B78142BDAD13046FFF7ACF98A
:105B5400D6E7082240238DF802208DF803306946E9
:105B640030463B78042201F061FCC7E70822462353
:105B7400F1E70829C4D17B78802BC1D13046FFF7E7
:105B84001FF8BDE77B78202BBAD1F7E7BB78002B51
:105B9400B6D1FB78F02BB3D13B79002BB0D17B7914
:105BA400132BADD1D1E7082246238DF802208DF8BE
:105BB4000330694623780422304601F037FCDDE7E0
:105BC4005401002060B370B50025044680F85C27BA
:105BD400C0F81457C0F818573C220E4600F21C7047
:105BE400294602F0E6FB4FF48062294604F507706B
:105BF40002F0DFFB0123402225706570C4F858577A
:105C0400657684F81C56A370237684F81D36A27139
:105C14000EB1C4F86467204602F09CFA002070BDFF
:105C24000220704719B1D0F81837012B01D902208E
:105C3400704700EB83020133C0F818370020C2F824
:105C44000C17704780F81F1600207047FF2B00F0D8
:105C54003F81FF2A31D0FF2900F0C48010B490F8AE
:105C640041468C421FD090F85B468C4250D090F84D
:105C740075468C4256D090F88F468C425CD090F892
:105C8400A9468C4262D090F8C3468C4268D090F802
:105C9400DD468C426ED090F8F7468C4274D0FF20DB
:105CA4005DF8044B704790F842469442DBD190F87B
:105CB40043469C42D7D100206FE0FF296FD090F873
:105CC40041268A4200F0B08090F85B268A4200F0B8
:105CD400B28090F875268A4200F0B48090F88F263E
:105CE4008A4200F0B68090F8A9268A4200F0B88073
:105CF40090F8C3268A4200F0BA8090F8DD268A42E2
:105D040000F0BC8090F8F7268A4264D0FF207047E8
:105D140090F85C469442AAD190F85D469C42A6D184
