:020000040800F2
:1000000000000220959C0008E59C0008E59C000883
:10001000E59C0008E59C0008E59C00080000000045
:10002000000000000000000000000000E59C000847
:10003000E59C000800000000E59C0008C995000848
:10004000E59C0008E59C0008E59C0008E59C00088C
:10005000E59C0008E59C0008E59C0008E59C00087C
:10006000E59C0008E59C0008E59C0008E59C00086C
:10007000E59C0008E59C0008E59C0008E59C00085C
:10008000E59C0008E59C0008E59C0008E59C00084C
:10009000E59C0008E59C0008E59C0008D99500084F
:1000A000E59C0008E59C0008E59C0008E59C00082C
:1000B000E59C0008E59C0008E59C0008E59C00081C
:1000C000E59C0008E59C0008E59C0008E59C00080C
:1000D000E59C0008E59C0008E59C0008E59C0008FC
:1000E000E59C0008E59C0008E59C0008E59C0008EC
:1000F000E59C0008E59C0008E59C0008E59C0008DC
:10010000E59C0008E59C0008E59C0008E59C0008CB
:10011000E59C0008E59C0008E59C0008E59C0008BB
:10012000E59C0008E59C0008E59C0008E59C0008AB
:10013000E59C00080000000000000000E59C0008AD
:10014000E59C0008E59C0008E59C00082596000851
:10015000E59C0008E59C0008E59C0008E59C00087B
:10016000E59C0008E59C0008E59C0008E59C00086B
:10017000E59C0008E59C0008E59C000800000000E4
:1001800000000000E59C00080000000000000000E6
:10019000E59C00080000000000000000E59C00084D
:1001A000000000000000000000000000E59C0008C6
:1001B000E59C0008E59C0008E59C0008E59C00081B
:0401C000E59C0008B2
:1001C40010B5054C237833B9044B13B10448AFF38D
:1001D40000800123237010BDE40000200000000013
:1001E400109F000808B5034B1BB103490348AFF344
:1001F400008008BD00000000E8000020109F0008F7
:1002040002F1000102F1000102F1000102F100011A
:1002140002F1000102F1000102F1000102F100010A
:1002240002F1000102F1000102F1000102F10001FA
:1002340002F1000102F1000102F1000102F10001EA
:1004940002F1000102F1000101383FF7B1AE7047EB
:1004A40053B94AB9002908BF00281CBF4FF0FF31D7
:1004B4004FF0FF3000F07AB9ADF1080C6DE904CECD
:1004C40000F006F8DDF804E0DDE9022304B070472B
:1004D4002DE9F0478C460D460446089E002B51D169
:1004E4008A4217466DD9B2FA82FEBEF1000F0BD0D4
:1004F400CEF1200C01FA0EF520FA0CFC02FA0EF7EC
:100504004CEA050C00FA0EF44FEA174A250CBCFB22
:10051400FAF81FFA87F90AFB18CC45EA0C4508FBE0
:1005240009F3AB420AD9ED1908F1FF3280F02381B7
:10053400AB4240F22081A8F102083D44ED1AA4B276
:10054400B5FBFAF00AFB105544EA054400FB09F92F
:10055400A14509D9E41900F1FF3380F00A81A145CE
:1005640040F2078102383C44A4EB090440EA084005
:100574000021002E61D024FA0EF40023346073604D
:10058400BDE8F0878B4207D9002E54D0002186E8BD
:1005940021000846BDE8F087B3FA83F1002940F052
:1005A4008E80AB4202D3824200F2FA80841A65EB59
:1005B40003050120AC46002E3FD086E81010BDE8AC
:1005C400F08712B90127B7FBF2F7B7FA87FEBEF13D
:1005D400000F34D1EB1B3A0C1FFA87FC0121B3FB4B
:1005E400F2F8250C02FB183345EA03450CFB08F32B
:1005F400AB4207D9ED1908F1FF3002D2AB4200F249
:10060400D1808046ED1AA3B2B5FBF2F002FB10557F
:1006140043EA05440CFB00FCA44507D9E41900F1A6
:10062400FF3302D2A44500F2B8801846A4EB0C04B0
:1006340040EA08409DE731463046BDE8F087CEF1F8
:10064400200405FA0EF307FA0EF720FA04F83A0C20
:1006540025FA04F448EA0308B4FBF2F14FEA18451A
:1006640002FB11441FFA87FC45EA044501FB0CF325
:10067400AB4200FA0EF409D9ED1901F1FF3080F014
:100684008A80AB4240F2878002393D44EB1A1FFA5C
:1006940088F5B3FBF2F002FB103345EA034500FB97
:1006A4000CF3AB4207D9ED1900F1FF386FD2AB421E
:1006B4006DD902383D44EB1A40EA01418FE7C1F19C
:1006C400200722FA07F88B4005FA01F448EA0303ED
:1006D40020FA07FE4FEA134CFD404EEA040EB5FB28
:1006E400FCF94FEA1E440CFB19551FFA83F844EA3F
:1006F400054509FB08F4AC4202FA01F200FA01FADA
:1007040008D9ED1809F1FF3043D2AC4241D9A9F11F
:1007140002091D442D1B1FFA8EFEB5FBFCF00CFBD9
:1007240010554EEA054400FB08F8A04507D9E41823
:1007340000F1FF3529D2A04527D902381C4440EAEC
:100744000940A4EB0804A0FB02894C45C6464D466B
:1007540015D312D056B1BAEB0E0364EB050404FAB8
:1007640007F7CB401F43CC40376074600021BDE8DD
:10077400F0871846F8E69046E0E6C245EAD2B8EBC0
:10078400020E69EB03050138E4E72846D7E7404643
:1007940091E78146BEE7014678E702383C4445E7E5
:1007A400084608E7A8F102083D442BE7704700BF5C
:1007B40080B500AF0E4A0E4B1B6843F40073136000
:1007C4000B4A0B4B1B6843F480631360084A084BC5
:1007D4001B6843F480731360032000F047F9012081
:1007E40000F008F808F06AFE0023184680BD00BF38
:1007F400003C024080B582B000AF7860124B1A68AA
:10080400124B1B7819464FF47A73B3FBF1F3B2FB26
:10081400F3F3184600F05FF90346002B01D00123DF
:100824000EE07B680F2B0AD8002279684FF0FF3066
:1008340000F027F9064A7B681360002300E00123D7
:1008440018460837BD4680BD7C0000200400002007
:100854000000002080B400AF064B1B781A46064BFC
:100864001B681344044A136000BFBD465DF8047B53
:10087400704700BF040000201801002080B400AFBE
:10088400034B1B681846BD465DF8047B704700BFE8
:100894001801002080B584B000AF7860FFF7EEFF48
:1008A400B8607B68FB60FB68B3F1FF3F05D0094B80
:1008B4001B781A46FB681344FB6000BFFFF7DEFF9A
:1008C4000246BB68D21AFB689A42F7D300BF1037BE
:1008D400BD4680BD0400002080B485B000AF7860C0
:1008E4007B6803F00703FB600C4BDB68BB60BA68F2
:1008F4004FF6FF031340BB60FB681A02BB68134347
:1009040043F0BF6343F40033BB60044ABB68D36065
:1009140000BF1437BD465DF8047B704700ED00E06E
:1009240080B400AF044BDB681B0A03F007031846CE
:10093400BD465DF8047B704700ED00E080B483B0F1
:1009440000AF0346FB71094997F907305B09FA794F
:1009540002F01F02012000FA02F241F8232000BF36
:100964000C37BD465DF8047B704700BF00E100E032
:1009740080B483B000AF03463960FB7197F9073048
:10098400002B0BDA0D49FB7903F00F03043B3A68A3
:10099400D2B21201D2B20B441A7609E0084997F98F
:1009A40007303A68D2B21201D2B20B4483F8002362
:1009B40000BF0C37BD465DF8047B704700ED00E0D6
:1009C40000E100E080B489B000AFF860B9607A60FB
:1009D400FB6803F00703FB61FB69C3F10703042B06
:1009E40028BF0423BB61FB690433062B02D9FB69CE
:1009F400033B00E000237B610122BB6902FA03F39D
:100A04005A1EBB681A407B699A4001217B6901FA2E
:100A140003F3591E7B680B40134318462437BD4625
:100A24005DF8047B7047000080B582B000AF786049
:100A34007B68013BB3F1807F01D301230FE00A4AB5
:100A44007B68013B53600F214FF0FF30FFF790FFAD
:100A5400054B00229A60044B07221A6000231846B3
:100A64000837BD4680BD00BF10E000E080B582B00D
:100A740000AF78607868FFF72FFF00BF0837BD46E6
:100A840080BD80B586B000AF0346B9607A60FB7361
:100A940000237B61FFF744FF78617A68B96878695D
:100AA400FFF790FF024697F90F3011461846FFF7FB
:100AB4005FFF00BF1837BD4680BD80B582B000AF70
:100AC4000346FB7197F907301846FFF737FF00BF5D
:100AD4000837BD4680BD80B582B000AF78607868C5
:100AE400FFF7A2FF034618460837BD4680BD000045
:100AF40080B483B000AF78607B68042B06D1094AC8
:100B0400084B1B6843F00403136005E0054A054BDA
:100B14001B6823F00403136000BF0C37BD465DF867
:100B2400047B704710E000E080B500AF00F002F8ED
:100B340000BF80BD80B400AF00BFBD465DF8047B3C
:100B44007047000080B586B000AFF860B960C7E9AF
:100B540000230123FB75234B1B7E012B01D10223B0
:100B64003BE0204B01221A764CF2503000F070F832
:100B74000346FB75FB7D002B2BD1FB68002B05D1B5
:100B84003B781946B86800F015F916E0FB68012BAC
:100B940005D13B881946B86800F0E8F80DE0FB6819
:100BA400022B05D13B681946B86800F0BDF804E093
:100BB400D7E90023B86800F08BF84CF2503000F00D
:100BC40047F80346FB75084A074B1B6923F00103EA
:100BD4001361044B00221A76FB7D18461837BD4674
:100BE40080BD00BF1C010020003C024080B483B0E3
:100BF40000AF0023FB710B4B1B69002B0BDA094B75
:100C0400094A5A60074B094A5A60064B1B69002B74
:100C140001DA0123FB71FB7918460C37BD465DF8F8
:100C2400047B7047003C024023016745AB89EFCD4C
:100C340080B400AF054A054B1B6943F000431361C0
:100C440000231846BD465DF8047B7047003C024013
:100C540080B584B000AF78600023FB601A4B00229B
:100C6400DA61FFF70BFEF86010E07B68B3F1FF3F39
:100C74000CD07B68002B07D0FFF700FE0246FB6810
:100C8400D21A7B689A4201D9032319E00F4BDB681F
:100C940003F48033002BE8D10C4BDB6803F0010331
:100CA400002B02D0094B0122DA60084BDB6803F405
:100CB400F973002B03D000F09FF8012300E0002318
:100CC40018461037BD4680BD1C010020003C024080
:100CD400F0B484B000AFF860C7E90023114A114BA7
:100CE4001B6923F4407313610E4A0E4B1B6943F4D2
:100CF400407313610B4A0B4B1B6943F001031361EF
:100D0400FB683A681A60FB6804331A4697E81800CF
:100D1400250000262B46136000BF1037BD46F0BCEB
:100D2400704700BF003C024080B483B000AF7860DD
:100D340039600D4A0C4B1B6923F4407313610A4A52
:100D4400094B1B6943F400731361074A064B1B6983
:100D540043F0010313617B683A681A6000BF0C37E3
:100D6400BD465DF8047B7047003C024080B483B00C
:100D740000AF78600B467B800D4A0D4B1B6923F452
:100D8400407313610A4A0A4B1B6943F4807313616D
:100D9400074A074B1B6943F0010313617B687A8898
:100DA4001A8000BF0C37BD465DF8047B704700BF56
:100DB400003C024080B483B000AF78600B46FB7007
:100DC4000C4A0C4B1B6923F440731361094A094B09
:100DD4001B691361074A074B1B6943F00103136145
:100DE4007B68FA781A7000BF0C37BD465DF8047B47
:100DF400704700BF003C024080B400AF2F4BDB685B
:100E040003F01003002B08D02D4BDB6943F01003D3
:100E14002B4AD361294B1022DA60284BDB6803F09C
:100E24002003002B08D0264BDB6943F00803244A37
:100E3400D361224B2022DA60204BDB6803F04003AD
:100E4400002B08D01E4BDB6943F004031C4AD3611A
:100E54001A4B4022DA60194BDB6803F08003002B45
:100E640008D0174BDB6943F00203154AD361134BD7
:100E74008022DA60114BDB6803F48073002B09D005
:100E84000F4BDB6943F001030D4AD3610B4B4FF465
:100E94008072DA60094BDB6803F00203002B08D090
:100EA400074BDB6943F02003054AD361034B02225D
:100EB400DA6000BFBD465DF8047B7047003C024029
:100EC4001C01002080B584B000AF78603960012334
:100ED400FB730023BB60314B1B7E012B01D102232A
:100EE40058E02E4B01221A764CF25030FFF7B0FE38
:100EF4000346FB73FB7B002B48D13B684FF0FF326A
:100F04001A607B681B68012B15D17B681B69DAB2F8
:100F14007B685B681946104600F044F84CF2503088
:100F2400FFF796FE0346FB731D4A1D4B1B6923F016
:100F34000403136128E07B689B68BB601CE07B684A
:100F44001B69DBB21946B86800F050F84CF2503017
:100F5400FFF77EFE0346FB73114A114B1B6923F016
:100F6400FA031361FB7B002B03D03B68BA681A6059
:100F74000AE0BB680133BB607B68DA687B689B6806
:100F84001A44BB689A42DAD800F078F8034B00227E
:100F94001A76FB7B18461037BD4680BD1C01002025
:100FA400003C024080B483B000AF03463960FB715B
:100FB4000D4A0D4B1B6923F4407313610A4A0A4B13
:100FC4001B6943F0040313610749074B1A69FB7952
:100FD4001B02134343F480330B6100BF0C37BD463F
:100FE4005DF8047B704700BF003C024080B485B0CC
:100FF40000AF78600B46FB700023FB60FB78002B8E
:1010040002D10023FB6010E0FB78012B03D14FF4E5
:101014008073FB6009E0FB78022B03D14FF400736B
:10102400FB6002E04FF44073FB60134A124B1B69F0
:1010340023F44073136110490F4B1A69FB6813437F
:101044000B610D4A0C4B1B6923F0F80313610A4929
:10105400094B1A697B68DB00134343F002030B61FD
:10106400054A054B1B6943F48033136100BF1437F1
:10107400BD465DF8047B7047003C024080B400AF7D
:10108400204B1B6803F40073002B17D01D4A1D4B23
:101094001B6823F4007313601A4A1A4B1B6843F449
:1010A40000631360174A174B1B6823F40063136033
:1010B400144A144B1B6843F400731360114B1B68F0
:1010C40003F48063002B17D00E4A0E4B1B6823F4E5
:1010D400806313600B4A0B4B1B6843F4805313600B
:1010E400084A084B1B6823F480531360054A054BD8
:1010F4001B6843F48063136000BFBD465DF8047B46
:10110400704700BF003C024080B489B000AF7860F3
:10111400396000237B6100233B610023BB61002312
:10112400FB6165E10122FB6902FA03F37B613B6821
:101134001A687B6913403B613A697B699A4240F0C3
:1011440054813B685B68022B03D03B685B68122BBD
:1011540023D1FB69DA087B68083253F82230BB617B
:10116400FB6903F007039B000F2202FA03F3DB433E
:10117400BA691340BB613B681A69FB6903F0070352
:101184009B0002FA03F3BA691343BB61FB69DA08F3
:101194007B680832B96943F822107B681B68BB611D
:1011A400FB695B00032202FA03F3DB43BA691340D1
:1011B400BB613B685B6803F00302FB695B0002FAF6
:1011C40003F3BA691343BB617B68BA691A603B686D
:1011D4005B68012B0BD03B685B68022B07D03B6834
:1011E4005B68112B03D03B685B68122B30D17B68A2
:1011F4009B68BB61FB695B00032202FA03F3DB43D8
:10120400BA691340BB613B68DA68FB695B0002FAA8
:1012140003F3BA691343BB617B68BA699A607B685C
:101224005B68BB610122FB6902FA03F3DB43BA6921
:101234001340BB613B685B681B0903F00102FB6957
:1012440002FA03F3BA691343BB617B68BA695A6053
:101254007B68DB68BB61FB695B00032202FA03F372
:10126400DB43BA691340BB613B689A68FB695B0066
:1012740002FA03F3BA691343BB617B68BA69DA60A3
:101284003B685B6803F08053002B00F0AE800023C2
:10129400FB605C4A5B4B5B6C43F480435364594B87
:1012A4005B6C03F48043FB60FB68574AFB699B0853
:1012B400023352F82330BB61FB6903F003039B0044
:1012C4000F2202FA03F3DB43BA691340BB617B6864
:1012D4004E4A934225D07B684D4A93421FD07B6887
:1012E4004C4A934219D07B684B4A934213D07B6893
:1012F4004A4A93420DD07B68494A934207D07B689F
:10130400484A934201D106230CE007230AE005234F
:1013140008E0042306E0032304E0022302E001239F
:1013240000E00023FA6902F0030292009340BA69D4
:101334001343BB613449FB699B080233BA6941F822
:101344002320394B1B68BB613B69DB43BA691340FB
:10135400BB613B685B6803F48033002B03D0BA693C
:101364003B691343BB61304ABB6913602E4B5B6816
:10137400BB613B69DB43BA691340BB613B685B6893
:1013840003F40033002B03D0BA693B691343BB61F8
:10139400254ABB695360244B9B68BB613B69DB43B3
:1013A400BA691340BB613B685B6803F48013002B8C
:1013B40003D0BA693B691343BB611B4ABB699360A1
:1013C400194BDB68BB613B69DB43BA691340BB6102
:1013D4003B685B6803F40013002B03D0BA693B69D4
:1013E4001343BB61104ABB69D360FB690133FB61E2
:1013F400FB690F2B7FF696AE00BF2437BD465DF820
:10140400047B70470038024000380140000002406D
:101414000004024000080240000C02400010024098
:101424000014024000180240003C014080B483B024
:1014340000AF78600B467B8013467B707B78002B73
:1014440003D07A887B689A6103E07B881A047B68FE
:101454009A6100BF0C37BD465DF8047B70470000FD
:1014640080B582B000AF0346FB80084B5A69FB8805
:101474001340002B06D0054AFB885361FB881846AD
:1014840000F006F800BF0837BD4680BD003C0140AF
:1014940080B483B000AF0346FB8000BF0C37BD4669
:1014A4005DF8047B7047F0B58DB00AAF78607B6857
:1014B400002B01D101233EE07B68032283F89122B3
:1014C400786808F041F97B681B68184602F0ACFEA6
:1014D4007B681B683B607E686D4606F110040FCC88
:1014E4000FC50FCC0FC594E8030085E80300331D36
:1014F4000ECB386802F036FE7B681B680121184663
:1015040002F0A3FE7B681B683B607E686D4606F1B3
:1015140010040FCC0FC50FCC0FC594E8030085E869
:101524000300331D0ECB386802F0B2FF7B68012242
:1015340083F89122002318460C37BD46F0BD90B5C0
:1015440089B004AF7860084611461A460346FB701A
:101554000B46BB7013467B700023FB737B6893F8C8
:101564009032012B01D102236CE07B68012283F8C5
:101574009022FA78796813469B001344DB000B44ED
:1015840038337A781A70FA78796813469B001344D2
:10159400DB000B4440333A8D1A80FA78796813469D
:1015A4009B001344DB000B443933FA781A70FA7841
:1015B400796813469B001344DB000B443F3397F8D0
:1015C40024201A70FA78BB7803F07F03D8B27968C4
:1015D40013469B001344DB000B443A3302461A7053
:1015E400FA7897F90230DBB2DB09DBB21846796886
:1015F40013469B001344DB000B443B3302461A7032
:10160400FA78796813469B001344DB000B443C339F
:1016140097F820201A707B6818687C78BA78F97873
:101624003B8D029397F82430019397F82030009370
:10163400234603F085F80346FB737B68002283F896
:101644009022FB7B18461437BD4690BD80B584B00C
:1016540000AF78600B46FB700023FB737B6893F844
:101664009032012B01D102230FE07B68012283F821
:1016740090227B681B68FA781146184603F0A9FA91
:101684007B68002283F89022FB7B18461037BD4606
:1016940080BD000080B582B000AF78600846114676
:1016A4001A460346FB700B46BB7013467B70FA78F0
:1016B400796813469B001344DB000B443B33BA7830
:1016C4001A70FA78796813469B001344DB000B44C4
:1016D4003F337A781A703B7C002B0AD1FA78796808
:1016E40013469B001344DB000B44423303221A705D
:1016F40009E0FA78796813469B001344DB000B4435
:10170400423302221A707B78032B00F2048101A277
:1017140052F823F029170008FF180008C117000821
:10172400751800083B7C012B40F0F280BB78002B3D
:1017340040F0EE803B8B002B09D1FA787968134690
:101744009B001344DB000B44513301221A70FA78D6
:10175400796813469B001344DB000B4451331B7818
:10176400002B0AD1FA78796813469B001344DB00F6
:101774000B44423300221A7009E0FA787968134660
:101784009B001344DB000B44423302221A70FA78A4
:10179400796813469B001344DB000B445C331B78CD
:1017A400022B00F0B580FA78796813469B00134445
:1017B400DB000B443D333A7F1A70A9E0BB78002B61
:1017C40035D1FA78796813469B001344DB000B4447
:1017D40051331B78002B0AD1FA78796813469B00A1
:1017E4001344DB000B44423300221A7009E0FA78F8
:1017F400796813469B001344DB000B4442330222F6
:101804001A70FA78796813469B001344DB000B4482
:101814005C331B78022B7DD0FA78796813469B00E1
:101824001344DB000B443D333A7F1A7072E0FA78BC
:10183400796813469B001344DB000B4450331B7838
:10184400002B0AD1FA78796813469B001344DB0015
:101854000B44423300221A705CE0FA78796813462C
:101864009B001344DB000B44423302221A7051E004
:10187400BB78002B20D1FA78796813469B00134477
:10188400DB000B4451331B78002B0AD1FA787968BA
:1018940013469B001344DB000B44423300221A70AE
:1018A40039E0FA78796813469B001344DB000B4453
:1018B400423302221A702EE0FA78796813469B00AC
:1018C4001344DB000B4450331B78002B0AD1FA7805
:1018D400796813469B001344DB000B444233002217
:1018E4001A7018E0FA78796813469B001344DB00F9
:1018F4000B44423302221A700DE0FA7879681346D9
:101904009B001344DB000B44423300221A7002E0B4
:1019140000BF00E000BFFA78796813469B001344C7
:10192400DB000B4444337A691A60FA78398B78689F
:1019340013469B001344DB00034448331960FA78D0
:10194400796813469B001344DB000B445C3300228C
:101954001A70FA78796813469B001344DB000B4431
:101964004C3300221A60FA78796813469B001344BA
:10197400DB000B443933FA781A70FA787968134625
:101984009B001344DB000B445D3300221A707B6818
:101994001868FA7813469B001344DB0038337A68DE
:1019A400D1187B681B69DBB21A4602F0C5FF0346F7
:1019B40018460837BD4680BD80B586B000AF786054
:1019C4007B681B683B6100237B610023FB607B68B1
:1019D4001B68184602F019FD0346012B40F0E9800C
:1019E4007B681B68184602F0FBFC0346002B00F0E2
:1019F400DF807B681B68184602F0F2FC034603F4A0
:101A04000013B3F5001F04D17B681B684FF4001268
:101A14005A617B681B68184602F0E2FC034603F433
:101A24008013B3F5801F04D17B681B684FF48012C8
:101A34005A617B681B68184602F0D2FC034603F027
:101A44008063B3F1806F04D17B681B684FF08062C0
:101A54005A617B681B68184602F0C2FC034603F017
:101A64000203022B03D17B681B6802225A617B6844
:101A74001B68184602F0B4FC034603F00053B3F1AC
:101A8400005F18D13B6903F588631A463B6903F587
:101A940088631B6823F02E031360786807F0BCFE8C
:101AA4007B681B680121184602F092FD7B681B6865
:101AB4004FF000525A617B681B68184602F090FC94
:101AC400034603F08073B3F1807F02D1786801F09C
:101AD40005F87B681B68184602F082FC034603F095
:101AE4000803082B06D1786807F07AFE7B681B6828
:101AF40008225A617B681B68184602F071FC034691
:101B040003F00073B3F1007F34D17B681B6818467F
:101B140003F050F8F86000237B6121E001227B6927
:101B24009A40FB681340002B17D07B695A013B692C
:101B3400134403F5A0631B6803F40043002B06D091
:101B44007B69DBB21946786800F0B5F805E07B697B
:101B5400DBB21946786800F0EEFB7B6901337B61E8
:101B64007B689A687B699A42D8D87B681B684FF077
:101B740000725A617B681B68184602F031FC034608
:101B840003F01003102B14D17B681B687A68126869
:101B9400926922F010029A61786800F0EDFE7B6889
:101BA4001B687A681268926942F010029A6100E038
:101BB40000BF1837BD4680BD80B582B000AF7860E5
:101BC4007B6893F89032012B01D1022313E07B68E8
:101BD400012283F890227B681B68184602F013FBED
:101BE4007B681B680121184602F051FD7B680022C6
:101BF40083F89022002318460837BD4680BD80B57F
:101C040082B000AF78607B6893F89032012B01D1E9
:101C140002230DE07B68012283F890227B681B6815
:101C2400184603F0FBF87B68002283F89022002317
:101C340018460837BD4680BD80B582B000AF7860D5
:101C44007B681B68184602F0FDFC034618460837FB
:101C5400BD4680BD80B483B000AF78600B46FB7096
:101C6400FA78796813469B001344DB000B445C3319
:101C74001B7818460C37BD465DF8047B704780B569
:101C840082B000AF78607B681B68184602F049FD9B
:101C9400034618460837BD4680BD80B582B000AF04
:101CA40078607B681B68184602F028FD03461846D6
:101CB4000837BD4680BD90B585B000AF78600B464F
:101CC400FB707B681B68FB600023BB60FB785A01D8
:101CD400FB68134403F5A0639B6803F00403002B23
:101CE4001AD0FB785A01FB68134403F5A0631A4623
:101CF40004239360FB785A01FB68134403F5A06343
:101D04001946FB785A01FB68134403F5A063DB68AA
:101D140043F00203CB6094E0FB785A01FB68134460
:101D240003F5A0639B6803F02003002B09D0FB7824
:101D34005A01FB68134403F5A0631A4620239360F9
:101D44007FE0FB785A01FB68134403F5A0639B68AA
:101D540003F00803002B34D0FB785A01FB681344CA
:101D640003F5A0631946FB785A01FB68134403F595
:101D7400A063DB6843F00203CB60FA78796813460A
:101D84009B001344DB000B445D3305221A70FB787F
:101D94005A01FB68134403F5A0631A4610239360A9
:101DA400FB785A01FB68134403F5A0631A46082321
:101DB40093607B681B68FA781146184602F009FFA5
:101DC4003FE0FB785A01FB68134403F5A0639B686A
:101DD40003F48063002B34D0FB785A01FB6813446E
:101DE40003F5A0631946FB785A01FB68134403F515
:101DF400A063DB6843F00203CB607B681B68FA785E
:101E04001146184602F0E5FEFB785A01FB681344BC
:101E140003F5A0631A4610239360FA787968134691
:101E24009B001344DB000B445D3308221A70FB78DB
:101E34005A01FB68134403F5A0631A464FF4806308
:101E44009360FB785A01FB68134403F5A0639B6815
:101E540003F40073002B22D0FB785A01FB6813446F
:101E640003F5A0631946FB785A01FB68134403F594
:101E7400A063DB6843F00203CB607B681B68FA78DD
:101E84001146184602F0A5FEFB785A01FB6813447C
:101E940003F5A0631A464FF40073936047E2FB789E
:101EA4005A01FB68134403F5A0639B6803F0010324
:101EB400002B00F0C0807B681B69002B1BD0FA78D4
:101EC400F97878680B469B000B44DB0003444833E5
:101ED4001968FB785801FB68034403F5A0631B6988
:101EE400C3F31203C91A786813469B001344DB003A
:101EF40003444C331960FA78796813469B00134401
:101F0400DB000B445D3301221A70FA7879681346BA
:101F14009B001344DB000B44583300221A60FB7807
:101F24005A01FB68134403F5A0631A460123936026
:101F3400FA78796813469B001344DB000B443F3363
:101F44001B78002B0AD0FA78796813469B00134457
:101F5400DB000B443F331B78022B21D1FB785A0161
:101F6400FB68134403F5A0631946FB785A01FB6828
:101F7400134403F5A063DB6843F00203CB607B6882
:101F84001B68FA781146184602F023FEFB785A01C2
:101F9400FB68134403F5A0631A461023936033E0EF
:101FA400FA78796813469B001344DB000B443F33F3
:101FB4001B78032B28D1FB785A01FB68134403F5E3
:101FC400A0631946FB785A01FB68134403F5A06328
:101FD4001B6843F000530B60FA78796813469B0042
:101FE4001344DB000B445C3301221A70FA787968DD
:101FF40013469B001344DB000B445C331A78FB78D4
:102004001946786807F016FCFA78F97878680B4670
:102014009B000B44DB00034450331B7883F0010323
:10202400D8B2796813469B001344DB000B44503349
:1020340002461A707BE1FB785A01FB68134403F5EE
:10204400A0639B6803F00203002B00F0B780FB78C9
:102054005A01FB68134403F5A0631946FB785A013F
:10206400FB68134403F5A063DB6823F00203CB6031
:10207400FA78796813469B001344DB000B445D3304
:102084001B78012B0AD1FA78796813469B00134414
:10209400DB000B445C3301221A7077E0FA7879682C
:1020A40013469B001344DB000B445D331B78052B64
:1020B4000AD1FA78796813469B001344DB000B4479
:1020C4005C3305221A7061E0FA78796813469B0044
:1020D4001344DB000B445D331B78062B0AD0FA78DB
:1020E400796813469B001344DB000B445D331B7873
:1020F400082B4BD1FA78796813469B001344DB0014
:102104000B4458331968481C7C6813469B001344DD
:10211400DB00234458331860032914D9FA7879680A
:1021240013469B001344DB000B44583300221A600F
:10213400FA78796813469B001344DB000B445C3344
:1021440004221A7009E0FA78796813469B00134454
:10215400DB000B445C3302221A70FB785A01FB68E3
:10216400134403F5A0631B68BB60BB6823F0804382
:10217400BB60BB6843F00043BB60FB785A01FB685B
:10218400134403F5A0631A46BB681360FB785A0135
:10219400FB68134403F5A0631A4602239360FA789C
:1021A400796813469B001344DB000B445C331A78B4
:1021B400FB781946786807F03DFBB8E0FB785A01D4
:1021C400FB68134403F5A0639B6803F08003002BB2
:1021D4003DD0FB785A01FB68134403F5A06319460C
:1021E400FB785A01FB68134403F5A063DB6843F0F2
:1021F4000203CB60FA78796813469B001344DB0032
:102204000B4458331B68591C786813469B001344CD
:10221400DB00034458331960FA78796813469B004D
:102224001344DB000B445D3306221A707B681B6881
:10223400FA781146184602F0CCFCFB785A01FB6888
:10224400134403F5A0631A46802393606FE0FB7880
:102254005A01FB68134403F5A0639B6803F0100361
:10226400002B64D0FA78796813469B001344DB0092
:102274000B443F331B78032B17D1FB785A01FB68BF
:10228400134403F5A0631946FB785A01FB68134411
:1022940003F5A063DB6843F00203CB607B681B6833
:1022A400FA781146184602F094FCFA7879681346D5
:1022B4009B001344DB000B445D3303221A70FB784C
:1022C4005A01FB68134403F5A0631A461023936074
:1022D400FA78796813469B001344DB000B443F33C0
:1022E4001B78002B0AD0FA78796813469B001344B4
:1022F400DB000B443F331B78022B18D1FB785A01C7
:10230400FB68134403F5A0631B68BB60BB6823F040
:102314008043BB60BB6843F00043BB60FB785A0159
:10232400FB68134403F5A0631A46BB68136000BF3F
:102334001437BD4690BD90B585B000AF78600B46AC
:10234400FB707B681B68FB60FB785A01FB681344D5
:1023540003F5A0639B6803F00403002B1AD0FB78F9
:102364005A01FB68134403F5A0631A4604239360DF
:10237400FB785A01FB68134403F5A0631946FB7804
:102384005A01FB68134403F5A063DB6843F00203BE
:10239400CB60EDE2FB785A01FB68134403F5A063BC
:1023A4009B6803F02003002B41D0FB785A01FB68A3
:1023B400134403F5A0631A4620239360FA787968DE
:1023C40013469B001344DB000B443D331B78012B65
:1023D40040F0CE82FA78796813469B001344DB0000
:1023E4000B445D3304221A70FB785A01FB681344D2
:1023F40003F5A0631946FB785A01FB68134403F5FF
:10240400A063DB6843F00203CB607B681B68FA7847
:102414001146184602F0DDFBFA78796813469B00F2
:102424001344DB000B445C3302221A70A0E2FB78F5
:102434005A01FB68134403F5A0639B6803F040034F
:10244400002B35D0FA78796813469B001344DB00DF
:102454000B445D3304221A70FA78796813469B00A2
:102464001344DB000B44583300221A60FB785A01F2
:10247400FB68134403F5A0631946FB785A01FB6813
:10248400134403F5A063DB6843F00203CB607B686D
:102494001B68FA781146184602F09BFBFB785A0138
:1024A400FB68134403F5A0631A46402393605FE27C
:1024B400FB785A01FB68134403F5A0639B6803F49B
:1024C4000073002B22D0FB785A01FB68134403F5F8
:1024D400A0631946FB785A01FB68134403F5A06313
:1024E400DB6843F00203CB607B681B68FA78114613
:1024F400184602F06EFBFB785A01FB68134403F59F
:10250400A0631A464FF40073936031E2FB785A01DA
:10251400FB68134403F5A0639B6803F00103002BDD
:1025240035D0FA78796813469B001344DB000B44DA
:10253400583300221A60FB785A01FB68134403F5F0
:10254400A0631946FB785A01FB68134403F5A063A2
:10255400DB6843F00203CB607B681B68FA781146A2
:10256400184602F036FBFB785A01FB68134403F566
:10257400A0631A4601239360FA78796813469B0096
:102584001344DB000B445D3301221A70F0E1FB7845
:102594005A01FB68134403F5A0639B6803F0080326
:1025A400002B2BD0FB785A01FB68134403F5A0637E
:1025B4001A4608239360FB785A01FB68134403F519
:1025C400A0631946FB785A01FB68134403F5A06322
:1025D400DB6843F00203CB607B681B68FA78114622
:1025E400184602F0F6FAFA78796813469B00134409
:1025F400DB000B445D3305221A70B9E1FB785A0104
:10260400FB68134403F5A0639B6803F01003002BDD
:1026140035D0FA78796813469B001344DB000B44E9
:10262400583300221A60FB785A01FB68134403F5FF
:10263400A0631946FB785A01FB68134403F5A063B1
:10264400DB6843F00203CB607B681B68FA781146B1
:10265400184602F0BEFAFA78796813469B001344D0
:10266400DB000B445D3303221A70FB785A01FB68CC
:10267400134403F5A0631A461023936078E1FB78B2
:102684005A01FB68134403F5A0639B6803F08003BD
:10269400002B2BD0FB785A01FB68134403F5A0638D
:1026A4001946FB785A01FB68134403F5A063DB6801
:1026B40043F00203CB607B681B68FA781146184626
:1026C40002F087FAFA78796813469B001344DB001A
:1026D4000B445D3306221A70FB785A01FB681344DD
:1026E40003F5A0631A468023936041E1FB785A0105
:1026F400FB68134403F5A0639B6803F48063002B19
:1027040035D0FB785A01FB68134403F5A0631946DE
:10271400FB785A01FB68134403F5A063DB6843F0BC
:102724000203CB607B681B68FA781146184602F0F6
:1027340050FAFB785A01FB68134403F5A0631A4668
:1027440010239360FB785A01FB68134403F5A063DC
:102754001A464FF480639360FA78796813469B00B5
:102764001344DB000B445D3308221A7000E1FB784C
:102774005A01FB68134403F5A0639B6803F002034A
:10278400002B00F0F580FB785A01FB68134403F535
:10279400A0631946FB785A01FB68134403F5A06350
:1027A400DB6823F00203CB60FA78796813469B0058
:1027B4001344DB000B445D331B78012B2CD1FA78D6
:1027C400796813469B001344DB000B445C330122FD
:1027D4001A70FA78796813469B001344DB000B44A3
:1027E4003F331B78022B40F0AC80FA78F978786894
:1027F4000B469B000B44DB00034451331B7883F0EE
:102804000103D8B2796813469B001344DB000B44E0
:10281400513302461A7094E0FA78796813469B00A3
:102824001344DB000B445D331B78032B0AD1FA7885
:10283400796813469B001344DB000B445C3302228B
:102844001A707EE0FA78796813469B001344DB0023
:102854000B445D331B78042B14D1FA787968134642
:102864009B001344DB000B445C3302221A70FA7899
:10287400796813469B001344DB000B443D3300226C
:102884001A705EE0FA78796813469B001344DB0003
:102894000B445D331B78052B0AD1FA78796813460B
:1028A4009B001344DB000B445C3305221A7048E0A0
:1028B400FA78796813469B001344DB000B445D33BC
:1028C4001B78062B0AD0FA78796813469B001344C8
:1028D400DB000B445D331B78082B32D1FA7879681E
:1028E40013469B001344DB000B4458331968481CFF
:1028F4007C6813469B001344DB0023445833186060
:10290400032914D9FA78796813469B001344DB0031
:102914000B44583300221A60FA78796813469B00F6
:102924001344DB000B445C3304221A7009E0FA7888
:10293400796813469B001344DB000B445C3302228A
:102944001A70FB785A01FB68134403F5A0631A4616
:1029540002239360FA78796813469B001344DB00E2
:102964000B445C331A78FB781946786806F062FFEA
:1029740000BF1437BD4690BD80B588B000AF786005
:102984007B681B68FB610023FB7600237B610023CB
:102994003B617B681B681B6A7B617B69DBB203F06C
:1029A4000F03FB767B695B0C03F00F03FB607B6911
:1029B4001B09C3F30A03BB60FB68022B03D0052B7E
:1029C40000F0828083E0BB68002B7FD0FA7E7968B8
:1029D40013469B001344DB000B4444331B68002B59
:1029E40074D07B681868FA7E796813469B00134498
:1029F400DB000B4444331B68BA6892B2194601F0F9
:102A0400C8FCFA7EF97E78680B469B000B44DB0019
:102A1400034444331968BB681944786813469B001F
:102A24001344DB00034444331960FA7EF97E78686A
:102A34000B469B000B44DB0003444C331968BB6812
:102A44001944786813469B001344DB0003444C3359
:102A54001960FB7E5A01FB69134403F5A0631A69EC
:102A64001D4B1340002B31D0FB7E5A01FB691344EC
:102A740003F5A0631B683B613B6923F080433B6122
:102A84003B6943F000433B61FB7E5A01FB691344FD
:102A940003F5A0631A463B691360FA7EF97E7868F1
:102AA4000B469B000B44DB00034450331B7883F03C
:102AB4000103D8B2796813469B001344DB000B442E
:102AC400503302461A7001E000BF00E000BF00BFAF
:102AD4002037BD4680BD00BF0000F81F80B586B01A
:102AE40000AF78607B681B687B617B6903F5886352
:102AF4001B683B617B6903F588631B68FB60FB68AB
:102B040023F02E03FB603B6903F00203022B13D175
:102B14003B6903F00103012B0AD17B681B687A68C7
:102B24001268926922F000529A61786806F066FE93
:102B3400FB6843F00203FB603B6903F00803082BC6
:102B440042D1FB6843F00803FB603B6903F00403D4
:102B5400042B26D17B689B69022B13D13B6903F4B8
:102B6400C023B3F5802F06D17B681B680221184669
:102B740001F02EFD11E07B681B680121184601F06D
:102B840027FD0AE07B68DB68032B06D17B6903F52C
:102B940080631A464EF660235360786806F02EFE72
:102BA40012E07B6903F588631A467B6903F5886341
:102BB4001B6823F02E0313607B681B687A68126815
:102BC400926942F000529A613B6903F02003202B82
:102BD40003D1FB6843F02003FB607B6903F5886342
:102BE4001A46FB68136000BF1837BD4680BD00005D
:102BF40080B584B000AF786039607B68002B01D168
:102C04000123CAE0674B1B6803F00F023B689A423A
:102C14000CD2644B3A68D2B21A70624B1B6803F050
:102C24000F023B689A4201D00123B6E07B681B681F
:102C340003F00203002B20D07B681B6803F004031D
:102C4400002B05D0584A584B9B6843F4E0539360DB
:102C54007B681B6803F00803002B05D0524A524BD3
:102C64009B6843F4604393604F494F4B9B6823F048
:102C7400F0027B689B6813438B607B681B6803F0DE
:102C84000103002B44D07B685B68012B07D1464BC2
:102C94001B6803F40033002B19D101237DE07B680A
:102CA4005B68022B03D07B685B68032B07D13E4B28
:102CB4001B6803F00073002B09D101236DE03A4B2C
:102CC4001B6803F00203002B01D1012365E03649A0
:102CD400354B9B6823F003027B685B6813438B606E
:102CE400FDF7CCFDF8600AE0FDF7C8FD0246FB687D
:102CF400D31A41F28832934201D903234DE02A4B7F
:102D04009B6803F00C027B685B689B009A42EBD1E2
:102D1400244B1B6803F00F023B689A420CD9214BE9
:102D24003A68D2B21A701F4B1B6803F00F023B685B
:102D34009A4201D0012330E07B681B6803F004034E
:102D4400002B08D01849184B9B6823F4E0527B6889
:102D5400DB6813438B607B681B6803F00803002B5C
:102D640009D01149104B9B6823F460427B681B69AE
:102D7400DB0013438B6000F07BFB01460A4B9B682E
:102D84001B0903F00F03094AD35C21FA03F3084A31
:102D940013600120FDF72EFD002318461037BD46B1
:102DA40080BD00BF003C0240003802409CA00008E7
:102DB4007C00002080B400AF034B1B681846BD465E
:102DC4005DF8047B704700BF7C00002080B500AF35
:102DD400FFF7F0FF0146054B9B689B0A03F00703CE
:102DE400034AD35C21FA03F3184680BD003802403D
:102DF400ACA0000880B500AFFFF7DCFF0146054B2F
:102E04009B685B0B03F00703034AD35C21FA03F3CB
:102E1400184680BD00380240ACA0000880B58CB0D4
:102E240000AF786000237B6200233B620023FB61D8
:102E34000023BB6100237B6100233B610023FB6013
:102E44000023FB620023BB627B681B6803F0010361
:102E5400002B10D06F496F4BD3F88C3023F0C06235
:102E64007B689B6B1343C1F88C307B689B6B002B96
:102E740001D10123FB627B681B6803F00203002B72
:102E840010D06449634BD3F88C3023F0C0527B6874
:102E9400DB6B1343C1F88C307B68DB6B002B01D1F7
:102EA4000123FB627B681B6803F00403002B17D02B
:102EB4005849584BD3F88C3023F440127B681B6B71
:102EC4001343C1F88C307B681B6BB3F5801F01D1B1
:102ED4000123FB627B681B6B002B01D10123BB62C6
:102EE4007B681B6803F00803002B17D04949494B42
:102EF400D3F88C3023F440027B685B6B1343C1F836
:102F04008C307B685B6BB3F5800F01D10123FB62CE
:102F14007B685B6B002B01D10123BB627B681B6860
:102F240003F02003002B00F08A800023BB60394AA1
:102F3400384B1B6C43F080531364364B1B6C03F00B
:102F44008053BB60BB68344A334B1B6843F48073C3
:102F54001360FDF793FC786208E0FDF78FFC0246EE
:102F64007B6AD31A022B01D9032378E22A4B1B680C
:102F740003F48073002BF0D0264B1B6F03F44073D3
:102F84003B623B6A002B2FD07B681B6C03F44072BE
:102F94003B6A9A4228D01F4B1B6F23F440733B6259
:102FA4001E4B01221A601D4B00221A60194A3B6A0B
:102FB4001367184B1B6F03F00103002B14D0FDF7AC
:102FC4005DFC78620AE0FDF759FC02467B6AD31A7D
:102FD40041F28832934201D9032340E20D4B1B6F27
:102FE40003F00203002BEED07B681B6C03F44073E8
:102FF400B3F5407F14D10749064B9B6823F4F812BC
:103004007B681B6C23F0704323F4407313438B6081
:103014000CE000BF0038024000700040400E474200
:103024004A4A4A4B9B6823F4F81393604749474B39
:103034001A6F7B681B6CC3F30B0313430B677B682A
:103044001B6803F01003002B04D0414A7B6893F8FB
:10305400583013607B681B6803F08003002B0AD090
:103064003A493A4BD3F8943023F440027B68DB6C42
:103074001343C1F894307B681B6803F04003002BB2
:103084000AD03249314BD3F8943023F080627B6804
:103094009B6C1343C1F894307B681B6803F4807302
:1030A400002B11D02949294BD3F8943023F0006226
:1030B4007B685B6D1343C1F894307B685B6DB3F13F
:1030C400006F01D10123BB627B681B6803F40073AA
:1030D400002B0AD01D491D4BD3F8943023F08052A5
:1030E4007B685B6C1343C1F894307B681B6803F402
:1030F4008063002B11D01549144BD3F8943023F07E
:1031040000527B681B6D1343C1F894307B681B6DC0
:10311400B3F1005F01D10123FB62FB6A012B05D0EF
:103124007B681B68B3F5006F40F0FF80094B0022F9
:103134001A60FDF7A3FB78620EE0FDF79FFB0246E1
:103144007B6AD31A022B07D9032388E10038024093
:10315400E0114742680047427E4B1B6803F000635E
:10316400002BEAD17B681B6803F00103002B03D01A
:103174007B689B6B002B09D07B681B6803F0020300
:10318400002B28D07B68DB6B002B24D1714BD3F848
:1031940084301B0C03F0030301335B00FB616D4BB4
:1031A400D3F884301B0E03F00F03BB6169497B68BD
:1031B4005A687B689B689B011A43FB695B08013B67
:1031C4001B041A43BB691B061A437B685B691B0714
:1031D4001343C1F884307B681B6803F00403002B9D
:1031E40004D07B681B6BB3F5801F0AD07B681B6817
:1031F40003F00803002B35D07B685B6BB3F5800FBD
:1032040030D1544BD3F884301B0C03F00303013347
:103214005B00FB614F4BD3F884301B0F03F00703B3
:103224007B614C497B685A687B689B689B011A43A5
:10323400FB695B08013B1B041A437B681B691B0683
:103244001A437B691B071343C1F884304149414B3E
:10325400D3F88C3023F01F027B689B6A013B134335
:10326400C1F88C307B681B6803F48063002B29D081
:103274007B681B6DB3F1005F24D1364BD3F88430E7
:103284001B0C03F0030301335B00BB61314BD3F828
:1032940084301B0F03F007037B612E497B685A6857
:1032A4007B689B689B011A437B68DB685B08013B76
:1032B4001B041A43BB691B061A437B691B07134390
:1032C400C1F884307B681B6803F40063002B16D0BC
:1032D40020497B685A687B689B689B011A437B681A
:1032E400DB685B08013B1B041A437B681B691B06F4
:1032F4001A437B685B691B071343C1F88430164B80
:1033040001221A60FDF7BAFA786208E0FDF7B6FA0E
:1033140002467B6AD31A022B01D903239FE00D4B8B
:103324001B6803F00063002BF0D0BB6A012B40F054
:1033340095800A4B00221A60FDF7A0FA78620FE02C
:10334400FDF79CFA02467B6AD31A022B08D90323A1
:1033540085E000BF003802406800474270004742E1
:10336400414B1B6803F00053B3F1005FE8D07B6866
:103374001B6803F00403002B03D07B681B6B002B3A
:1033840009D07B681B6803F00803002B2BD07B68F3
:103394005B6B002B27D1344BD3F888301B0C03F024
:1033A400030301335B003B612F497B689A697B68A7
:1033B400DB699B011A433B695B08013B1B041A430D
:1033C4007B685B6A1B061343C1F888302649264B89
:1033D400D3F88C3023F4F8527B68DB6A013B1B0280
:1033E4001343C1F88C307B681B6803F48073002B93
:1033F4001DD07B685B6DB3F1006F18D11A4BD3F805
:1034040088301B0E03F00F03FB6017497B689A6931
:103414007B68DB699B011A437B681B6A5B08013B81
:103424001B041A43FB681B061343C1F888300F4B77
:1034340001221A60FDF722FA786208E0FDF71EFA0D
:1034440002467B6AD31A022B01D9032307E0064BF9
:103454001B6803F00053B3F1005FEFD1002318465B
:103464003037BD4680BD00BF00380240700047427F
:103474002DE9F04FA1B000AF00237B670023FB6769
:1034840000233B670023FB660023BB67A04B9B68BC
:1034940003F00C030C2B00F2938101A252F823F0E9
:1034A400D9340008C5370008C5370008C5370008F7
:1034B400DF340008C5370008C5370008C5370008E1
:1034C400E5340008C5370008C5370008C5370008CB
:1034D400613600088F4BBB6775E18F4BBB6772E1A8
:1034E4008B4B5B6803F03F037B67894B5B6803F49A
:1034F4008003002B56D0864B5B689B094FF0000479
:1035040040F2FF114FF0000201EA030102EA040253
:103514000B46144660017866786E40EAD36078669C
:103524005B013B66D7E918345B1A64EB0204A00123
:10353400F865F86D40EA9360F8659801B865D7E9D5
:103544001656ED1A66EB04063346DB007B657B6D8D
:10355400284643EA50737B652B46DB003B65D7E97D
:1035640014341D4626466B1846EB020418462146C1
:103574000B465B02FB64FB6C024643EAD253FB64DA
:1035840003465B02BB64D7E91234184621467B6FBD
:103594004FF000041A462346FCF782FF03460C460C
:1035A400FB674DE05A4B5B689B094FF0000440F207
:1035B400FF114FF0000201EA030102EA04020B4684
:1035C400144660017864786C40EAD36078645B01E7
:1035D4003B64D7E910345B1A64EB02044FEA841BA2
:1035E4004BEA936B4FEA831ABAEB030A6BEB040BB7
:1035F4004FEACB03FB63FB6B43EA5A73FB634FEA6B
:10360400CA03BB63D7E90EAB1AEB010A4BEB020BFF
:103614004FEA8B237B637B6B43EA9A537B634FEACA
:103624008A233B63D7E90CAB504659467B6F4FF076
:1036340000041A462346FCF733FF03460C46FB6797
:10364400334B5B681B0C03F0030301335B003B67E4
:10365400FA6F3B6FB2FBF3F3BB67B4E02C4B5B68D0
:1036640003F03F037B672A4B5B6803F48003002B62
:1036740054D0274B5B689B094FF0000440F2FF11C4
:103684004FF0000201EA030102EA04020B46144669
:103694006001F862F86A40EAD360F8625B01BB62D9
:1036A400D7E90A345B1A64EB02044FEA841949EA45
:1036B40093694FEA8318B8EB030869EB04094FEAEE
:1036C400C9037B627B6A43EA58737B624FEAC8038F
:1036D4003B62D7E9088918EB010849EB02094FEA74
:1036E4004923FB61FB6943EAD853FB614FEA482352
:1036F400BB61D7E90689404649467B6F4FF0000419
:103704001A462346FCF7CCFE03460C46FB674BE007
:10371400003802400024F40000127A002D4B5B684C
:103724009B094FF0000440F2FF114FF0000201EA40
:10373400030102EA04020B461446600178617869C9
:1037440040EAD36078615B013B61D7E904345B1ADA
:1037540064EB0204A60146EA93669D01ED1A66EB4A
:103764000406F300FB60FB6843EA5573FB60EB005F
:10377400BB60D7E902566D1846EB0206B3027B60C4
:103784007B6843EA95537B60AB023B6097E860003B
:10379400284631467B6F4FF000041A462346FCF757
:1037A4007FFE03460C46FB670A4B5B681B0F03F066
:1037B4000703FB66FA6FFB6EB2FBF3F3BB6702E031
:1037C400054BBB6700BFBB6F18468437BD46BDE8D9
:1037D400F08F00BF003802400024F40080B586B0AA
:1037E40000AF786000233B617B681B6803F0010332
:1037F400002B00F08380954B9B6803F00C03042B93
:1038040019D0924B9B6803F00C03082B06D18F4B05
:103814005B6803F48003B3F5800F0CD08B4B9B687B
:1038240003F00C030C2B12D1884B5B6803F4800368
:10383400B3F5800F0BD1854B1B6803F40033002BC9
:103844005BD07B685B68002B57D1012316E27B6851
:103854005B68B3F5803F06D17C4A7C4B1B6843F41C
:10386400803313601DE07B685B68B3F5A02F0CD137
:10387400764A764B1B6843F480231360734A734B78
:103884001B6843F4803313600BE0704A6F4B1B6872
:1038940023F4803313606D4A6C4B1B6823F480233C
:1038A40013607B685B68002B13D0FCF7E7FF38617B
:1038B40008E0FCF7E3FF02463B69D31A642B01D905
:1038C4000323DBE1614B1B6803F40033002BF0D0CE
:1038D40014E0FCF7D3FF386108E0FCF7CFFF0246A1
:1038E4003B69D31A642B01D90323C7E1574B1B68E7
:1038F40003F40033002BF0D100E000BF7B681B68A9
:1039040003F00203002B6FD0504B9B6803F00C03B1
:10391400002B17D04D4B9B6803F00C03082B05D1EB
:103924004A4B5B6803F48003002B0BD0474B9B6826
:1039340003F00C030C2B1CD1444B5B6803F4800391
:10394400002B16D1414B1B6803F00203002B05D05A
:103954007B68DB68012B01D001238FE13B493B4BA2
:103964001B6823F0F8027B681B69DB0013430B60C0
:103974003AE07B68DB68002B20D0354B01221A60CB
:10398400FCF77CFF386108E0FCF778FF02463B69EE
:10399400D31A022B01D9032370E12C4B1B6803F0CB
:1039A4000203002BF0D02949284B1B6823F0F802AE
:1039B4007B681B69DB0013430B6015E0244B00227A
:1039C4001A60FCF75BFF386108E0FCF757FF02461A
:1039D4003B69D31A022B01D903234FE11B4B1B680C
:1039E40003F00203002BF0D17B681B6803F008038B
:1039F400002B37D07B685B69002B16D0154B012256
:103A04001A60FCF73BFF386108E0FCF737FF024619
:103A14003B69D31A022B01D903232FE10B4B5B6FB4
:103A240003F00203002BF0D01CE00A4B00221A60C2
:103A3400FCF724FF38610FE0FCF720FF02463B69E6
:103A4400D31A022B08D9032318E100BF003802401F
:103A540000004742800E47428A4B5B6F03F002032B
:103A6400002BE9D17B681B6803F00403002B00F0F2
:103A740097800023FB75834B1B6C03F08053002B52
:103A84000FD10023FB607F4A7E4B1B6C43F08053B5
:103A940013647C4B1B6C03F08053FB60FB680123B5
:103AA400FB75794B1B6803F48073002B18D1764A9D
:103AB400754B1B6843F480731360FCF7DFFE3861B9
:103AC40008E0FCF7DBFE02463B69D31A022B01D95E
:103AD4000323D3E06C4B1B6803F48073002BF0D0FA
:103AE4007B689B68012B06D1664A664B1B6F43F0CB
:103AF400010313671CE07B689B68052B0CD1614AAA
:103B0400604B1B6F43F0040313675E4A5D4B1B6FEE
:103B140043F0010313670BE05A4A5A4B1B6F23F01F
:103B240001031367574A574B1B6F23F004031367B2
:103B34007B689B68002B15D0FCF7A0FE38610AE077
:103B4400FCF79CFE02463B69D31A41F28832934249
:103B540001D9032392E04B4B1B6F03F00203002BAC
:103B6400EED014E0FCF78AFE38610AE0FCF786FE2A
:103B740002463B69D31A41F28832934201D90323A6
:103B84007CE0404B1B6F03F00203002BEED1FB7D66
:103B9400012B05D13B4A3B4B1B6C23F08053136430
:103BA4007B689B69002B68D0364B9B6803F00C0341
:103BB400082B60D07B689B69022B45D1334B0022D4
:103BC4001A60FCF75BFE386108E0FCF757FE02461A
:103BD4003B69D31A022B01D903234FE0294B1B68FD
:103BE40003F00073002BF0D126497B68DA697B6807
:103BF4001B6A1A437B685B6A9B011A437B689B6A56
:103C04005B08013B1B041A437B68DB6A1B061A43EF
:103C14007B681B6B1B0713434B601C4B01221A6010
:103C2400FCF72CFE386108E0FCF728FE02463B69ED
:103C3400D31A022B01D9032320E0124B1B6803F093
:103C44000073002BF0D018E0104B00221A60FCF730
:103C540015FE386108E0FCF711FE02463B69D31AF1
:103C6400022B01D9032309E0064B1B6803F0007300
:103C7400002BF0D101E0012300E00023184618379F
:103C8400BD4680BD003802400070004060004742DD
:103C940080B582B000AF78607B68002B01D101232E
:103CA4003FE07B6893F83930DBB2002B06D17B68A8
:103CB400002283F83820786805F052FC7B682422BF
:103CC40083F839207B681B687A681268D26822F40A
:103CD4000052DA60786800F029F87B681B687A681B
:103CE4001268126922F490421A617B681B687A6830
:103CF4001268526922F02A025A617B681B687A684A
:103D04001268D26842F40052DA607B680022DA63F7
:103D14007B68202283F839207B68202283F83A20AC
:103D2400002318460837BD4680BD0000F0B585B0B5
:103D340000AF78600023FB607B681B681B69FB6035
:103D4400FB6823F44053FB607B68DB68FA68134329
:103D5400FB607B681B68FA681A617B681B68DB6818
:103D6400FB60FB6823F4164323F00C03FB607B68C1
:103D74009A687B681B691A437B685B691A437B6892
:103D8400DB691343FA681343FB607B681B68FA68BA
:103D9400DA607B681B685B69FB60FB6823F4407333
:103DA400FB607B689B69FA681343FB607B681B6854
:103DB400FA685A617B68DB69B3F5004F40F0E48030
:103DC4007B681B68AB4A934204D07B681B68AA4A91
:103DD40093426CD17B681C68FFF70CF802461346CB
:103DE4009B0013449A001A447B685B685B00B2FB37
:103DF400F3F3A24AA2FB03235B091D01FEF7FAFFBA
:103E0400024613469B0013449A001A447B685B687D
:103E14005B00B2FBF3F6FEF7EDFF024613469B0090
:103E240013449A001A447B685B685B00B2FBF3F3AB
:103E3400924AA2FB03235B09642202FB03F3F31AF5
:103E4400DB0032338D4AA2FB03235B095B0003F4DE
:103E5400F8731D44FEF7CEFF024613469B0013443D
:103E64009A001A447B685B685B00B2FBF3F6FEF7CA
:103E7400C1FF024613469B0013449A001A447B6810
:103E84005B685B00B2FBF3F37C4AA2FB03235B0990
:103E9400642202FB03F3F31ADB003233774AA2FBFA
:103EA40003235B0903F007032B44A36054E17B68FD
:103EB4001C68FEF78BFF024613469B0013449A00CE
:103EC4001A447B685B685B00B2FBF3F36B4AA2FBAA
:103ED40003235B091D01FEF779FF024613469B008D
:103EE40013449A001A447B685B685B00B2FBF3F6E8
:103EF400FEF76CFF024613469B0013449A001A44D3
:103F04007B685B685B00B2FBF3F35C4AA2FB0323B0
:103F14005B09642202FB03F3F31ADB003233574AD2
:103F2400A2FB03235B095B0003F4F8731D44FEF753
:103F34004DFF024613469B0013449A001A447B68C3
:103F44005B685B00B2FBF3F6FEF740FF02461346E4
:103F54009B0013449A001A447B685B685B00B2FBC5
:103F6400F3F3464AA2FB03235B09642202FB03F337
:103F7400F31ADB003233414AA2FB03235B0903F04B
:103F840007032B44A360E7E07B681B68394A93422C
:103F940004D07B681B68384A934271D17B681C68E3
:103FA400FEF728FF024613469B0013449A001A4466
:103FB4007B685B689B00B2FBF3F3304AA2FB0323EC
:103FC4005B091D01FEF716FF024613469B001344CE
:103FD4009A001A447B685B689B00B2FBF3F6FEF719
:103FE40009FF024613469B0013449A001A447B6857
:103FF4005B689B00B2FBF3F3204AA2FB03235B093B
:10400400642202FB03F3F31A1B0132331B4AA2FBA3
:1040140003235B0903F0F0031D44FEF7EBFE0246A5
:1040240013469B0013449A001A447B685B689B0008
:10403400B2FBF3F6FEF7DEFE024613469B00134482
:104044009A001A447B685B689B00B2FBF3F30B4A4B
:10405400A2FB03235B09642202FB03F3F31A1B0193
:104064003233064AA2FB03235B0903F00F032B44FC
:10407400A36071E000100140001401401F85EB5162
:104084007B681C68FEF7A2FE024613469B0013449D
:104094009A001A447B685B689B00B2FBF3F3304AD6
:1040A400A2FB03235B091D01FEF790FE02461346A3
:1040B4009B0013449A001A447B685B689B00B2FB24
:1040C400F3F6FEF783FE024613469B0013449A0060
:1040D4001A447B685B689B00B2FBF3F3204AA2FBA3
:1040E40003235B09642202FB03F3F31A1B0132333B
:1040F4001B4AA2FB03235B0903F0F0031D44FEF7F4
:1041040065FE024613469B0013449A001A447B68DA
:104114005B689B00B2FBF3F6FEF758FE02461346BB
:104124009B0013449A001A447B685B689B00B2FBB3
:10413400F3F30B4AA2FB03235B09642202FB03F3A0
:10414400F31A1B013233064AA2FB03235B0903F073
:104154000F032B44A360FFE700BF1437BD46F0BD37
:104164001F85EB5184B080B582B000AF786007F151
:10417400140080E80E00BB6A012B20D17B689B6B86
:1041840023F480327B689A637B68DB6823F48403BE
:1041940023F040037A68D3607B68DB6823F4401221
:1041A4007B68DA607B6C012B05D17B68DB6843F4A8
:1041B40080127B68DA60786800F036F90CE07B687E
:1041C400DB6843F040027B68DA60786800F02CF921
:1041D4007B684FF480329A633B6A012B0BD17B6876
:1041E4009B6843F006027B689A607B689B6843F097
:1041F40020027B689A60002318460837BD46BDE854
:10420400804004B0704780B483B000AF78607B68AE
:104214009B6843F001027B689A60002318460C37C0
:10422400BD465DF8047B704780B483B000AF78600E
:104234007B689B6823F001027B689A600023184620
:104244000C37BD465DF8047B704780B582B000AF83
:1042540078600B46FB707B68DB6823F0C0427B68A8
:10426400DA60FB78012B06D17B68DB6843F00052EF
:104274007B68DA6008E0FB78002B05D17B68DB689B
:1042840043F080427B68DA603220FCF703FB0023B2
:1042940018460837BD4680BD80B485B000AF78604D
:1042A40039600023FB603B689B0143F020027B687C
:1042B4001A61FB680133FB60FB68094A934201D928
:1042C400032306E07B681B6903F02003202BF0D056
:1042D400002318461437BD465DF8047B704700BFC1
:1042E400400D030080B485B000AF78600023FB600C
:1042F4007B6810221A61FB680133FB60FB68094A82
:10430400934201D9032306E07B681B6903F0100381
:10431400102BF0D0002318461437BD465DF8047BFB
:10432400704700BF400D030080B487B000AFF86051
:10433400B96011461A460B46FB711346BB80002335
:104344003B6100237B6197F82030002B1AD1BB8896
:1043540003339B083B6100237B610FE0FB791A0365
:10436400FB68134403F580531A46BB681B6813604B
:104374007B6901337B61BB680433BB607A693B6949
:104384009A42EBD3002318461C37BD465DF8047BE4
:10439400704780B487B000AFF860B9601346FB8003
:1043A40000237B61FB8803339B083B6100237B6113
:1043B4000BE0FB6803F580531A68BB681A607B69DD
:1043C40001337B61BB680433BB607A693B699A4201
:1043D400EFD3BB6818461C37BD465DF8047B7047B5
:1043E40080B485B000AF78600023FB607B685B69B4
:1043F400FB607B689B69FA681340FB60FB681846A6
:104404001437BD465DF8047B704780B483B000AFB9
:1044140078607B685B6903F0010318460C37BD467E
:104424005DF8047B7047000080B485B000AF78600D
:104434000023FB60FB680133FB60FB68134A934273
:1044440001D903231BE07B681B69002BF2DA0023EC
:10445400FB607B681B6943F001027B681A61FB689F
:104464000133FB60FB68094A934201D9032306E048
:104474007B681B6903F00103012BF0D0002318466D
:104484001437BD465DF8047B704700BF400D030040
:1044940084B080B584B000AF786007F11C0080E878
:1044A4000E007B6803F560631A46002313607B6883
:1044B4009B6B43F400127B689A637B6A032B0FD1D6
:1044C4007B68B3F1A04F0BD07B6803F580631A4679
:1044D4007B6803F580631B6843F0040313600AE000
:1044E4007B6803F580631A467B6803F580631B6869
:1044F40023F00403136010217868FFF7CDFE786879
:10450400FFF7F0FE0023FB6015E0FB685A017B68AF
:10451400134403F5A0631A464FF0FF339360FB681E
:104524005A017B68134403F5A0631A460023D36041
:10453400FB680133FB603A6AFB689A42E5D80121C3
:10454400786800F0A4F8C820FCF7A4F97B6800227E
:104554009A617B684FF0FF325A617B68B3F1A04FD8
:104564000AD17B6880225A627B68144A9A627B680B
:10457400134AC3F800210AE07B684FF400725A62C0
:104584007B68104A9A627B680F4AC3F80021BB6AB1
:10459400002B05D17B689B6943F010027B689A610C
:1045A4007B689A69094B13437A6893610023184620
:1045B4001037BD46BDE8804004B0704780006000FD
:1045C400E0004000000200010003E000080020A316
:1045D40080B483B000AF78600B46FB707B6803F552
:1045E40080631A467B6803F580631B6823F003032A
:1045F40013607B6803F5806319467B6803F5806369
:104604001A68FB7803F0030313430B60FB78012B58
:1046140007D17B6803F580631A464BF680335360F9
:1046240009E0FB78022B06D17B6803F580631A4608
:1046340041F270735360002318460C37BD465DF891
:10464400047B704780B584B000AF78607B6803F565
:1046540088631B68FB60FB6823F02E03FB607B68A8
:1046640003F588631A46FB6843F4807313600A20D9
:10467400FCF710F97B6803F588631A46FB6823F49A
:1046840080731360002318461037BD4680BD80B484
:1046940085B000AF78600B46FB707B6803F58863D8
:1046A4001B68FB60FB6823F02E03FB60FB6803F4CC
:1046B4008053002B0AD1FB78012B07D17B6803F5CB
:1046C40088631A46FB6843F480531360FB6803F461
:1046D4008053B3F5805F0AD1FB78002B07D17B6848
:1046E40003F588631A46FB6823F4805313600023A0
:1046F40018461437BD465DF8047B704780B485B016
:1047040000AF78607B6803F588631B68FB60FB6817
:104714005B0C03F0030318461437BD465DF8047BB5
:10472400704780B483B000AF78607B6803F5806322
:104734009B689BB218460C37BD465DF8047B7047F6
:1047440080B483B000AF7860084611461A46034629
:10475400FB700B46BB7013467B70FB785A017B6879
:10476400134403F5A0631A464FF0FF3393603B7D77
:10477400032B00F2868001A252F823F0914700082F
:104784003D48000891470008FD470008FB785A019E
:104794007B68134403F5A0631A4640F29D43D3603B
:1047A40097F90230002B11DAFB785A017B68134425
:1047B40003F5A0631946FB785A017B68134403F59B
:1047C400A063DB6843F48073CB6055E07B68B3F18E
:1047D400A04F51D0FB785A017B68134403F5A063C2
:1047E4001946FB785A017B68134403F5A063DB6820
:1047F40043F06003CB603FE0FB785A017B681344CD
:1048040003F5A0631A4640F29D63D36097F9023022
:10481400002B33DAFB785A017B68134403F5A06359
:104824001946FB785A017B68134403F5A063DB68DF
:1048340043F48073CB6021E0FB785A017B68134416
:1048440003F5A0631A4640F22523D36097F902309A
:10485400002B15DAFB785A017B68134403F5A06337
:104864001946FB785A017B68134403F5A063DB689F
:1048740043F4C073CB6003E000BF02E000BF00E07C
:1048840000BF7B6803F5806318467B6803F580638B
:104894009B69FA78012101FA02F2134383617B6870
:1048A4009B6943F000727B689A61FB785A017B68CC
:1048B400134403F5A06319467B789B0503F0FE526D
:1048C400BB78DB0203F4F0431A4397F90230002B60
:1048D40002DA4FF4004300E000231A433B7C022B2E
:1048E40002D14FF4003300E000231A433B7D9B04C4
:1048F40003F440231A433B8BC3F30A0313430B60B3
:104904003B7D032B10D1FB785A017B68134403F5DC
:10491400A0631946FB785A017B68134403F5A0632E
:104924001B6843F000530B60002318460C37BD4648
:104934005DF8047B704700BF80B58AB002AFF860B1
:10494400B9601346FB7100237B7700237B8300232C
:10495400FB834FF480733B8300237B61FB68B3F1DB
:10496400A04F2BD0BB681B79002B27D1FB79002BE0
:104974000BD1BB685B79012B07D1BB685B78194607
:10498400F86800F00FFA00230DE1FB79012B15D133
:10499400BB685B785A01FB68134403F5A0631946AE
:1049A400BB685B785A01FB68134403F5A063DB68BA
:1049B40023F06003CB60BB6800225A71BB681B699B
:1049C400002B19D0BB681B69BA6812891344013BD8
:1049D400BA681289B3FBF2F3FB83FA8B3B8B9A42DE
:1049E4000CD93B8BFB83FB8BBA68128902FB03F364
:1049F4001A46BB681A6101E00123FB83BB68DB78BC
:104A0400002B07D0FB8BBA68128902FB03F31A460A
:104A1400BB681A61BB685B785A01FB68134403F5F1
:104A2400A0631946BB681B69C3F31202FB8BDB044A
:104A340018465F4B03401A43BB689B7A5B0703F03D
:104A4400C04313430B61FB79002B0AD0BB685B782E
:104A54005A01FB68134403F5A0631A46BB68DB687C
:104A64005361FB6803F580639B6803F00103002B2B
:104A74000CBF01230023DBB27B77BB685B785A0150
:104A8400FB68134403F5A0631946BB685B785A01BD
:104A9400FB68134403F5A0631B6823F000530B6009
:104AA400BB685B785A01FB68134403F5A06319469D
:104AB400BB685B785A01FB68134403F5A0631B6869
:104AC4007A7F520713430B60BB685B785A01FB681B
:104AD400134403F5A0631B687B617B6923F0804367
:104AE4007B617B6943F000437B61BB685B785A015F
:104AF400FB68134403F5A0631A467B691360FB79D2
:104B0400002B4FD1BB68DB78002B4BD1BB681B69F2
:104B1400002B47D0BB68DB79032B31D801A252F8B4
:104B240023F000BF394B00085D4B0008394B0008E7
:104B34005D4B0008BB681B6903339B087B837A8B3E
:104B4400FB68DB6A9BB29A421CD9FB689B6943F001
:104B54002002FB689A6115E0BB681B6903339B085C
:104B64007B837A8BFB6803F580631B699BB29A4253
:104B74000AD9FB689B6943F08062FB689A6103E091
:104B840000BF02E000BF00E000BFBB68D968BB689B
:104B94005A78BB681B6998B2002300930346F868EF
:104BA400FFF7C2FB002318462037BD4680BD00BF77
:104BB4000000F81F80B483B000AF78607B6803F511
:104BC40080635B699BB218460C37BD465DF8047B75
:104BD400704780B485B000AF78600B46FB7000234B
:104BE400FB60FB785A017B68134403F5A0631B68E0
:104BF4009B0C03F00303002B0BD0FB785A017B685A
:104C0400134403F5A0631B689B0C03F00303022BFE
:104C140060D1FB785A017B68134403F5A0631946FD
:104C2400FB785A017B68134403F5A0631B6843F0C7
:104C340080430B607B68DB6A03F47F03002B35D170
:104C4400FB785A017B68134403F5A0631946FB788B
:104C54005A017B68134403F5A0631B6823F00043E7
:104C64000B60FB785A017B68134403F5A063194673
:104C7400FB785A017B68134403F5A0631B6843F077
:104C840000430B60FB680133FB60FB68B3F57A7F7C
:104C94001ED8FB785A017B68134403F5A0631B6894
:104CA40003F00043B3F1004FECD074E0FB785A01F9
:104CB4007B68134403F5A0631946FB785A017B68AB
:104CC400134403F5A0631B6843F000430B6062E0E8
:104CD40000BF60E0FB785A017B68134403F5A063CE
:104CE4001946FB785A017B68134403F5A0631B68DB
:104CF40043F080430B607B6803F580631B699BB2C0
:104D0400002B35D1FB785A017B68134403F5A0636B
:104D14001946FB785A017B68134403F5A0631B68AA
:104D240023F000430B60FB785A017B68134403F5BE
:104D3400A0631946FB785A017B68134403F5A0630A
:104D44001B6843F000430B60FB680133FB60FB68A6
:104D5400B3F57A7F1ED8FB785A017B68134403F5B8
:104D6400A0631B6803F00043B3F1004FECD012E0E2
:104D7400FB785A017B68134403F5A0631946FB785A
:104D84005A017B68134403F5A0631B6843F0004396
:104D94000B6000E000BF002318461437BD465DF8E1
:104DA400047B704780B485B000AF78600B46FB701D
:104DB4000123FB730023BB60FB785A017B68134417
:104DC40003F5A0631A46FB7BDB041946124B0B4028
:104DD40043F000431361FB785A017B68134403F5E5
:104DE400A0631B68BB60BB6823F08043BB60BB68E7
:104DF40043F00043BB60FB785A017B68134403F51E
:104E0400A0631A46BB681360002318461437BD46D6
:104E14005DF8047B704700BF0000F81F80B586B0C2
:104E240000AF786000233B617868FFF7FDF910213B
:104E34007868FFF731FA7868FFF754FA0023FB75B6
:104E44001FE0FB7D5A017B68134403F5A0631B68D4
:104E5400FB60FB6843F08043FB60FB6823F0004386
:104E6400FB60FB6823F40043FB60FB7D5A017B6815
:104E7400134403F5A0631A46FB681360FB7D0133FA
:104E8400FB75FB7D0F2BDCD90023FB7534E0FB7D28
:104E94005A017B68134403F5A0631B68FB60FB683D
:104EA40043F08043FB60FB6843F00043FB60FB6816
:104EB40023F40043FB60FB7D5A017B68134403F534
:104EC400A0631A46FB6813603B6901333B613B698D
:104ED400B3F57A7F0CD8FB7D5A017B68134403F544
:104EE400A0631B6803F00043B3F1004FECD000E073
:104EF40000BFFB7D0133FB75FB7D0F2BC7D97B689E
:104F040003F580631A464FF0FF3353617B684FF01B
:104F1400FF325A617868FFF776F90023184618378C
:104F2400BD4680BD2DE9F00F84B000AFC7E9020192
:104F3400D7E902121200134600221446D7E90212DE
:104F440043EA010344EA020419462246C7E902126D
:104F5400D7E902124FEA114A4AEA024A4FEA124BCF
:104F6400D7E9021241EA0A0142EA0B02C7E9021236
:104F7400D7E902124FEA112848EA02684FEA1229D7
:104F8400D7E9021241EA080142EA0902C7E902121A
:104F9400D7E902120D0945EA02751609D7E902128A
:104FA40041EA050142EA0602C7E90212D7E9021200
:104FB4008B083B603B6843EA82733B6093087B60E9
:104FC400D7E9021297E8180043EA010344EA02040D
:104FD400C7E90234D7E9023464084FEA3303D7E956
:104FE400021243EA010344EA0204C7E90234D7E99E
:104FF400023464084FEA3303D7E9021283EA010357
:1050040084EA0204C7E90234D7E902341846214687
:105014001037BD46BDE8F00F7047000090B58BB067
:1050240004AF78600023FB7502237B757B68D3F89B
:10503400AC331979FF230122786802F011FC03468E
:10504400BB75BB7DFF2B0AD17B68D3F8AC331979D0
:10505400FF230022786802F003FC0346BB75BB7D86
:10506400FF2B02D102237B7529E1BB7D19467868A9
:1050740002F0DAFB7B68D3F8AC43342004F056FE2C
:105084000346E3617B68D3F8AC33DB693B613B697E
:1050940007229A707B6893F81F3319467A681A239B
:1050A40003FB01F3134403F243331B78012B06D1B2
:1050B4003B69854A1A63854B03221A7028E07B6892
:1050C40093F81F3319467A681A2303FB01F3134438
:1050D40003F243331B78022B03D13B697C4A1A63E6
:1050E40016E07B6893F81F3319467A681A2303FB8A
:1050F40001F3134403F243331B78002B06D13B69BD
:10510400744A1A63714B02221A7001E00223D7E039
:105114003B6900229A703B6900225A717B6893F8BC
:105124001F3319467A681A2303FB01F3134403F56A
:1051340052731A783B699A767B6893F81F33194641
:105144007A681A2303FB01F3134403F24A331A88DF
:105154003B691A837B6893F81F3319467A681A23CC
:1051640003FB01F3134403F553731B789AB23B69B1
:105174009A833B699B8B092B02D83B690A229A8349
:105184007B6893F81F3319467A681A2303FB01F3EB
:10519400134403F550731B78022B28BF0223FB73BF
:1051A40086E07B6893F81F331846FB7D7A680133E9
:1051B400D9001A2303FB00F30B44134403F5507383
:1051C4001B785BB2002B38DA7B6893F81F331846E0
:1051D400FB7D7A680133D9001A2303FB00F30B44E7
:1051E400134403F550731A783B691A713B691B79B0
:1051F4001946786803F0CCFB03461A463B695A709B
:105204003B6959783B6918797B6893F81C437B6840
:1052140093F81D333A69128B029203220192009390
:1052240023460246786803F084FB3B695B780022DE
:105234001946786804F0EDFC37E07B6893F81F3377
:105244001846FB7D7A680133D9001A2303FB00F367
:105254000B44134403F550731A783B69DA703B69C5
:10526400DB781946786803F093FB03461A463B69DA
:105274001A703B6919783B69D8787B6893F81C43AA
:105284007B6893F81D333A69128B029203220192D0
:10529400009323460246786803F04BFB3B691B7876
:1052A40000221946786804F0B4FCFB7D0133FB75D9
:1052B400FA7DFB7B9A42FFF474AF00237B757B7D00
:1052C40018461C37BD4690BDD96300080A0100206A
:1052D400C1650008D561000880B584B000AF78606E
:1052E4007B68D3F8AC33DB69FB60FB685B78002B2D
:1052F4000ED0FB685B781946786803F039FBFB68CD
:105304005B781946786803F063FBFB6800225A70E7
:10531400FB681B78002B0ED0FB681B781946786855
:1053240003F026FBFB681B781946786803F050FBF2
:10533400FB6800221A707B68D3F8AC33DB69002B5E
:1053440006D07B68D3F8AC33DB69184604F0F6FC6E
:10535400034B00221A70002318461037BD4680BD47
:105364000A01002080B588B002AF7860594B1B68F1
:10537400FB600123FB750123BB757B68D3F8AC3359
:10538400DB693B613B695B79082B00F2908001A2E9
:1053940052F823F0BD530008B3540008E753000843
:1053A400BD530008635400088D540008B35400082A
:1053B40023540008455400080921786800F070F966
:1053C4000346002B75D13B6903F126027B6803F584
:1053D4008E731946104600F021FA3B6902225A7175
:1053E40067E03B69DB8D1946786800F040F90346B5
:1053F400002B60D17B68B3F8283340F24C529342BF
:1054040009D17B68B3F82A33B3F51A7F03D13B691A
:1054140007225A714FE03B6904225A714BE007F1AD
:105424000C02042300931346F4220321786800F04D
:1054340078F90346002B40D13B6908225A713CE0BD
:1054440030230093244B01220221786800F069F98B
:105454000346002B33D13B6901225A712FE000220D
:105464000021786800F035F90346BB75BB7D002B3D
:1054740003D13B6905225A7123E0BB7D032B20D164
:105484003B6905225A711CE00021786800F0A1F9FB
:105494000346002B17D13B6901225A717B68D3F86C
:1054A400FC330221786898470023FB750BE000BFAA
:1054B4000AE000BF08E000BF06E000BF04E000BF50
:1054C40002E000BF00E000BFFB7D18461837BD4670
:1054D40080BD00BF2C9F00080800002080B586B066
:1054E40002AF78600023FB737B68D3F8AC33DB69CD
:1054F400BB60BB689B78062B00F28B8001A252F83C
:1055040023F000BF255500082D5500081756000844
:10551400175600087D55000867550008AB5500086C
:10552400BB681B6B78689847BB685A69BB681B8B60
:10553400DBB20093134600220121786800F01DF9C4
:105544000346002B67D1BB6803F10800BB685969A7
:10555400BB681B8B1A4600F045FABB6805229A709B
:1055640059E07B68D3F8F03303F00103002B54D0E7
:10557400BB6804229A7050E0BB685969BB681B8BF6
:10558400DAB2BB685B78786803F095F9BB680622E9
:105594009A707B68D3F8F023BB681A62BB68002258
:1055A40083F824203CE0BB685B781946786804F0F3
:1055B4000FFB0346012B16D1BB6893F82430002B54
:1055C4002DD1BB6803F10800BB685969BB681B8B0C
:1055D4001A4600F007FABB68012283F82420786891
:1055E40000F054FA1BE0BB685B781946786804F055
:1055F400EFFA0346052B12D1BB689B7E19467868E7
:1056040002F071FD0346002B09D1BB6804229A7095
:1056140005E000BF04E000BF02E000BF00E000BFFF
:10562400FB7B18461037BD4680BD00BF80B485B0F3
:1056340000AF78607B68D3F8AC33DB69FB60FB6850
:105644009B78062B0CD17B68D3F8F023FB681B6A8C
:10565400D31AFA68928B934202D3FB6804229A709D
:10566400002318461437BD465DF8047B704780B5A7
:1056740086B002AF78600B467B807B6803F58E7240
:105684007B88009313464FF408520121786802F096
:10569400AEFC0346FB73FB7B18461037BD4680BD4A
:1056A40080B586B002AF78600B467B807B6803F5DB
:1056B4008E727B88009313464FF40452012178685C
:1056C40002F095FC0346FB73FB7B18461037BD467E
:1056D40080BD80B582B000AF78600B46FB70134686
:1056E400BB707B6821221A747B680A225A74FB7887
:1056F4001B021AB2BB781BB213431BB29AB27B686B
:105704005A827B6800229A827B680022DA82002215
:105714000021786802F0CBFE034618460837BD46E0
:1057240080BD80B584B000AFF8607B600B46FB722F
:105734001346BB72FB6821221A74FB6809225A744F
:10574400FB7A1B021AB2BB7A1BB213431BB29AB286
:10575400FB685A82FB6800229A823B7E9AB2FB68FD
:10576400DA823B7E9BB21A467968F86802F09FFEA3
:10577400034618461037BD4680BD80B584B000AFDF
:10578400F8607B600B46FB721346BB72FB68A12278
:105794001A74FB6801225A74FB7A1B021AB2BB7A90
:1057A4001BB213431BB29AB2FB685A82FB680022F5
:1057B4009A823B7E9AB2FB68DA823B7E9BB21A469F
:1057C4007968F86802F073FE034618461037BD4640
:1057D40080BD80B582B000AF78600B46FB707B68FB
:1057E40021221A747B680B225A74FB78002B0CBF9D
:1057F40001230023DBB29AB27B685A827B680022C1
:105804009A827B680022DA8200220021786802F002
:105814004EFE034618460837BD4680BD80B483B0AB
:1058240000AF786039603B681A787B681A703B680F
:105834005A787B685A703B6802331B789AB23B688B
:1058440003331B789BB21B029BB213449AB27B684E
:105854005A803B681A797B681A713B685A797B686D
:105864005A713B689A797B689A713B6807331B7855
:105874009AB23B6808331B789BB21B029BB2134459
:105884009AB27B681A8100BF0C37BD465DF8047B71
:10589400704780B485B000AF7860FF23FB737B68EA
:1058A4001B78DBB20A2B31D17B6893F81F3319467E
:1058B4007A681A2303FB01F3134403F243331B787E
:1058C400012B02D10223FB7320E07B6893F81F3382
:1058D40019467A681A2303FB01F3134403F2433392
:1058E4001B78022B02D10123FB730FE07B6893F832
:1058F4001F3319467A681A2303FB01F3134403F296
:1059040043331B78002B01D10323FB73FB7B184625
:105914001437BD465DF8047B704780B485B000AF92
:10592400F860B9601346FB80FB6800229A80FB682C
:105934000022DA80FB6800229A72FB68FA881A81D6
:10594400FB68BA681A6000BF1437BD465DF8047B73
:10595400704780B487B000AFF860B9601346FB802D
:10596400BB683B61FB689B7A002B31D1FB68012249
:105974009A720023FB8227E0FB68DA88FB689B8825
:105984009A4219D03B695A1C3A61FA681268F9685C
:10599400C9880A4412781A70FB68DB8801339AB20A
:1059A400FB68DA80FB68DA88FB681B899A4208D1B5
:1059B400FB680022DA8004E0FB6800229A72FB8A0A
:1059C4000AE0FB8A0133FB82FA8AFB889A42D3D32A
:1059D400FB6800229A72FB8818461C37BD465DF8A6
:1059E400047B704780B487B000AFF860B960134699
:1059F400FB80BB683B61FB689B7A002B3CD1FB6856
:105A040001229A720023FB8232E0FB689B880133F7
:105A1400FA68D28893420AD0FB689B880133FA68FB
:105A24001289934208D1FB68DB88002B04D1FB6800
:105A340000229A72FB8A23E0FB681B68FA6892884A
:105A44001A443B69591C39611B781370FB689B88A5
:105A540001339AB2FB689A80FB689A88FB681B89B9
:105A64009A4202D1FB6800229A80FB8A0133FB82AE
:105A7400FA8AFB889A42C8D3FB6800229A72FB8890
:105A840018461C37BD465DF8047B704790B595B049
:105A940000AF7860FF2387F8483000237B6400233D
:105AA4003B647868FFF7F5FE034687F8483097F8BB
:105AB4004830022B03D0032B00F0568180E3786832
:105AC40000F0D8FC78647B6CDA7A7B6C1B7B9A429E
:105AD40004D17B6CDB7A012B00F06D839E4B1B7829
:105AE400002B40F01D8107F10C030422002118460D
:105AF40004F037F90023FB6408E17A6CFB6C13446F
:105B040009331A78954B93F87E309A4202D1FE23DA
:105B1400FB73F8E07A6CFB6C134409331A788F4BEF
:105B240093F87F309A4202D10123FB73EBE07A6C45
:105B3400FB6C134409331A78884B93F880309A42EB
:105B440002D10123BB73DEE07A6CFB6C134409338E
:105B54001A78824B93F881309A4202D1FE23BB73A8
:105B6400D1E07A6CFB6C134409331A787B4B93F8BD
:105B740074309A4204D13B7B43F010033B73C2E080
:105B84007A6CFB6C134409331A78744B93F87530B0
:105B94009A4204D13B7B43F020033B73B3E07A6C1D
:105BA400FB6C134409331A786C4B93F876309A42A1
:105BB40004D13B7B43F040033B73A4E07A6CFB6C61
:105BC400134409331A78654B93F877309A4204D119
:105BD4003B7B43F080033B7395E07A6CFB6C13448E
:105BE40009331A785D4B93F870309A4204D13B7BA9
:105BF40043F001033B7386E07A6CFB6C1344093376
:105C04001A78564B93F871309A4204D13B7B43F097
:105C140002033B7377E07A6CFB6C134409331A7804
:105C24004E4B93F878309A4204D17B7B43F00403C3
:105C34007B7368E07A6CFB6C134409331A78474B26
:105C440093F879309A4204D17B7B43F008037B7349
:105C540059E07A6CFB6C134409331A783F4B93F880
:105C640072309A4204D13B7B43F004033B734AE015
:105C74007A6CFB6C134409331A78384B93F87330FD
:105C84009A4204D13B7B43F008033B733BE07A6CBC
:105C9400FB6C134409331A78304B93F87A309A42E8
:105CA40004D17B7B43F010037B732CE07A6CFB6C98
:105CB400134409331A78294B93F87B309A4204D160
:105CC4007B7B43F020037B731DE07A6CFB6C1344F5
:105CD40009331A78214B93F87C309A4204D17B7BA8
:105CE40043F040037B730EE07A6CFB6C134409337E
:105CF4001A781A4B93F87D309A4204D17B7B43F097
:105D040080037B7300BFFB6C0133FB64FB6C052BCE
:105D14007FF7F3AE72B6FB68114A136062B64CE2C9
