:020000040800F2
:1000000000000220DD2A00082D2B00082D2B0008FF
:100010002D2B00082D2B00082D2B000800000000C0
:100020000000000000000000000000002D2B000870
:100030002D2B0008000000002D2B0008F9290008D6
:100040002D2B00082D2B00082D2B00082D2B000830
:100050002D2B00082D2B00082D2B00082D2B000820
:100060002D2B00082D2B00082D2B00082D2B000810
:100070002D2B00082D2B00082D2B00082D2B000800
:100080002D2B00082D2B00082D2B00082D2B0008F0
:100090002D2B00082D2B00082D2B0008092A000805
:1000A0002D2B00082D2B00082D2B00082D2B0008D0
:1000B0002D2B00082D2B00082D2B00082D2B0008C0
:1000C0002D2B00082D2B00082D2B00082D2B0008B0
:1000D0002D2B00082D2B00082D2B00082D2B0008A0
:1000E000552A00082D2B00082D2B00082D2B000869
:1000F0002D2B00082D2B00082D2B00082D2B000880
:100100002D2B00082D2B00082D2B00082D2B00086F
:100110002D2B00082D2B00082D2B00082D2B00085F
:100120002D2B00082D2B00082D2B00082D2B00084F
:100130002D2B000800000000000000002D2B0008FF
:100140002D2B00082D2B00082D2B00082D2B00082F
:100150002D2B00082D2B00082D2B00082D2B00081F
:100160002D2B00082D2B00082D2B00082D2B00080F
:100170002D2B00082D2B00082D2B0008000000005F
:10018000000000002D2B000800000000000000000F
:100190002D2B000800000000000000002D2B00089F
:1001A0000000000000000000000000002D2B0008EF
:1001B0002D2B00082D2B00082D2B00082D2B0008BF
:0401C0002D2B0008DB
:1001C40010B5054C237833B9044B13B10448AFF38D
:1001D40000800123237010BD0C00002000000000EB
:1001E400882B000808B5034B1BB103490348AFF340
:1001F400008008BD0000000010000020882B0008CB
:1002040002F1000102F1000102F1000102F100011A
:1002140002F1000102F1000102F1000102F100010A
:1002240002F1000102F1000102F1000102F10001FA
:1002340002F1000102F1000102F1000102F10001EA
:1002440002F1000102F1000102F1000102F10001DA
:1002540002F1000102F1000102F1000102F10001CA
:1002640002F1000102F1000102F1000102F10001BA
:1002740002F1000102F1000102F1000102F10001AA
:1002840002F1000102F1000102F1000102F100019A
:1002940002F1000102F1000102F1000102F100018A
:1002A40002F1000102F1000102F1000102F100017A
:1002B40002F1000102F1000102F1000102F100016A
:1002C40002F1000102F1000102F1000102F100015A
:1002D40002F1000102F1000102F1000102F100014A
:1002E40002F1000102F1000102F1000102F100013A
:1002F40002F1000102F1000102F1000102F100012A
:1003040002F1000102F1000102F1000102F1000119
:1003140002F1000102F1000101383FF771AF7047AB
:1003240053B94AB9002908BF00281CBF4FF0FF3158
:100334004FF0FF3000F07AB9ADF1080C6DE904CE4E
:1003440000F006F8DDF804E0DDE9022304B07047AC
:100354002DE9F0478C460D460446089E002B51D1EA
:100364008A4217466DD9B2FA82FEBEF1000F0BD055
:10037400CEF1200C01FA0EF520FA0CFC02FA0EF76D
:100384004CEA050C00FA0EF44FEA174A250CBCFBA4
:10039400FAF81FFA87F90AFB18CC45EA0C4508FB62
:1003A40009F3AB420AD9ED1908F1FF3280F0238139
:1003B400AB4240F22081A8F102083D44ED1AA4B2F8
:1003C400B5FBFAF00AFB105544EA054400FB09F9B1
:1003D400A14509D9E41900F1FF3380F00A81A14550
:1003E40040F2078102383C44A4EB090440EA084087
:1003F4000021002E61D024FA0EF4002334607360CF
:10040400BDE8F0878B4207D9002E54D0002186E83E
:1004140021000846BDE8F087B3FA83F1002940F0D3
:100424008E80AB4202D3824200F2FA80841A65EBDA
:1004340003050120AC46002E3FD086E81010BDE82D
:10044400F08712B90127B7FBF2F7B7FA87FEBEF1BE
:10045400000F34D1EB1B3A0C1FFA87FC0121B3FBCC
:10046400F2F8250C02FB183345EA03450CFB08F3AC
:10047400AB4207D9ED1908F1FF3002D2AB4200F2CA
:10048400D1808046ED1AA3B2B5FBF2F002FB105501
:1004940043EA05440CFB00FCA44507D9E41900F128
:1004A400FF3302D2A44500F2B8801846A4EB0C0432
:1004B40040EA08409DE731463046BDE8F087CEF17A
:1004C400200405FA0EF307FA0EF720FA04F83A0CA2
:1004D40025FA04F448EA0308B4FBF2F14FEA18459C
:1004E40002FB11441FFA87FC45EA044501FB0CF3A7
:1004F400AB4200FA0EF409D9ED1901F1FF3080F096
:100504008A80AB4240F2878002393D44EB1A1FFADD
:1005140088F5B3FBF2F002FB103345EA034500FB18
:100524000CF3AB4207D9ED1900F1FF386FD2AB429F
:100534006DD902383D44EB1A40EA01418FE7C1F11D
:10054400200722FA07F88B4005FA01F448EA03036E
:1005540020FA07FE4FEA134CFD404EEA040EB5FBA9
:10056400FCF94FEA1E440CFB19551FFA83F844EAC0
:10057400054509FB08F4AC4202FA01F200FA01FA5B
:1005840008D9ED1809F1FF3043D2AC4241D9A9F1A1
:1005940002091D442D1B1FFA8EFEB5FBFCF00CFB5B
:1005A40010554EEA054400FB08F8A04507D9E418A5
:1005B40000F1FF3529D2A04527D902381C4440EA6E
:1005C4000940A4EB0804A0FB02894C45C6464D46ED
:1005D40015D312D056B1BAEB0E0364EB050404FA3A
:1005E40007F7CB401F43CC40376074600021BDE85F
:1005F400F0871846F8E69046E0E6C245EAD2B8EB42
:10060400020E69EB03050138E4E72846D7E74046C4
:1006140091E78146BEE7014678E702383C4445E766
:10062400084608E7A8F102083D442BE7704700BFDD
:1006340080B500AF0E4A0E4B1B6843F40073136081
:100644000B4A0B4B1B6843F480631360084A084B46
:100654001B6843F480731360032000F047F9002003
:1006640000F008F802F042F90023184680BD00BFEC
:10067400003C024080B582B000AF7860124B1A682B
:10068400124B1B7819464FF47A73B3FBF1F3B2FBA8
:10069400F3F3184600F05FF90346002B01D0012361
:1006A4000EE07B680F2B0AD8002279684FF0FF30E8
:1006B40000F027F9064A7B681360002300E0012359
:1006C40018460837BD4680BD0800002004000020FD
:1006D4000000002080B400AF064B1B781A46064B7E
:1006E4001B681344044A136000BFBD465DF8047BD5
:1006F400704700BF040000202800002080B400AF31
:10070400034B1B681846BD465DF8047B704700BF69
:100714002800002080B584B000AF7860FFF7EEFFBA
:10072400B8607B68FB60FB68B3F1FF3F05D0094B01
:100734001B781A46FB681344FB6000BFFFF7DEFF1B
:100744000246BB68D21AFB689A42F7D300BF10373F
:10075400BD4680BD0400002080B485B000AF786041
:100764007B6803F00703FB600C4BDB68BB60BA6873
:100774004FF6FF031340BB60FB681A02BB681343C8
:1007840043F0BF6343F40033BB60044ABB68D360E7
:1007940000BF1437BD465DF8047B704700ED00E0F0
:1007A40080B400AF044BDB681B0A03F00703184650
:1007B400BD465DF8047B704700ED00E080B483B073
:1007C40000AF0346FB71094997F907305B09FA79D1
:1007D40002F01F02012000FA02F241F8232000BFB8
:1007E4000C37BD465DF8047B704700BF00E100E0B4
:1007F40080B483B000AF03463960FB7197F90730CA
:10080400002B0BDA0D49FB7903F00F03043B3A6824
:10081400D2B21201D2B20B441A7609E0084997F910
:1008240007303A68D2B21201D2B20B4483F80023E3
:1008340000BF0C37BD465DF8047B704700ED00E057
:1008440000E100E080B489B000AFF860B9607A607C
:10085400FB6803F00703FB61FB69C3F10703042B87
:1008640028BF0423BB61FB690433062B02D9FB694F
:10087400033B00E000237B610122BB6902FA03F31E
:100884005A1EBB681A407B699A4001217B6901FAB0
:1008940003F3591E7B680B40134318462437BD46A7
:1008A4005DF8047B7047000080B582B000AF7860CB
:1008B4007B68013BB3F1807F01D301230FE00A4A37
:1008C4007B68013B53600F214FF0FF30FFF790FF2F
:1008D400054B00229A60044B07221A600023184635
:1008E4000837BD4680BD00BF10E000E080B582B08F
:1008F40000AF78607868FFF72FFF00BF0837BD4668
:1009040080BD80B586B000AF0346B9607A60FB73E2
:1009140000237B61FFF744FF78617A68B9687869DE
:10092400FFF790FF024697F90F3011461846FFF77C
:100934005FFF00BF1837BD4680BD80B582B000AFF1
:100944000346FB7197F907301846FFF737FF00BFDE
:100954000837BD4680BD80B582B000AF7860786846
:10096400FFF7A2FF034618460837BD4680BD0000C6
:1009740080B483B000AF78607B68042B06D1094A49
:10098400084B1B6843F00403136005E0054A054B5C
:100994001B6823F00403136000BF0C37BD465DF8E9
:1009A400047B704710E000E080B500AF00F002F86F
:1009B40000BF80BD80B400AF00BFBD465DF8047BBE
:1009C4007047000080B489B000AF786039600023BC
:1009D4007B6100233B610023BB610023FB6165E174
:1009E4000122FB6902FA03F37B613B681A687B69A5
:1009F40013403B613A697B699A4240F054813B68F9
:100A04005B68022B03D03B685B68122B23D1FB6924
:100A1400DA087B68083253F82230BB61FB6903F0C3
:100A240007039B000F2202FA03F3DB43BA69134066
:100A3400BB613B681A69FB6903F007039B0002FA78
:100A440003F3BA691343BB61FB69DA087B680832B4
:100A5400B96943F822107B681B68BB61FB695B00C2
:100A6400032202FA03F3DB43BA691340BB613B6818
:100A74005B6803F00302FB695B0002FA03F3BA69E3
:100A84001343BB617B68BA691A603B685B68012BDE
:100A94000BD03B685B68022B07D03B685B68112B6B
:100AA40003D03B685B68122B30D17B689B68BB61C9
:100AB400FB695B00032202FA03F3DB43BA691340C8
:100AC400BB613B68DA68FB695B0002FA03F3BA694D
:100AD4001343BB617B68BA699A607B685B68BB61DE
:100AE4000122FB6902FA03F3DB43BA691340BB61D9
:100AF4003B685B681B0903F00102FB6902FA03F31C
:100B0400BA691343BB617B68BA695A607B68DB6866
:100B1400BB61FB695B00032202FA03F3DB43BA699E
:100B24001340BB613B689A68FB695B0002FA03F3FC
:100B3400BA691343BB617B68BA69DA603B685B6876
:100B440003F08053002B00F0AE800023FB605C4A6E
:100B54005B4B5B6C43F480435364594B5B6C03F411
:100B64008043FB60FB68574AFB699B08023352F8D9
:100B74002330BB61FB6903F003039B000F2202FADD
:100B840003F3DB43BA691340BB617B684E4A93426B
:100B940025D07B684D4A93421FD07B684C4A9342D0
:100BA40019D07B684B4A934213D07B684A4A9342DC
:100BB4000DD07B68494A934207D07B68484A9342E8
:100BC40001D106230CE007230AE0052308E00423EF
:100BD40006E0032304E0022302E0012300E00023F3
:100BE400FA6902F0030292009340BA691343BB61AD
:100BF4003449FB699B080233BA6941F82320394B15
:100C04001B68BB613B69DB43BA691340BB613B684A
:100C14005B6803F48033002B03D0BA693B69134348
:100C2400BB61304ABB6913602E4B5B68BB613B6997
:100C3400DB43BA691340BB613B685B6803F4003370
:100C4400002B03D0BA693B691343BB61254ABB69D6
:100C54005360244B9B68BB613B69DB43BA69134017
:100C6400BB613B685B6803F48013002B03D0BA6953
:100C74003B691343BB611B4ABB699360194BDB6837
:100C8400BB613B69DB43BA691340BB613B685B688A
:100C940003F40013002B03D0BA693B691343BB610F
:100CA400104ABB69D360FB690133FB61FB690F2BFD
:100CB4007FF696AE00BF2437BD465DF8047B7047CF
:100CC40000380240003801400000024000040240A5
:100CD40000080240000C02400010024000140240D0
:100CE40000180240003C014080B483B000AF78603B
:100CF4000B467B8013467B707B78002B03D07A886D
:100D04007B689A6103E07B881A047B689A6100BF60
:100D14000C37BD465DF8047B704780B483B000AFE8
:100D240078600B467B807B685A697B885A407B6875
:100D34005A6100BF0C37BD465DF8047B7047000064
:100D440080B582B000AF0346FB80084B5A69FB882C
:100D54001340002B06D0054AFB885361FB881846D4
:100D640000F006F800BF0837BD4680BD003C0140D6
:100D740080B483B000AF0346FB8000BF0C37BD4690
:100D84005DF8047B7047000080B584B000AF7860E4
:100D940039607B68002B01D10123CAE0674B1B68D3
:100DA40003F00F023B689A420CD2644B3A68D2B209
:100DB4001A70624B1B6803F00F023B689A4201D021
:100DC4000123B6E07B681B6803F00203002B20D0EC
:100DD4007B681B6803F00403002B05D0584A584B6A
:100DE4009B6843F4E05393607B681B6803F008033B
:100DF400002B05D0524A524B9B6843F460439360E6
:100E04004F494F4B9B6823F0F0027B689B68134368
:100E14008B607B681B6803F00103002B44D07B6864
:100E24005B68012B07D1464B1B6803F40033002B8E
:100E340019D101237DE07B685B68022B03D07B68BA
:100E44005B68032B07D13E4B1B6803F00073002B38
:100E540009D101236DE03A4B1B6803F00203002B18
:100E640001D1012365E03649354B9B6823F0030229
:100E74007B685B6813438B60FFF740FCF8600AE013
:100E8400FFF73CFC0246FB68D31A41F288329342D6
:100E940001D903234DE02A4B9B6803F00C027B68C5
:100EA4005B689B009A42EBD1244B1B6803F00F0252
:100EB4003B689A420CD9214B3A68D2B21A701F4B44
:100EC4001B6803F00F023B689A4201D0012330E013
:100ED4007B681B6803F00403002B08D01849184BE7
:100EE4009B6823F4E0527B68DB6813438B607B6868
:100EF4001B6803F00803002B09D01149104B9B68B1
:100F040023F460427B681B69DB0013438B6000F0B1
:100F14007BFB01460A4B9B681B0903F00F03094A3C
:100F2400D35C21FA03F3084A13600020FFF7A2FB05
:100F3400002318461037BD4680BD00BF003C024068
:100F440000380240B02B00080800002080B400AF35
:100F5400034B1B681846BD465DF8047B704700BF11
:100F64000800002080B500AFFFF7F0FF0146054BF5
:100F74009B689B0A03F00703034AD35C21FA03F33B
:100F8400184680BD00380240C02B000880B500AF71
:100F9400FFF7DCFF0146054B9B685B0B03F007037F
:100FA400034AD35C21FA03F3184680BD003802409B
:100FB400C02B000880B58CB000AF786000237B6242
:100FC40000233B620023FB610023BB6100237B61A0
:100FD40000233B610023FB600023FB620023BB6210
:100FE4007B681B6803F00103002B10D06F496F4B23
:100FF400D3F88C3023F0C0627B689B6B1343C1F839
:101004008C307B689B6B002B01D10123FB627B68D6
:101014001B6803F00203002B10D06449634BD3F820
:101024008C3023F0C0527B68DB6B1343C1F88C30E7
:101034007B68DB6B002B01D10123FB627B681B689F
:1010440003F00403002B17D05849584BD3F88C30C5
:1010540023F440127B681B6B1343C1F88C307B680C
:101064001B6BB3F5801F01D10123FB627B681B6BF3
:10107400002B01D10123BB627B681B6803F00803CA
:10108400002B17D04949494BD3F88C3023F4400244
:101094007B685B6B1343C1F88C307B685B6BB3F587
:1010A400800F01D10123FB627B685B6B002B01D1B4
:1010B4000123BB627B681B6803F02003002B00F054
:1010C4008A800023BB60394A384B1B6C43F0805341
:1010D4001364364B1B6C03F08053BB60BB68344A0B
:1010E400334B1B6843F480731360FFF707FB78628C
:1010F40008E0FFF703FB02467B6AD31A022B01D9EF
:10110400032378E22A4B1B6803F48073002BF0D08E
:10111400264B1B6F03F440733B623B6A002B2FD0BA
:101124007B681B6C03F440723B6A9A4228D01F4BC5
:101134001B6F23F440733B621E4B01221A601D4B4C
:1011440000221A60194A3B6A1367184B1B6F03F09D
:101154000103002B14D0FFF7D1FA78620AE0FFF7FD
:10116400CDFA02467B6AD31A41F28832934201D9FE
:10117400032340E20D4B1B6F03F00203002BEED060
:101184007B681B6C03F44073B3F5407F14D10749AB
:10119400064B9B6823F4F8127B681B6C23F07043A6
:1011A40023F4407313438B600CE000BF003802400B
:1011B40000700040400E47424A4A4A4B9B6823F461
:1011C400F81393604749474B1A6F7B681B6CC3F352
:1011D4000B0313430B677B681B6803F01003002B9E
:1011E40004D0414A7B6893F8583013607B681B68CD
:1011F40003F08003002B0AD03A493A4BD3F89430D9
:1012040023F440027B68DB6C1343C1F894307B68A1
:101214001B6803F04003002B0AD03249314BD3F84A
:10122400943023F080627B689B6C1343C1F8943044
:101234007B681B6803F48073002B11D02949294B68
:10124400D3F8943023F000627B685B6D1343C1F8DC
:1012540094307B685B6DB3F1006F01D10123BB62F5
:101264007B681B6803F40073002B0AD01D491D4BD7
:10127400D3F8943023F080527B685B6C1343C1F83D
:1012840094307B681B6803F48063002B11D01549EC
:10129400144BD3F8943023F000527B681B6D134336
:1012A400C1F894307B681B6DB3F1005F01D1012359
:1012B400FB62FB6A012B05D07B681B68B3F5006FEA
:1012C40040F0FF80094B00221A60FFF717FA78629A
:1012D4000EE0FFF713FA02467B6AD31A022B07D9F2
:1012E400032388E100380240E01147426800474286
:1012F4007E4B1B6803F00063002BEAD17B681B68FC
:1013040003F00103002B03D07B689B6B002B09D0F7
:101314007B681B6803F00203002B28D07B68DB6B1F
:10132400002B24D1714BD3F884301B0C03F003033E
:1013340001335B00FB616D4BD3F884301B0E03F06B
:101344000F03BB6169497B685A687B689B689B0192
:101354001A43FB695B08013B1B041A43BB691B0668
:101364001A437B685B691B071343C1F884307B68AD
:101374001B6803F00403002B04D07B681B6BB3F5DC
:10138400801F0AD07B681B6803F00803002B35D04C
:101394007B685B6BB3F5800F30D1544BD3F884304A
:1013A4001B0C03F0030301335B00FB614F4BD3F8C9
:1013B40084301B0F03F007037B614C497B685A6838
:1013C4007B689B689B011A43FB695B08013B1B0418
:1013D4001A437B681B691B061A437B691B0713436B
:1013E400C1F884304149414BD3F88C3023F01F02BB
:1013F4007B689B6A013B1343C1F88C307B681B6894
:1014040003F48063002B29D07B681B6DB3F1005F6C
:1014140024D1364BD3F884301B0C03F0030301337F
:101424005B00BB61314BD3F884301B0F03F007031F
:101434007B612E497B685A687B689B689B011A43D1
:101444007B68DB685B08013B1B041A43BB691B0612
:101454001A437B691B071343C1F884307B681B68FC
:1014640003F40063002B16D020497B685A687B681C
:101474009B689B011A437B68DB685B08013B1B0488
:101484001A437B681B691B061A437B685B691B074D
:101494001343C1F88430164B01221A60FFF72EF96A
:1014A400786208E0FFF72AF902467B6AD31A022B16
:1014B40001D903239FE00D4B1B6803F00063002B4D
:1014C400F0D0BB6A012B40F095800A4B00221A60D1
:1014D400FFF714F978620FE0FFF710F902467B6A10
:1014E400D31A022B08D9032385E000BF0038024039
:1014F4006800474270004742414B1B6803F00053A9
:10150400B3F1005FE8D07B681B6803F00403002B91
:1015140003D07B681B6B002B09D07B681B6803F02E
:101524000803002B2BD07B685B6B002B27D1344B3B
:10153400D3F888301B0C03F0030301335B003B61D9
:101544002F497B689A697B68DB699B011A433B6975
:101554005B08013B1B041A437B685B6A1B0613434D
:10156400C1F888302649264BD3F88C3023F4F8523E
:101574007B68DB6A013B1B021343C1F88C307B6838
:101584001B6803F48073002B1DD07B685B6DB3F183
:10159400006F18D11A4BD3F888301B0E03F00F03D9
:1015A400FB6017497B689A697B68DB699B011A4376
:1015B4007B681B6A5B08013B1B041A43FB681B0620
:1015C4001343C1F888300F4B01221A60FFF796F8D5
:1015D400786208E0FFF792F802467B6AD31A022B7E
:1015E40001D9032307E0064B1B6803F00053B3F152
:1015F400005FEFD1002318463037BD4680BD00BFE1
:1016040000380240700047422DE9F04FA1B000AF0E
:1016140000237B670023FB6700233B670023FB66F3
:101624000023BB67A04B9B6803F00C030C2B00F258
:10163400938101A252F823F0711600085D19000885
:101644005D1900085D190008771600085D19000887
:101654005D1900085D1900087D1600085D19000871
:101664005D1900085D190008F91700088F4BBB6766
:1016740075E18F4BBB6772E18B4B5B6803F03F03F3
:101684007B67894B5B6803F48003002B56D0864B41
:101694005B689B094FF0000440F2FF114FF0000219
:1016A40001EA030102EA04020B461446600178666B
:1016B400786E40EAD36078665B013B66D7E91834FC
:1016C4005B1A64EB0204A001F865F86D40EA9360CC
:1016D400F8659801B865D7E91656ED1A66EB040665
:1016E4003346DB007B657B6D284643EA50737B659C
:1016F4002B46DB003B65D7E914341D4626466B18A0
:1017040046EB0204184621460B465B02FB64FB6C65
:10171400024643EAD253FB6403465B02BB64D7E947
:101724001234184621467B6F4FF000041A462346B4
:10173400FEF7F6FD03460C46FB674DE05A4B5B682B
:101744009B094FF0000440F2FF114FF0000201EA40
:10175400030102EA04020B46144660017864786CC3
:1017640040EAD36078645B013B64D7E910345B1AC8
:1017740064EB02044FEA841B4BEA936B4FEA831A2F
:10178400BAEB030A6BEB040B4FEACB03FB63FB6B73
:1017940043EA5A73FB634FEACA03BB63D7E90EAB50
:1017A4001AEB010A4BEB020B4FEA8B237B637B6B37
:1017B40043EA9A537B634FEA8A233B63D7E90CAB32
:1017C400504659467B6F4FF000041A462346FEF7F5
:1017D400A7FD03460C46FB67334B5B681B0C03F009
:1017E400030301335B003B67FA6F3B6FB2FBF3F318
:1017F400BB67B4E02C4B5B6803F03F037B672A4B69
:101804005B6803F48003002B54D0274B5B689B096F
:101814004FF0000440F2FF114FF0000201EA03010F
:1018240002EA04020B4614466001F862F86A40EAD0
:10183400D360F8625B01BB62D7E90A345B1A64EBDC
:1018440002044FEA841949EA93694FEA8318B8EB12
:10185400030869EB04094FEAC9037B627B6A43EA24
:1018640058737B624FEAC8033B62D7E9088918EBD7
:10187400010849EB02094FEA4923FB61FB6943EA8A
:10188400D853FB614FEA4823BB61D7E90689404638
:1018940049467B6F4FF000041A462346FEF740FD8D
:1018A40003460C46FB674BE0003802400024F4007A
:1018B40000127A002D4B5B689B094FF0000440F244
:1018C400FF114FF0000201EA030102EA04020B4691
:1018D400144660017861786940EAD36078615B01FD
:1018E4003B61D7E904345B1A64EB0204A60146EABF
:1018F40093669D01ED1A66EB0406F300FB60FB683A
:1019040043EA5573FB60EB00BB60D7E902566D18E0
:1019140046EB0206B3027B607B6843EA95537B6027
:10192400AB023B6097E86000284631467B6F4FF07E
:1019340000041A462346FEF7F3FC03460C46FB67F5
:101944000A4B5B681B0F03F00703FB66FA6FFB6E21
:10195400B2FBF3F3BB6702E0054BBB6700BFBB6F91
:1019640018468437BD46BDE8F08F00BF00380240FA
:101974000024F40080B586B000AF786000233B619A
:101984007B681B6803F00103002B00F08380954BF8
:101994009B6803F00C03042B19D0924B9B6803F053
:1019A4000C03082B06D18F4B5B6803F48003B3F55B
:1019B400800F0CD08B4B9B6803F00C030C2B12D1C3
:1019C400884B5B6803F48003B3F5800F0BD1854B20
:1019D4001B6803F40033002B5BD07B685B68002B2F
:1019E40057D1012316E27B685B68B3F5803F06D1CB
:1019F4007C4A7C4B1B6843F4803313601DE07B6896
:101A04005B68B3F5A02F0CD1764A764B1B6843F480
:101A140080231360734A734B1B6843F48033136051
:101A24000BE0704A6F4B1B6823F4803313606D4ADC
:101A34006C4B1B6823F4802313607B685B68002B6A
:101A440013D0FEF75BFE386108E0FEF757FE02464E
:101A54003B69D31A642B01D90323DBE1614B1B6877
:101A640003F40033002BF0D014E0FEF747FE386196
:101A740008E0FEF743FE02463B69D31A642B01D902
:101A84000323C7E1574B1B6803F40033002BF0D149
:101A940000E000BF7B681B6803F00203002B6FD0DB
:101AA400504B9B6803F00C03002B17D04D4B9B68E5
:101AB40003F00C03082B05D14A4B5B6803F4800345
:101AC400002B0BD0474B9B6803F00C030C2B1CD151
:101AD400444B5B6803F48003002B16D1414B1B6815
:101AE40003F00203002B05D07B68DB68012B01D0D7
:101AF40001238FE13B493B4B1B6823F0F8027B68D1
:101B04001B69DB0013430B603AE07B68DB68002B46
:101B140020D0354B01221A60FEF7F0FD386108E051
:101B2400FEF7ECFD02463B69D31A022B01D90323CD
:101B340070E12C4B1B6803F00203002BF0D0294901
:101B4400284B1B6823F0F8027B681B69DB001343F6
:101B54000B6015E0244B00221A60FEF7CFFD3861BC
:101B640008E0FEF7CBFD02463B69D31A022B01D9EC
:101B740003234FE11B4B1B6803F00203002BF0D13E
:101B84007B681B6803F00803002B37D07B685B6914
:101B9400002B16D0154B01221A60FEF7AFFD3861F9
:101BA40008E0FEF7ABFD02463B69D31A022B01D9CC
:101BB40003232FE10B4B5B6F03F00203002BF0D0E8
:101BC4001CE00A4B00221A60FEF798FD38610FE012
:101BD400FEF794FD02463B69D31A022B08D903236E
:101BE40018E100BF0038024000004742800E47421F
:101BF4008A4B5B6F03F00203002BE9D17B681B68FF
:101C040003F00403002B00F097800023FB75834B43
:101C14001B6C03F08053002B0FD10023FB607F4A21
:101C24007E4B1B6C43F0805313647C4B1B6C03F0A2
:101C34008053FB60FB680123FB75794B1B6803F43D
:101C44008073002B18D1764A754B1B6843F480735C
:101C54001360FEF753FD386108E0FEF74FFD0246BE
:101C64003B69D31A022B01D90323D3E06C4B1B68C5
:101C740003F48073002BF0D07B689B68012B06D1A2
:101C8400664A664B1B6F43F0010313671CE07B68D5
:101C94009B68052B0CD1614A604B1B6F43F0040316
:101CA40013675E4A5D4B1B6F43F0010313670BE040
:101CB4005A4A5A4B1B6F23F001031367574A574B79
:101CC4001B6F23F0040313677B689B68002B15D0FC
:101CD400FEF714FD38610AE0FEF710FD02463B6989
:101CE400D31A41F28832934201D9032392E04B4B39
:101CF4001B6F03F00203002BEED014E0FEF7FEFC92
:101D040038610AE0FEF7FAFC02463B69D31A41F255
:101D14008832934201D903237CE0404B1B6F03F0CC
:101D24000203002BEED1FB7D012B05D13B4A3B4B3B
:101D34001B6C23F0805313647B689B69002B68D071
:101D4400364B9B6803F00C03082B60D07B689B69BF
:101D5400022B45D1334B00221A60FEF7CFFC3861C9
:101D640008E0FEF7CBFC02463B69D31A022B01D9EB
:101D740003234FE0294B1B6803F00073002BF0D1C1
:101D840026497B68DA697B681B6A1A437B685B6A4D
:101D94009B011A437B689B6A5B08013B1B041A4343
:101DA4007B68DB6A1B061A437B681B6B1B071343A8
:101DB4004B601C4B01221A60FEF7A0FC386108E05E
:101DC400FEF79CFC02463B69D31A022B01D903237C
:101DD40020E0124B1B6803F00073002BF0D018E0D6
:101DE400104B00221A60FEF789FC386108E0FEF708
:101DF40085FC02463B69D31A022B01D9032309E06F
:101E0400064B1B6803F00073002BF0D101E00123A3
:101E140000E0002318461837BD4680BD0038024054
:101E2400007000406000474280B582B000AF786027
:101E34007B68002B01D101233FE07B6893F83930A4
:101E4400DBB2002B06D17B68002283F83820786847
:101E540000F09EFD7B68242283F839207B681B6890
:101E64007A681268D26822F40052DA60786800F066
:101E740029F87B681B687A681268126922F4904218
:101E84001A617B681B687A681268526922F02A0218
:101E94005A617B681B687A681268D26842F40052FF
:101EA400DA607B680022DA637B68202283F83920B9
:101EB4007B68202283F83A20002318460837BD4661
:101EC40080BD0000F0B585B000AF78600023FB60F2
:101ED4007B681B681B69FB60FB6823F44053FB6051
:101EE4007B68DB68FA681343FB607B681B68FA68ED
:101EF4001A617B681B68DB68FB60FB6823F416438C
:101F040023F00C03FB607B689A687B681B691A43A7
:101F14007B685B691A437B68DB691343FA68134384
:101F2400FB607B681B68FA68DA607B681B685B6926
:101F3400FB60FB6823F44073FB607B689B69FA6871
:101F44001343FB607B681B68FA685A617B68DB6932
:101F5400B3F5004F40F0E4807B681B68AB4A9342C2
:101F640004D07B681B68AA4A93426CD17B681C68C6
:101F7400FFF70CF8024613469B0013449A001A44D8
:101F84007B685B685B00B2FBF3F3A24AA2FB03230A
:101F94005B091D01FEF7FAFF024613469B0013443A
:101FA4009A001A447B685B685B00B2FBF3F6FEF7A9
:101FB400EDFF024613469B0013449A001A447B68C3
:101FC4005B685B00B2FBF3F3924AA2FB03235B0959
:101FD400642202FB03F3F31ADB0032338D4AA2FBC3
:101FE40003235B095B0003F4F8731D44FEF7CEFF83
:101FF400024613469B0013449A001A447B685B68AC
:102004005B00B2FBF3F6FEF7C1FF024613469B00EA
:1020140013449A001A447B685B685B00B2FBF3F3D9
:102024007C4AA2FB03235B09642202FB03F3F31A39
:10203400DB003233774AA2FB03235B0903F0070377
:102044002B44A36054E17B681C68FEF78BFF0246B7
:1020540013469B0013449A001A447B685B685B0038
:10206400B2FBF3F36B4AA2FB03235B091D01FEF7EA
:1020740079FF024613469B0013449A001A447B6876
:102084005B685B00B2FBF3F6FEF76CFF0246134697
:102094009B0013449A001A447B685B685B00B2FBA4
:1020A400F3F35C4AA2FB03235B09642202FB03F300
:1020B400F31ADB003233574AA2FB03235B095B00AC
:1020C40003F4F8731D44FEF74DFF024613469B00CC
:1020D40013449A001A447B685B685B00B2FBF3F616
:1020E400FEF740FF024613469B0013449A001A442D
:1020F4007B685B685B00B2FBF3F3464AA2FB0323F5
:102104005B09642202FB03F3F31ADB003233414A16
:10211400A2FB03235B0903F007032B44A360E7E05E
:102124007B681B68394A934204D07B681B68384A31
:10213400934271D17B681C68FEF728FF0246134660
:102144009B0013449A001A447B685B689B00B2FBB3
:10215400F3F3304AA2FB03235B091D01FEF716FFCC
:10216400024613469B0013449A001A447B685B683A
:102174009B00B2FBF3F6FEF709FF024613469B00F1
:1021840013449A001A447B685B689B00B2FBF3F328
:10219400204AA2FB03235B09642202FB03F3F31A24
:1021A4001B0132331B4AA2FB03235B0903F0F00338
:1021B4001D44FEF7EBFE024613469B0013449A00AF
:1021C4001A447B685B689B00B2FBF3F6FEF7DEFE05
:1021D400024613469B0013449A001A447B685B68CA
:1021E4009B00B2FBF3F30B4AA2FB03235B096422BB
:1021F40002FB03F3F31A1B013233064AA2FB032347
:102204005B0903F00F032B44A36071E0001001404D
:10221400001401401F85EB517B681C68FEF7A2FE89
:10222400024613469B0013449A001A447B685B6879
:102234009B00B2FBF3F3304AA2FB03235B091D01AD
:10224400FEF790FE024613469B0013449A001A447C
:102254007B685B689B00B2FBF3F6FEF783FE0246E5
:1022640013469B0013449A001A447B685B689B00E6
:10227400B2FBF3F3204AA2FB03235B09642202FBB3
:1022840003F3F31A1B0132331B4AA2FB03235B093A
:1022940003F0F0031D44FEF765FE024613469B005F
:1022A40013449A001A447B685B689B00B2FBF3F604
:1022B400FEF758FE024613469B0013449A001A4444
:1022C4007B685B689B00B2FBF3F30B4AA2FB03231E
:1022D4005B09642202FB03F3F31A1B013233064A3F
:1022E400A2FB03235B0903F00F032B44A360FFE766
:1022F40000BF1437BD46F0BD1F85EB5180B400AF5D
:10230400084A084B1B6823F400331360054A054B45
:102314001B6823F48033136000BFBD465DF8047B63
:10232400704700BF0000024080B400AF084A084B69
:102334001B6823F400331360054A054B1B6843F400
:102344008033136000BFBD465DF8047B704700BF57
:102354000000024080B500AF074B4FF080729A61D5
:102364000120FDF74DFF044B4FF480729A61032066
:10237400FDF746FF00BF80BD0000024080B500AFFE
:10238400074B4FF080729A610320FDF739FF044B2D
:102394004FF480729A610120FDF732FF00BF80BDC7
:1023A4000000024080B500AF064B4FF080729A6186
:1023B4000120FDF725FF034B4FF480729A6100BFA3
:1023C40080BD00BF0000024080B584B000AF03466A
:1023D400FB710023FB600FE0FA79FB6842FA03F318
:1023E40003F00103002B02D0FFF7B4FF01E0FFF775
:1023F400C5FFFB680133FB60FB68072BECDD00BF06
:102404001037BD4680BD80B500AF0520FFF7DCFF67
:102414000020FFF7D9FF0220FFF7D6FFFFF7C2FF26
:1024240000BF80BD80B584B000AF114B1B68BB609A
:1024340020237B600023FB600FE0BA68FB6822FA6C
:1024440003F303F00103002B02D0FFF783FF01E045
:10245400FFF794FFFB680133FB60FA687B689A42DC
:10246400EBD3FFF79FFF00BF1037BD4680BD00BF11
:102474002C00002080B500AF0D4B1B6903F4807362
:10248400002BF9D00A4B1B6903F48073002B00D096
:10249400F8E700BF0220FDF7B3FE054B1B6903F408
:1024A4008073002B14BF01230023DBB2184680BDC8
:1024B4000000024080B582B000AFFFF7DBFF786018
:1024C40001233B607B685B007B60FFF7D3FF024620
:1024D4007B6813447B607B68C3F308037B603B68C1
:1024E40001333B603B68082BECD97B68032B0DD090
:1024F4007B68012B0AD07B6840F2FF12934205D01F
:102504007B68052B02D07B68072BDBD17B685B08DB
:102514007B607B6818460837BD4680BD80B500AF38
:10252400042200210E4800F025FBFEF781F800F09C
:102534001BF800F0E5F800F0ADF800F0D9F8094B0D
:1025440020229A614FF47A70FEF7E4F8054B4FF4B9
:1025540000129A614FF47A70FEF7DCF8EFE700BFDF
:102564002C0000200000024080B5ACB000AF002376
:10257400BB60444A434B1B6C43F080531364414B90
:102584001B6C03F08053BB60BB6800237B603E4A36
:102594003D4B1B6823F4404343F4804313603A4BA0
:1025A4001B6803F440437B607B680123FB674FF4A3
:1025B4008033C7F880300223C7F894304FF4800387
:1025C400C7F898300423C7F89C304823C7F8A030D4
:1025D4000223C7F8A4300323C7F8A8300223C7F89E
:1025E400AC3007F17C031846FFF7C4F90346002B0F
:1025F40004D04FF49E71254800F072F90F23BB6696
:102604000223FB6600233B674FF480537B674FF440
:102614008053BB6707F1680302211846FEF7B4FB39
:102624000346002B04D04FF4A571184800F058F964
:102634004FF48073FB6000233B6607F10C031846DC
:10264400FEF7B8FC0346002B04D040F251110F48AA
:1026540000F046F9FEF77AFC02460D4BA3FB022379
:102664009B091846FEF777F90420FEF781F900224A
:1026740000214FF0FF30FEF744F900BFB037BD46EC
:1026840080BD00BF0038024000700040A02B00084D
:10269400D34D621080B500AF124B134A1A60114B30
:1026A4004FF4E1325A600F4B00229A600D4B002226
:1026B400DA600C4B00221A610A4B0C225A61094B56
:1026C40000229A61074B0022DA610648FFF7ACFB4F
:1026D4000346002B04D04FF4B771044800F000F90E
:1026E40000BF80BD3000002000440040A02B000843
:1026F40080B400AF00BFBD465DF8047B70470000A6
:1027040080B58AB000AF00233B616E4A6D4B1B6BF2
:1027140043F0040313636B4B1B6B03F004033B6133
:102724003B690023FB60674A664B1B6B43F08003E5
:102734001363644B1B6B03F08003FB60FB68002393
:10274400BB60604A5F4B1B6B43F0010313635D4B3B
:102754001B6B03F00103BB60BB6800237B60594A19
:10276400584B1B6B43F002031363564B1B6B03F074
:1027740002037B607B6800233B60524A514B1B6B16
:1027840043F0080313634F4B1B6B03F008033B60D8
:102794003B68002220214C48FEF7A6FA0022402183
:1027A4004A48FEF7A1FA4FF400537B61484BBB61E2
:1027B4000023FB6107F1140319464448FEF702F9AC
:1027C40041F6BF737B610323BB610023FB6107F107
:1027D400140319463D48FEF7F5F848F2D3237B610C
:1027E4000323BB610023FB6107F114031946364838
:1027F400FEF7E8F820237B610123BB610023FB6122
:1028040000233B6207F1140319462F48FEF7DAF858
:102814004FF2F7737B610323BB610023FB6107F174
:10282400140319462B48FEF7CDF840237B6101239E
:10283400BB610023FB6103233B6207F114031946C8
:102844002248FEF7BFF84FF480737B61224BBB61D3
:102854000023FB6107F1140319461B48FEF7B2F885
:102864004FF4E0537B610223BB610023FB6103232C
:102874003B620A237B6207F1140319461248FEF7F0
:10288400A1F804237B610323BB610023FB6107F1EF
:10289400140319461148FEF795F800220021172069
:1028A400FEF72FF81720FEF748F800220021282011
:1028B400FEF727F82820FEF740F800BF2837BD466A
:1028C40080BD00BF00380240000002400008024002
:1028D400000021100004024000001110000C02400E
:1028E40080B483B000AF78603960FEE780B582B011
:1028F40000AF00237B60254A244B5B6C43F4804388
:102904005364224B5B6C03F480437B607B6800233D
:102914003B601E4A1D4B1B6C43F0805313641B4BDE
:102924001B6C03F080533B603B680720FDF7DEFF20
:10293400002200216FF00B00FDF7E3FF00220021CD
:102944006FF00A00FDF7DDFF002200216FF009009F
:10295400FDF7D7FF002200216FF00400FDF7D1FF3F
:10296400002200216FF00300FDF7CBFF00220021BD
:102974006FF00100FDF7C5FF002200214FF0FF308A
:10298400FDF7BFFF00BF0837BD4680BD00380240D9
:1029940080B588B000AF78607B681B68124A9342A8
:1029A4001DD10023BB60114A104B1B6C43F4003350
:1029B40013640E4B1B6C03F40033BB60BB680C2325
:1029C400FB6002233B6101237B610323BB6107237B
:1029D400FB6107F10C0319460548FDF7F3FF00BF3F
:1029E4002037BD4680BD00BF00440040003802408F
:1029F4000000024080B500AFFDF76CFEFDF7D4FF88
:102A040000BF80BD80B582B000AFFFF753FD786092
:102A14000220FDF7F5FBFFF787FC7B68012B0AD04A
:102A2400012B02D3FF2B03D008E0FFF7ECFC05E0F9
:102A3400FFF7E9FC02E0FFF7F5FC00BFFFF75EFCDF
:102A44004FF48070FEF77CF900BF0837BD4680BDA7
:102A540080B500AF20210448FEF75FF94FF4005021
:102A6400FEF76EF900BF80BD0000024080B400AFE5
:102A7400164A164BD3F8883043F47003C2F88830F2
:102A8400134A134B1B6843F001031360104B0022DD
:102A94009A600F4A0E4B1B6823F0847323F480332F
:102AA40013600B4B0B4A5A60094A094B1B6823F409
:102AB40080231360064B0022DA60044B4FF000625F
:102AC4009A6000BFBD465DF8047B704700ED00E0EE
:102AD4000038024010300024DFF834D0002103E035
:102AE4000C4B5B58435004310B480C4B42189A4230
:102AF400F6D30B4A02E0002342F8043B094B9A4206
:102B0400F9D3FFF7B3FF00F011F8FFF707FD7047A3
:102B140000000220D82B0008000000200C00002038
:102B24000C00002070000020FEE7000070B50D4E80
:102B34000D4CA41BA4100025A54209D10B4E0C4C2E
:102B440000F020F8A41BA4100025A54205D170BDF7
:102B540056F8253098470135EEE756F82530984762
:102B64000135F2E7D02B0008D02B0008D02B000849
:102B7400D42B000802440346934200D1704703F863
:102B8400011BF9E7F8B500BFF8BC08BC9E467047C6
:0C2B9400F8B500BFF8BC08BC9E467047B6
:102BA0002E2E5C5372635C6D61696E2E63000000B3
:102BB00000000000000000000102030406070809ED
:082BC000000000000102030403
:082BC8008CD7FF7F0100000023
:042BD000E90100080F
:042BD400C50100082F
:0C2BD80010000000010000000024F400C8
:0400000508002ADDE8
:00000001FF
