:020000040800F2
:100000000000022061700008B1700008B1700008A3
:10001000B1700008B1700008B17000080000000065
:10002000000000000000000000000000B1700008A7
:10003000B170000800000000B1700008396D0008C0
:10004000B1700008B1700008B1700008B17000080C
:10005000B1700008B1700008B1700008B1700008FC
:10006000B1700008B1700008B1700008B1700008EC
:10007000B1700008B1700008B1700008B1700008DC
:10008000B1700008B1700008B1700008B1700008CC
:10009000B1700008B1700008B1700008496D000827
:1000A000B1700008B1700008B1700008B1700008AC
:1000B000B1700008B1700008B1700008B17000089C
:1000C000B1700008B1700008B1700008B17000088C
:1000D000B1700008B1700008B1700008B17000087C
:1000E000B1700008B1700008B1700008B17000086C
:1000F000B1700008B1700008B1700008B17000085C
:10010000B1700008B1700008B1700008B17000084B
:10011000B1700008B1700008B1700008B17000083B
:10012000B1700008B1700008B1700008B17000082B
:10013000B17000080000000000000000B17000086D
:10014000B1700008B1700008B1700008896D000836
:10015000B1700008B1700008B1700008B1700008FB
:10016000B1700008B1700008B1700008B1700008EB
:10017000B1700008B1700008B17000080000000004
:1001800000000000B1700008000000000000000046
:10019000B17000080000000000000000B17000080D
:1001A000000000000000000000000000B170000826
:1001B000B1700008B1700008B1700008B17000089B
:0401C000B170000812
:1001C40010B5054C237833B9044B13B10448AFF38D
:1001D40000800123237010BDE40000200000000013
:1001E400DC72000808B5034B1BB103490348AFF3A5
:1001F400008008BD00000000E8000020DC72000858
:1002040002F1000102F1000102F1000102F100011A
:1002140002F1000102F1000102F1000102F100010A
:1002240002F1000102F1000102F1000102F10001FA
:1002340002F1000102F1000102F1000102F10001EA
:1004940002F1000102F1000101383FF7B1AE7047EB
:1004A40053B94AB9002908BF00281CBF4FF0FF31D7
:1004B4004FF0FF3000F07AB9ADF1080C6DE904CECD
:1004C40000F006F8DDF804E0DDE9022304B070472B
:1004D4002DE9F0478C460D460446089E002B51D169
:1004E4008A4217466DD9B2FA82FEBEF1000F0BD0D4
:1004F400CEF1200C01FA0EF520FA0CFC02FA0EF7EC
:100504004CEA050C00FA0EF44FEA174A250CBCFB22
:10051400FAF81FFA87F90AFB18CC45EA0C4508FBE0
:1005240009F3AB420AD9ED1908F1FF3280F02381B7
:10053400AB4240F22081A8F102083D44ED1AA4B276
:10054400B5FBFAF00AFB105544EA054400FB09F92F
:10055400A14509D9E41900F1FF3380F00A81A145CE
:1005640040F2078102383C44A4EB090440EA084005
:100574000021002E61D024FA0EF40023346073604D
:10058400BDE8F0878B4207D9002E54D0002186E8BD
:1005940021000846BDE8F087B3FA83F1002940F052
:1005A4008E80AB4202D3824200F2FA80841A65EB59
:1005B40003050120AC46002E3FD086E81010BDE8AC
:1005C400F08712B90127B7FBF2F7B7FA87FEBEF13D
:1005D400000F34D1EB1B3A0C1FFA87FC0121B3FB4B
:1005E400F2F8250C02FB183345EA03450CFB08F32B
:1005F400AB4207D9ED1908F1FF3002D2AB4200F249
:10060400D1808046ED1AA3B2B5FBF2F002FB10557F
:1006140043EA05440CFB00FCA44507D9E41900F1A6
:10062400FF3302D2A44500F2B8801846A4EB0C04B0
:1006340040EA08409DE731463046BDE8F087CEF1F8
:10064400200405FA0EF307FA0EF720FA04F83A0C20
:1006540025FA04F448EA0308B4FBF2F14FEA18451A
:1006640002FB11441FFA87FC45EA044501FB0CF325
:10067400AB4200FA0EF409D9ED1901F1FF3080F014
:100684008A80AB4240F2878002393D44EB1A1FFA5C
:1006940088F5B3FBF2F002FB103345EA034500FB97
:1006A4000CF3AB4207D9ED1900F1FF386FD2AB421E
:1006B4006DD902383D44EB1A40EA01418FE7C1F19C
:1006C400200722FA07F88B4005FA01F448EA0303ED
:1006D40020FA07FE4FEA134CFD404EEA040EB5FB28
:1006E400FCF94FEA1E440CFB19551FFA83F844EA3F
:1006F400054509FB08F4AC4202FA01F200FA01FADA
:1007040008D9ED1809F1FF3043D2AC4241D9A9F11F
:1007140002091D442D1B1FFA8EFEB5FBFCF00CFBD9
:1007240010554EEA054400FB08F8A04507D9E41823
:1007340000F1FF3529D2A04527D902381C4440EAEC
:100744000940A4EB0804A0FB02894C45C6464D466B
:1007540015D312D056B1BAEB0E0364EB050404FAB8
:1007640007F7CB401F43CC40376074600021BDE8DD
:10077400F0871846F8E69046E0E6C245EAD2B8EBC0
:10078400020E69EB03050138E4E72846D7E7404643
:1007940091E78146BEE7014678E702383C4445E7E5
:1007A400084608E7A8F102083D442BE7704700BF5C
:1007B40038B50E4A0E4B12781B6805464FF47A7012
:1007C400B0FBF2F0B3FBF0F000F0A8F808B90F2D7D
:1007D40001D9012038BD0446024629464FF0FF30B6
:1007E40000F05AF8034B20461D6038BD000000207D
:1007F4007C0000200400002008B50B4B1A6842F46A
:1008040000721A601A6842F480621A601A6842F42C
:1008140080721A60032000F02DF80120FFF7C8FF52
:1008240006F016FA002008BD003C0240034A044BBF
:1008340011681B780B441360704700BF1801002037
:1008440000000020014B1868704700BF1801002009
:1008540038B50446FFF7F6FF631C054602D0044B87
:100864001B781C44FFF7EEFF401B8442FAD838BDC6
:1008740000000020074AD3684FF6FF010B40000236
:1008840043F0BF6300F4E06043F400330343D360F8
:10089400704700BF00ED00E0184B70B4DC68C4F38F
:1008A4000224C4F10706042E04F1040328BF04261D
:1008B400062B17D9033C0125A540013D2A400123FD
:1008C400B340013B1940A140002841EA02010CDB7E
:1008D40000F1604000F561400901C9B280F80013DD
:1008E40070BC704700221446E9E7054B00F00F0086
:1008F40009010344C9B2197670BC704700ED00E0E9
:10090400FCEC00E000F01F0101234009024A8B4087
:1009140042F82030704700BF00E100E00138B0F138
:10092400807F0ED2084B10B4084C5860F02084F835
:1009340023000022072110469A6019605DF8044BD9
:1009440070470120704700BF10E000E000ED00E0B8
:10095400044A136804280CBF43F0040323F004037F
:100964001360704710E000E0704700BF08B5FFF760
:10097400FBFF08BD214BDA68D00605D52049CA69BA
:1009840010200243CA61D8601C4BDA68910606D570
:100994001B49CA69202042F00802CA61D860174B7B
:1009A400DA68520606D51649CA69402042F00402A4
:1009B400CA61D860114BDA68100606D51049CA69B5
:1009C400802042F00202CA61D8600C4BDA68D1057B
:1009D40007D50B49CA694FF4807042F00102CA611D
:1009E400D860064BDA68920706D50549CA69022021
:1009F40042F02002CA61D860704700BF003C024048
:100A04001C0100202DE9F84F4D4F3C7E012C02D1F2
:100A14000220BDE8F88F9B469046002301228A46B7
:100A240081463A76FB61FFF70DFF464C06464CF2D1
:100A3400503504E0FFF706FF801BA8424BD8E3685B
:100A4400D803F7D4E368D90744BF0123E3603D4BDF
:100A5400DA6812F4F97F37D1B9F1000F40D11A697D
:100A640022F440721A611A691A6119695FFA88F8E6
:100A740041F0010119618AF800800023FB61FFF74E
:100A8400E1FE304C06464CF2503504E0FFF7DAFE46
:100A9400801BA8423BD8E368DA03F7D4E368DB079A
:100AA40044BF0123E360274BD86810F4F97002D0E7
:100AB400FFF760FF0120234A136923F00103136148
:100AC40000233B76BDE8F88FFFF754FF0023012095
:100AD4003B76BDE8F88F002303203B76BDE8F88F12
:100AE4001A6922F440721A61B9F1010F1A691AD015
:100AF400B9F1020F0DD042F440721A611A6942F042
:100B040001021A61CAF80080CAF804B0B5E70320EC
:100B1400D1E742F400721A611A6942F001021A61C3
:100B2400CAF80080A9E742F480721A611A691FFAB0
:100B340088F842F001021A61AAF800809DE700BF1C
:100B44001C010020003C0240064B1A69002A01DB0C
:100B5400002070470449054A59605A601869C00F5B
:100B6400704700BF003C024023016745AB89EFCDCD
:100B7400034A136943F0004313610020704700BF28
:100B8400003C0240144B70B500220446DA61FFF7C2
:100B940059FE124D0646631C12D1104AD368D8037D
:100BA400FCD40E4BDA68D20744BF0122DA600B4B47
:100BB400D86810F4F97002D0FFF7DCFE012070BD94
:100BC400EB68D903EDD524B1FFF73CFE801B8442CA
:100BD400E1D2032070BD00BF1C010020003C024094
:100BE4002DE9F047524E337E012B03D102273846BC
:100BF400BDE8F087012305464CF250308846337631
:100C0400FFF7C0FF0746002840F089804FF0FF330C
:100C1400C8F800302B68012B3FD0D5F80890EB685A
:100C24004B44994553D2434C4FEAC90A2DE0022B59
:100C34000CBF4FF400734FF44073226922F44072E6
:100C44002261226913432361236923F0F80323619A
:100C5400236943F0020343EA0A032361236943F44B
:100C6400803323614CF25030FFF78CFF236923F06B
:100C7400FA030AF1080A2361002855D1EB68AA682F
:100C840009F1010913444B4521D92B7C002BD4D005
:100C9400012BCCD14FF48073CFE7264C2B6922690A
:100CA40022F440722261226942F004022261226924
:100CB4001B0242F480329BB2134323614CF2503046
:100CC400FFF760FF236923F0040307462361194BF0
:100CD4001A6891050FD51A6822F400721A601A680E
:100CE40042F400621A601A6822F400621A601A68F8
:100CF40042F400721A600F4B1A6852050FD51A6835
:100D040022F480621A601A6842F480521A601A68E7
:100D140022F480521A601A6842F480621A60002336
:100D240033763846BDE8F087C8F800900746CEE72A
:100D34001C010020003C02402DE9F04FD1F800C016
:100D4400DFF8FC81DFF8FCE183B0002503E0013526
:100D5400102D00F093800123AB4003EA0C02934270
:100D6400F5D14E6826F0100ABAF1020F00F089801E
:100D74004FEA45090324D0F800B004FA09F4E44327
:100D840006F003070BEA040B07FA09F70AF1FF3A26
:100D940047EA0B07BAF1010F076040F29880C76871
:100DA4008B683C4003FA09F32343C360F300CED5B8
:100DB4004FF00009CDF80490D8F8443043F4804350
:100DC400C8F84430D8F8444025F0030303F18043C5
:100DD40004F4804403F59C33019405F00304019F5B
:100DE400D3F808A0A4000F27A7402AEA070A4E4F09
:100DF400B8421AD007F58067B8427BD04B4FB8424F
:100E04007DD04B4FB8427FD04A4FB84200F081802A
:100E1400494FB84200F08280484FB8420CBF4FF0AF
:100E240006094FF0070909FA04F94AEA09079F601D
:100E3400DEF80030D443F70354BF23401343CEF805
:100E44000030DEF80430B70354BF23401343CEF818
:100E54000430DEF80830F70254BF23401343CEF8C1
:100E64000830DEF80C30B60205F1010554BF23400A
:100E74001343102DCEF80C307FF46DAF03B0BDE8F2
:100E8400F08F4FEAD50900EB890905F00707D9F877
:100E94002040BF004FF00F0B0BFA07FB24EA0B0AAC
:100EA4000C69BC4044EA0A04C9F820404FEA4509E9
:100EB4000324D0F800A004FA09F4E44306F003077D
:100EC40004EA0A0A07FA09F747EA0A070760876883
:100ED40007EA040ACF6807FA09F747EA0A078760AE
:100EE400D0F804A0C6F300172AEA0303AF401F4357
:100EF400476054E74FF0010909FA04F995E74FF008
:100F0400020909FA04F990E74FF0030909FA04F910
:100F14008BE74FF0040909FA04F986E74FF0050955
:100F240009FA04F981E700BF00000240000802400A
:100F3400000C02400010024000140240001802405D
:100F440000380240003C014002B909048161704745
:100F5400704700BF044A5169014200D1704708B587
:100F64005061FFF7F5FF08BD003C01402DE9F04F4B
:100F740090F8904285B0012C9DF838709DF83CE0C3
:100F8400BDF840C003D1022005B0BDE8F08F01EBED
:100F9400810400EBC404064602F07F0AD0094FF036
:100FA400010B86F890B284F8383084F8391084F84C
:100FB4003FE084F83C7084F83AA084F83B00306841
:100FC400A4F840C0CDF808C08DE8804001F032FD9F
:100FD400002386F8903205B0BDE8F08F90F8903287
:100FE400012B01D10220704710B50123044680F87B
:100FF4009032006801F0EEFE002084F8900210BDEB
:1010040000283AD02DE9F041032307468AB080F83E
:101014009132044605F01AFF386801F0A9FB54F830
:10102400106B0FCC6D460FC50FCC0FC594E80300B1
:1010340085E8030007F1040898E80E0030463E46B0
:1010440001F032FB0121386801F09AFB56F810EBED
:101054000FCE6D460FC50FCE0FC594E8030085E88B
:101064000300704698E80E0001F0F2FB0123002013
:1010740087F891320AB0BDE8F0810120704700BFC3
:10108400F0B58C009DF814E0069FBDF81C6065184F
:1010940000EBC505BEF1000F14BF4FF0020C4FF07A
:1010A400030C85F83B2085F83F3085F842C09DF855
:1010B4002050032B1BD8DFE803F0024D3931BEF179
:1010C400010F14D19AB9631800EBC303002E58D151
:1010D400022283F851E0631800EBC30393F85CE049
:1010E40083F84220BEF1020F01D083F83D5063180B
:1010F40000EBC303282283F83910002402FB01010A
:101104005F64027C9E64006883F85C40DC6483F85E
:101114005D403831BDE8F04001F00EBD631800EBCE
:10112400C3034ABB93F8515015BB17E0CAB9621800
:1011340000EBC20292F851E092F85CC0BEF1000FDD
:1011440018BF9E46BCF1020F82F842E0CFD082F86D
:101154003D50CCE7631800EBC303002283F8422020
:10116400C5E7631800EBC30393F85020002AF5D0B9
:10117400022283F84220BAE793F85020002AEDD0E7
:10118400F6E793F85120002A18BF0222A3E700BF14
:101194002DE9F04F056885B00446284601F054FB5C
:1011A400012802D005B0BDE8F08F206801F048FBAB
:1011B4000028F7D0206801F043FB10F4001F2068DA
:1011C4001CBF4FF40013436101F03AFB10F4801F7D
:1011D40020681CBF4FF48013436101F031FB10F011
:1011E400806F20681CBF4FF08063436101F028FBCF
:1011F40010F0020F20681CBF0223436101F020FBA2
:10120400800000F14A81206801F01AFBC1012668C0
:1012140000F10881304601F013FB030700F14F8110
:10122400206801F00DFB10F0007F20683ED101F032
:1012340007FBC306B6D52568AB6923F01003AB6181
:101244002E6AC6F34342022A2BD1C6F30A18B8F118
:10125400000F26D006F00F0606EB860704EBC7073F
:10126400796CF1B14246284601F0DCFA05F5A06339
:1012740003EB4613786C1D69F96CBC4A4044414445
:101284002A407864F9645AB11A6822F0804242F024
:1012940000421A6097F8503083F0010387F8503009
:1012A4002568AB6943F01003AB617BE701F082FD75
:1012B400A16883462068002900F0B08005F5A06588
:1012C40000264FF0010A46E04FEA481200F5A063F9
:1012D400D718B968490770D50421B960F96841F095
:1012E4000201F960B968890500F16281B968C8072B
:1012F4006AD521694FEA880951B109EB08013869B7
:1013040004EBC101C0F3120E886CA0EB0E00C8649C
:1013140009EB080104EBC1010020886581F85DA098
:10132400C7F808A091F83F0010F0FD0F00F07A8193
:10133400032800F0F981C84404EBC80898F8503039
:1013440083F0010388F85030A168206801368E428A
:1013540005F1200562D20AFA06F313EA0B0FF5D061
:101364002B681F045FFA86F8AED400F5A06707EB7C
:101374004817BB685B0700F1A980BB6813F0200322
:1013840000F0AB8008EB8809202304EBC909BB609B
:1013940099F83D30012BD9D1FB68042243F00203B4
:1013A400414689F85D20FB6001F014FD4FF0020313
:1013B40089F85C30A1682068C8E7B968890640F1FB
:1013C400D7802021B9608DE7B968890740F1FE8094
:1013D4004FEA880909EB080104EBC101D7F80CE0D6
:1013E40091F85D002EF0020E0128C7F80CE000F021
:1013F4003081052800F02D81062800F06881082836
:1014040000F0658191F85C000223BB60024641460E
:10141400204605F05BFDA168206897E74FF0007354
:10142400436104E7D6F840340293D6F8403403937A
:10143400039B23F02E030393029B9A07374607D599
:10144400029BDB0700F13B81039B43F00203039300
:10145400029B180715D5039B43F008030393029BD3
:10146400590740F1EA80A169022900F09981E368F3
:10147400032B04BF4EF66023C6F80434204605F05F
:101484001DFD2668029B9A0603D5039B43F02003A7
:101494000393039BC7F84034BCE6D5F8403423F0EB
:1014A4002E03C5F84034204605F00CFD01212068C8
:1014B40001F056FA20684FF000534361A4E6204639
:1014C40005F0F8FC206808234361AAE60423BB6006
:1014D400FB6843F00203FB6038E7BA68520600F188
:1014E400D980BB6813F4007340F00881BA68D2074E
:1014F40000F10681BB6813F0080340F03A81BA6832
:10150400D20600F15881BB681A0600F16981BA68F5
:1015140012F4806240F07781BB689B077FF516AFB9
:101524004FEA880303EB080104EBC101F86891F862
:101534005D1020F002000129F86000F08681032983
:1015440000F09481042900F09981052900F0AF810D
:10155400062900F09D81082900F09A81434404EB98
:10156400C3030222BA6093F85C2050E70000F81F1E
:10157400B968090770D4B96849057FF5B3AEF9684D
:1015840041F00201F96041468DE80C0001F022FCB3
:1015940008EB8801102004EBC101B8604FF0080E7D
:1015A4004FF4806081F85DE09DE80C00B86099E636
:1015B400FB68206843F002034146FB6001F00AFC2B
:1015C4004FF40073BB60A1682068BFE6B9680806E1
:1015D40000F1B680B968C9067FF51DAF4FEA8809E6
:1015E40009EB080104EBC10191F83F10032900F055
:1015F4001F8109EB080104EBC1014FF0030E102019
:1016040081F85DE0B86091F83F1011F0FD0F7FF4B0
:1016140002AFD058A16820F0804040F00040D05084
:10162400206893E6FB68206843F00203FB604146B0
:1016340001F0D0FB1023BB607DE6D6F8403423F0E4
:101644002E03C6F840342668B36943F00053B361EF
:1016540018E781F85C00D7E6D7F80CE008EB8801BE
:1016640004EBC1014EF0020EC7F80CE04FF0050C7C
:101674004FF0080E4FF0100981F85DC0C7F80890CC
:101684004146C7F808E08DE80C0001F0A3FB9DE893
:101694000C0027E608EB8802F96804EBC20241F06B
:1016A400020E9365042382F85D304146C7F80CE0CE
:1016B40001F090FB4023BB60A168206846E6B36953
:1016C40023F00053B361204605F0F8FBBCE609EBB8
:1016D400080104EBC101886D03285DD801308865D9
:1016E4000220D15809EB080E04EBCE0E21F0804104
:1016F40041F000418EF85C00D15085E6FB6859E763
:10170400FA6808EB880904EBC90942F00202C9F837
:1017140058304146FA6001F05DFBC7F808A0A168A3
:10172400206889F85DA011E6D05840F00050D050F0
:1017340081F85CA001224146204605F0C7FBFAE58A
:1017440008EB880304EBC303F9689A6D206841F041
:10175400020EC7F80CE001324FF0060E41469A65BE
:1017640083F85DE001F036FB8023BB60A16820684C
:10177400ECE50823BB60FB6843F002034146FB60D1
:1017840008EB880801F026FB04EBC803052283F864
:101794005D20A1682068D9E5002088650420A0E7C1
:1017A400029B206803F4C023B3F5802F18BF0121E6
:1017B40001F0D6F862E6FA6808EB880904EBC90977
:1017C40042F00202C9F858304146FA6001F002FBC7
:1017D4000322102389F85D20A1682068BB60B5E569
:1017E400FB6843F002034146FB6008EB880801F004
:1017F400F1FA04EBC8030621802283F85D10206807
:10180400A168BA60A2E5FB6843F002034146FB60AD
:1018140001F0E0FA282303FB084810214FF480620A
:101824000823B9602068BA60A16888F85D308DE546
:10183400F968206841F00201F96041468DE80C0026
:1018440001F0C8FA9DE80C00D3E6282202FB084206
:1018540092F83F0082F85C1002287FF47FAE92F881
:10186400511081F0010182F8511077E6282202FB21
:1018740008424FF0020182F85C106FE6282101FB58
:1018840008414FF0020081F85C0081F83D2065E6D4
:10189400282202FB0842916D481C0329906585BFEC
:1018A400042100200221906582F85C1056E628226B
:1018B40002FB084282F85C1050E600BF38B590F88D
:1018C4009032012B01D1022038BD0446012580F855
:1018D4009052006800F044FF2946206801F078F82F
:1018E400002084F8900238BD90F89032012B01D189
:1018F4000220704710B50123044680F89032006836
:1019040001F08EFB002084F8900210BD006801F005
:1019140045B800BF01EB810100EBC10191F85C0007
:10192400704700BF006801F07FB800BF006801F095
:1019340071B800BF60B1484A136803F00F038B42CB
:1019440008D2CBB21370136803F00F03994201D08D
:101954000120704703682DE9F0419D0714D55C0709
:1019640004D53E4CA26842F4E052A2601A0704D5A2
:101974003A4CA26842F46042A260384C8568A2687E
:1019840022F0F0022A43A260DF0704460D4622D566
:101994004268012A5BD0931E012B304B1B6850D93F
:1019A400990725D52D4EB36823F003031343B36081
:1019B400FEF748FF41F28837804605E0FEF742FF14
:1019C400A0EB0800B8423FD8B368626803F00C0388
:1019D400B3EB820FF2D1204A136803F00F039D4248
:1019E40009D2EBB21370136803F00F039D4202D0C7
:1019F4000120BDE8F08123685A0706D51749E0683D
:101A04008A6822F4E05202438A601B0707D5134A0E
:101A14002169936823F4604343EAC103936000F0AF
:101A240065FA0E4B0E499B680E4AC3F30313CB5C55
:101A340020FA03F301201360FEF7BAFE0020BDE88C
:101A4400F0819801AED4D3E70320BDE8F081034BC5
:101A54001B689E03A6D4CBE7003C0240003802403A
:101A6400647400087C000020014B1868704700BFB4
:101A74007C000020044B054A9B680549C3F382237C
:101A84000868D35CD840704700380240747400087A
:101A94007C000020044B054A9B680549C3F342338C
:101AA4000868D35CD840704700380240747400085A
:101AB4007C0000202DE9F043036813F0010683B095
:101AC40004460BD0A749866BD1F88C2022F0C06263
:101AD4003243B6FA86F6C1F88C2076099A070BD5FC
:101AE400A049E06BD1F88C2022F0C05202430028B8
:101AF400C1F88C2008BF012613F0040512D09949BF
:101B0400256BD1F88C20B5F5801F22F4401242EAEF
:101B1400050218BFB5FA85F5C1F88C2012BF6D090E
:101B2400002501261F070FD58E48616BD0F88C2045
:101B340022F440020A43B1F5800FC0F88C2000F073
:101B44000781002908BF0125980600F1B980DF0646
:101B540004D5854B94F858201A602368180608D5D4
:101B64008049E06CD1F8942022F440020243C1F889
:101B74009420590608D57B49A06CD1F8942022F012
:101B840080620243C1F89420DA050CD57549606D72
:101B9400D1F8942022F000620243B0F1006FC1F842
:101BA400942008BF01259F0508D56E49606CD1F8C3
:101BB400942022F080520243C1F8942058050BD49B
:101BC400012E15D0B3F5006F12D0012D00F0C280A4
:101BD400002003B0BDE8F0836248216DD0F8942062
:101BE40022F000520A43B1F1005FC0F89420E7D11B
:101BF4005E4B5C4E00221A60FEF724FE074604E0AA
:101C0400FEF720FEC01B022856D833681901F7D40A
:101C14002368DA0740F1F280A26B002A40F0EE80DC
:101C2400504E6068D6F88420D6F88470A16802F417
:101C3400403207F070673A430243606942EA811216
:101C440042EA0072C6F884205E0704D5226BB2F51E
:101C5400801F00F0F180180704D5626BB2F5800F85
:101C640000F0EA80590504D5226DB2F1005F00F05E
:101C74000C811A0511D52369A6686068E268616958
:101C8400384F1B0643EA86130343520843EA0173A1
:101C9400013A43EA0243C7F88430344B314E0122FF
:101CA4001A60FEF7CFFD074633681B018DD4FEF79B
:101CB400C9FDC01B0228F7D9032003B0BDE8F08397
:101CC400284B2B4F002201921A6C42F080521A6466
:101CD4001B6C03F080530193019B3B6843F48073B6
:101CE4003B60FEF7AFFD804605E0FEF7ABFDA0EBE1
:101CF40008000228E0D83B68D905F6D51949236CB9
:101D04000A6F12F4407203F4407010D082420ED075
:101D14000B6F184A23F440730127002017601060EA
:101D24000B670B6FDA0775D4236C03F44070B0F5BE
:101D3400407F00F09F800B498A6822F4F8128A6081
:101D4400084A116FC3F30B030B4313672368FEE6C2
:101D54000126F9E6084B034D00221A60FEF772FDD6
:101D6400064610E000380240E0114742680047424E
:101D740000700040400E474270004742FEF762FD8B
:101D8400801B022898D82B689F00F7D4226850073C
:101D94003CD411071AD5636BC3B95249A669D1F86B
:101DA4008830E569606A03F44033334343EA8513BA
:101DB40043EA0063C1F88830D1F88C30E06A23F438
:101DC400F853013843EA0023C1F88C30D20503D517
:101DD400636DB3F1006F72D0434B424C01221A6021
:101DE400FEF730FD054605E0FEF72CFD401B0228FA
:101DF4003FF662AF23689B00F6D5E9E69F077FF5BF
:101E040023AFE26B002A7FF41FAF09E7236B002B9B
:101E1400C3D0BEE70F46FEF715FD41F28838814670
:101E240006E0FEF70FFDA0EB090040453FF644AF86
:101E34003B6F9B07F5D577E72A4E6068D6F8842078
:101E4400D6F88470A16802F4403207F0E0473A43C0
:101E54000243206942EA811242EA0062C6F8842001
:101E6400D6F88C10A26A21F01F01013A0A43C6F881
:101E74008C20F7E61B48826823F0704122F4F812A4
:101E840021F440710A4382605AE7164F6668D7F816
:101E94008400D7F88420E168C0F3014E02F0E042E8
:101EA400A068324342EA80120EF10106490842EA70
:101EB4004662013942EA0142C7F88420D9E6094959
:101EC400A569D1F88830226AE06903F070632B4376
:101ED400520843EA8013013A43EA0243C1F88830C6
:101EE4007AE700BF0038024070004742284908B52D
:101EF4008B6803F00C03082B07D00C2B1DD0254A4C
:101F04002548042B18BF104608BD4A684B6813F4D3
:101F1400800302F03F0230D149681E48C1F38811A2
:101F2400A1FB0001FEF7BCFA194B5B68C3F3014344
:101F340001335B00B0FBF3F008BD4A684B6813F44F
:101F4400800302F03F020ED149681248C1F38811A0
:101F5400A1FB0001FEF7A4FA0D4B5B68C3F3027307
:101F6400B0FBF3F008BD4B680B48C3F38813A3FB25
:101F740000010023FEF794FAEEE74B680648C3F32A
:101F84008813A3FB00010023FEF78AFACCE700BF05
:101F9400003802400024F40000127A002DE9F041D8
:101FA4000368DA0782B0044636D5AA498A6802F083
:101FB4000C02042A00F0D6808A6802F00C02082A77
:101FC40000F0CC80A3498A6802F00C020C2A00F0CD
:101FD40058816368B3F5803F00F00581B3F5A02F05
:101FE40000F06B819B4D2A6822F480322A602A68B3
:101FF40022F480222A60002B40F0FA80FEF722FCB3
:10200400064605E0FEF71EFC801B642800F20E81E4
:102014002B689903F6D423689A072FD58D4A9168C3
:1020240011F00C0F00F0AC80916801F00C0108294C
:1020340000F0A28087498A6802F00C020C2A00F0A2
:102044007781E368002B00F02181834B814D0122CD
:102054001A60FEF7F7FB064605E0FEF7F3FB801B6C
:10206400022800F2E3802B689807F6D52B682269D2
:1020740023F0F80343EAC2032B6023681A0715D53B
:102084006369002B00F08780744B724D01221A6043
:10209400FEF7D8FB064605E0FEF7D4FB801B0228BA
:1020A40000F2C4806B6F9B07F6D52368580720D4D1
:1020B400A369D3B1674DAA6802F00C02082A66D05E
:1020C400022B674B4FF000021A6000F00081FEF70C
:1020D400B9FB2C46054605E0FEF7B4FB401B02287D
:1020E40000F2A48023689B01F6D4002002B0BDE86E
:1020F400F081584A136C13F0805368D00026594D70
:102104002B68D90540F18280A368012B00F0CF80B1
:10211400052B00F08F804F4D2A6F22F001022A67B1
:102124002A6F22F004022A67002B40F08C80FEF70D
:1021340089FB41F28837804605E0FEF783FBA0EB7C
:102144000800B84272D82B6F9807F6D4002EAFD08F
:10215400404A136C23F080531364A9E74A6857027A
:102164007FF530AF3B4A126895037FF555AF62683F
:10217400002A7FF451AF0AE0526857023FF55AAF84
:10218400344A1268950716D5E268012A13D0012053
:1021940002B0BDE8F081314A2E4D1360FEF752FBC8
:1021A400064604E0FEF74EFB801B02283ED86B6F08
:1021B4009F07F7D479E7274920690A6822F0F802D3
:1021C40042EAC0020A601A077FF570AF58E701932C
:1021D400136C43F080531364136C03F08053019326
:1021E400019B01268BE71B4A136843F48033136079
:1021F400FEF728FB174D064604E0FEF723FB801B81
:10220400642813D82B689803F7D504E72B6843F4A4
:1022140080732B60FEF716FB07462B68DA053FF543
:1022240073AFFEF70FFBC01B0228F6D9032002B0E0
:10223400BDE8F081074B1A6F42F004021A671A6F67
:1022440042F001021A67FEF7FDFA024D804641F2A0
:1022540088370FE00038024000004742800E4742B2
:102264006000474200700040FEF7ECFAA0EB080063
:10227400B842DBD82B6F9B07F6D5002E3FF418AF7E
:1022840066E74A6856027FF5A4AE6BE72B4A2C4DED
:102294001360FEF7D7FA064604E0FEF7D3FA801B74
:1022A4000228C3D82B689907F7D42368E6E6244AA2
:1022B400136F43F001031367C5E7214B1A6842F417
:1022C40080221A601A6842F480321A6090E7FEF79E
:1022D400B9FA064604E0FEF7B5FA801B0228A5D831
:1022E4002B689901F7D4E369D4F820E0676AE66AB9
:1022F400A26A206B1349124C43EA0E0343EA871384
:1023040043EA0663520843EA0073013A43EA02438C
:1023140001226B600A60FEF795FA054604E0FEF7B9
:1023240091FA401B022881D823689A01F7D5DCE68C
:102334004A6856023FF585AE22E700BF00004742D7
:1023440000380240600047422DE9F04704682269E2
:102354008246C068DAF81C10DAF80830DAF810603F
:10236400DAF8145022F4405202432261E268DAF8A7
:102374001800334322F416422B4322F00C020B4381
:102384001343E360636923F440730343B1F5004FDF
:102394006361AB4B61D09C4200F0018103F5806323
:1023A4009C4200F0FC80FFF765FBA64FDAF804308E
:1023B40000EB800000EB80009B00B0FBF3F3A7FB75
:1023C40003235B091D01FFF755FBDAF8043000EB2A
:1023D40080009B0000EB8000B0FBF3F6FFF74AFBA4
:1023E400DAF8042000EB8000930000EB8000B0FBDF
:1023F400F3F3A7FB03234FF064095B0909FB1363A1
:102404001B013233A7FB03235B0903F0F006FFF73C
:1024140031FBDAF8042000EB8000930000EB80002D
:10242400B0FBF3F8FFF726FBDAF8043000EB80008A
:102434009B0000EB8000B0FBF3F0A7FB00304009E9
:1024440009FB10831B013233A7FB0323C3F343139C
:1024540033432B44A360BDE8F0879C425DD003F571
:1024640080639C4259D0FFF705FB764FDAF80430BD
:1024740000EB800000EB80005B00B0FBF3F3A7FBF4
:1024840003235B091E01FFF7F5FADAF8043000EBC9
:1024940080005B0000EB8000B0FBF3F5FFF7EAFA85
:1024A400DAF8042000EB8000530000EB8000B0FB5E
:1024B400F3F3A7FB03235B094FF0640909FB1353F0
:1024C400DB003233A7FB03231B0903F4F875FFF782
:1024D400D1FADAF8042000EB800000EB800053000E
:1024E400B0FBF3F8FFF7C6FADAF8043000EB80002B
:1024F40000EB80005B00B0FBF3F3A7FB03235B0955
:1025040009FB1383DB003233A7FB0323C3F342131A
:1025140033442B44A360BDE8F087FFF7BBFA494F6F
:10252400DAF8043000EB800000EB80005B00B0FBC5
:10253400F3F3A7FB03235B091E01FFF7ABFADAF8F9
:10254400043000EB80005B0000EB8000B0FBF3F58F
:10255400FFF7A0FADAF8042000EB8000530000EB48
:102564008000B0FBF3F3A7FB03234FF064095B097E
:1025740009FB1353DB003233A7FB03231B0903F4CA
:10258400F875FFF787FADAF8042000EB80005300AF
:1025940000EB8000B0FBF3F8FFF77CFAA4E7FFF749
:1025A40079FA284FDAF8043000EB800000EB800061
:1025B4009B00B0FBF3F3A7FB03235B091D01FFF7AB
:1025C40069FADAF8043000EB80009B0000EB80002D
:1025D400B0FBF3F6FFF75EFADAF8042000EB8000B4
:1025E400930000EB8000B0FBF3F3A7FB03234FF051
:1025F40064095B0909FB13631B013233A7FB032343
:102604005B0903F0F006FFF745FADAF8042000EB63
:102614008000930000EB8000B0FBF3F8FFF73AFA78
:10262400DAF8043000EB800000EB80009B00B0FB84
:10263400F3F3A7FB03235B0909FB138302E700BF42
:10264400001001401F85EB5160B338B590F8393064
:10265400044603F0FF0203B32268242384F83930CC
:10266400D36823F40053D3602046FFF76DFE23683C
:102674001A6922F490421A615A6922F02A025A61B4
:10268400DA680025202142F40052DA602846E56326
:1026940084F8391084F83A1038BD80F8382004F0F2
:1026A40021FBD9E70120704784B030B4089D03AC06
:1026B400012D84E80E0027D0C268284B42F0400266
:1026C400C26001E0013B0DD00269002AFADA026916
:1026D400224B42F00102026101E0013B02D0026997
:1026E400D207FAD44FF480338363069B012B07D1BE
:1026F400836843F006038360836843F020038360A8
:1027040030BC002004B07047836B0F9A23F48033ED
:102714008363C36823F4840323F04003C360C36862
:10272400012A23F44013C36012D00C4B01E0013B97
:10273400DBD00269002AFADA0269084B42F001028E
:10274400026101E0013BD0D00269D107FAD4CCE7A1
:10275400C36843F48013C360E7E700BF400D030080
:1027640002460020936843F001039360704700BF62
:1027740002460020936823F001039360704700BF72
:1027840008B5C368012923F0C043C36009D019B94F
:10279400C36843F08043C3603220FEF759F8002039
:1027A40008BDC36843F00053C3603220FEF750F8FD
:1027B400002008BD890141F020010161054A01E0C2
:1027C400013A05D0036913F02003F9D11846704784
:1027D40003207047400D030010230361054A01E004
:1027E400013A05D0036913F01003F9D11846704774
:1027F40003207047400D030010B49DF804406CB9E9
:1028040003339B080AD000F5805000EB023201EB41
:10281400830051F8043B13608142FAD100205DF833
:10282400044B70470332920808D000F5805001EB46
:102834008202036841F8043B8A42FAD10846704791
:102844004269806910407047406900F00100704798
:1028540084B030B583B007AD85E80E000023C0F81E
:10286400003E836B099A089943F400138363032A97
:102874000446D0F8003457D023F00403C4F80034DD
:102884004FF484632361304B01E0013B02D02269A1
:102894009006FAD4102323612B4B01E0013B02D0B4
:1028A4002269D206FAD461B10022154604F5A06368
:1028B4004FF0FF3001328A429860DD6003F120035B
:1028C400F8D1D4F840340193019B23F02E030193F3
:1028D400019BDB0404D4019B43F48053C4F84034CB
:1028E400C820019BFDF7B4FF00224FF0FF33B4F181
:1028F400A04FA26163611FD04FF40071134A144BBF
:102904006162A262C4F800310A9B1BB9A36943F057
:102914001003A361A2690F4B00201343A36103B00A
:10292400BDE8304004B07047B0F1A04FA4D043F0EC
:102934000403C0F80034A3E78021074A074B61620F
:10294400A262C4F80031DFE7400D03000002000179
:102954000003E000080020A380006000E0004000C5
:10296400D0F8003423F00303C0F80034D0F8002476
:1029740001F0030313430129C0F8003400F580601B
:1029840006D0022904BF41F27073436000207047EF
:102994004BF6803343600020704700BF10B50446F7
:1029A40082B0D4F840340193019B23F02E030193A9
:1029B400019B43F48073C4F840340A20FDF748FFB8
:1029C400019B002023F48073C4F8403402B010BD8E
:1029D40082B0D0F840340193019B23F02E0301937D
:1029E400019B13F4805F019B01D101290AD0DB0410
:1029F40005D521B9019B23F48053C0F8403400204D
:102A040002B0704743F48053C0F84034019B002067
:102A140002B0704782B0D0F8403401930198C0F3FB
:102A2400414002B0704700BF00F58060806880B20A
:102A3400704700BF2DE9F04100F5A06404EB411498
:102A44009DF81C509DF81870BDF820604FF0FF3EB3
:102A5400C4F808E0032D65D8DFE805F051415102C0
:102A64004FFA82FC40F29D6EBCF1000FC4F80CE0FA
:102A74005BDB9B05D20203F0FE5302F4F042D0F874
:102A840018841A43012303FA01F141EA0801C6F349
:102A94000A06AB04C0F81814BCF1000F42EA06029F
:102AA40003F44023ACBF00214FF400411343022F31
:102AB400826943EA010314BF00214FF400310B4340
:102AC40042F00072032D826100F5806E236003D111
:102AD400236843F0005323600020BDE8F0814FFADF
:102AE40082FC40F2252EBCF1000FC4F80CE0C0DAE1
:102AF400D4F80CE04EF4C07EC4F80CE0B9E74FFA09
:102B040082FC40F29D4EBCF1000FC4F80CE00CDBDB
:102B1400B0F1A04FADD0D4F80CE04EF0600EC4F884
:102B24000CE0A6E74FFA82FCA3E7D4F80CE04EF4DD
:102B3400807EC4F80CE09CE780B58AB002AFF860F0
:102B4400B9601346FB7100237B7700237B8300234A
:102B5400FB834FF480733B8300237B61FB68B3F1F9
:102B6400A04F2BD0BB681B79002B27D1FB79002BFE
:102B74000BD1BB685B79012B07D1BB685B78194625
:102B8400F86800F011FA00230DE1FB79012B15D14F
:102B9400BB685B785A01FB68134403F5A0631946CC
:102BA400BB685B785A01FB68134403F5A063DB68D8
:102BB40023F06003CB60BB6800225A71BB681B69B9
:102BC400002B19D0BB681B69BA6812891344013BF6
:102BD400BA681289B3FBF2F3FB83FA8B3B8B9A42FC
:102BE4000CD93B8BFB83FB8BBA68128902FB03F382
:102BF4001A46BB681A6101E00123FB83BB68DB78DA
:102C0400002B07D0FB8BBA68128902FB03F31A4628
:102C1400BB681A61BB685B785A01FB68134403F50F
:102C2400A0631946BB681B69C3F31202FB8BDB0468
:102C340018465F4B03401A43BB689B7A5B0703F05B
:102C4400C04313430B61FB79002B0AD0BB685B784C
:102C54005A01FB68134403F5A0631A46BB68DB689A
:102C64005361FB6803F580639B6803F00103002B49
:102C74000CBF01230023DBB27B77BB685B785A016E
:102C8400FB68134403F5A0631946BB685B785A01DB
:102C9400FB68134403F5A0631B6823F000530B6027
:102CA400BB685B785A01FB68134403F5A0631946BB
:102CB400BB685B785A01FB68134403F5A0631B6887
:102CC4007A7F520713430B60BB685B785A01FB6839
:102CD400134403F5A0631B687B617B6923F0804385
:102CE4007B617B6943F000437B61BB685B785A017D
:102CF400FB68134403F5A0631A467B691360FB79F0
:102D0400002B4FD1BB68DB78002B4BD1BB681B6910
:102D1400002B47D0BB68DB79032B31D801A252F8D2
:102D240023F000BF392D00085D2D0008392D00085F
:102D34005D2D0008BB681B6903339B087B837A8B7A
:102D4400FB68DB6A9BB29A421CD9FB689B6943F01F
:102D54002002FB689A6115E0BB681B6903339B087A
:102D64007B837A8BFB6803F580631B699BB29A4271
:102D74000AD9FB689B6943F08062FB689A6103E0AF
:102D840000BF02E000BF00E000BFBB68D968BB68B9
:102D94005A78BB681B6998B2002300930346F8680D
:102DA400FFF72AFD002318462037BD4680BD00BF2B
:102DB4000000F81F80B483B000AF78607B6803F52F
:102DC40080635B699BB218460C37BD465DF8047B93
:102DD400704700BF80B485B000AF78600B46FB70CD
:102DE4000023FB60FB785A017B68134403F5A0635E
:102DF4001B689B0C03F00303002B0BD0FB785A01D8
:102E04007B68134403F5A0631B689B0C03F0030366
:102E1400022B60D1FB785A017B68134403F5A0634D
:102E24001946FB785A017B68134403F5A0631B68B9
:102E340043F080430B607B68DB6A03F47F03002B61
:102E440035D1FB785A017B68134403F5A063194616
:102E5400FB785A017B68134403F5A0631B6823F0D5
:102E640000430B60FB785A017B68134403F5A063AD
:102E74001946FB785A017B68134403F5A0631B6869
:102E840043F000430B60FB680133FB60FB68B3F560
:102E94007A7F1ED8FB785A017B68134403F5A0633C
:102EA4001B6803F00043B3F1004FECD074E0FB78EF
:102EB4005A017B68134403F5A0631946FB785A0151
:102EC4007B68134403F5A0631B6843F000430B6065
:102ED40062E000BF60E0FB785A017B68134403F5AD
:102EE400A0631946FB785A017B68134403F5A06379
:102EF4001B6843F080430B607B6803F580631B69A8
:102F04009BB2002B35D1FB785A017B68134403F53F
:102F1400A0631946FB785A017B68134403F5A06348
:102F24001B6823F000430B60FB785A017B68134451
:102F340003F5A0631946FB785A017B68134403F533
:102F4400A0631B6843F000430B60FB680133FB6024
:102F5400FB68B3F57A7F1ED8FB785A017B6813446B
:102F640003F5A0631B6803F00043B3F1004FECD0FA
:102F740012E0FB785A017B68134403F5A0631946F9
:102F8400FB785A017B68134403F5A0631B6843F084
:102F940000430B6000E000BF002318461437BD4611
:102FA4005DF8047B704700BF80B485B000AF7860E3
:102FB4000B46FB700123FB730023BB60FB785A01B3
:102FC4007B68134403F5A0631A46FB7BDB041946B4
:102FD400124B0B4043F000431361FB785A017B68AA
:102FE400134403F5A0631B68BB60BB6823F08043F4
:102FF400BB60BB6843F00043BB60FB785A017B684D
:10300400134403F5A0631A46BB68136000231846F3
:103014001437BD465DF8047B704700BF0000F81FFD
:1030240080B586B000AF786000233B617868FFF715
:103034009FFB10217868FFF7BDFB7868FFF7CCFB96
:103044000023FB751FE0FB7D5A017B68134403F5E5
:10305400A0631B68FB60FB6843F08043FB60FB6874
:1030640023F00043FB60FB6823F40043FB60FB7D1B
:103074005A017B68134403F5A0631A46FB68136086
:10308400FB7D0133FB75FB7D0F2BDCD90023FB7526
:1030940034E0FB7D5A017B68134403F5A0631B688D
:1030A400FB60FB6843F08043FB60FB6843F0004334
:1030B400FB60FB6823F40043FB60FB7D5A017B68E3
:1030C400134403F5A0631A46FB6813603B6901339C
:1030D4003B613B69B3F57A7F0CD8FB7D5A017B6871
:1030E400134403F5A0631B6803F00043B3F1004FDE
:1030F400ECD000E000BFFB7D0133FB75FB7D0F2BA3
:10310400C7D97B6803F580631A464FF0FF335361D8
:103114007B684FF0FF325A617868FFF721FB002388
:1031240018461837BD4680BDD0F8AC36DB699A78AE
:10313400062A08D1D0F8F026186A998B121A8A4206
:1031440024BF04229A700020704700BF38B5D0F81D
:10315400AC36DC696178054659B92178A1B9D5F84E
:10316400AC36D86908B103F0CFFF0C4B00201870BF
:1031740038BD03F08FF96178284603F0E5F921782A
:10318400002363700029EAD0284603F083F92178EC
:10319400284603F0D9F900232370E0E70A01002050
:1031A4002DE9F043D0F8AC1685B0FF23012209794C
:1031B400044601F0AFFEFF2879D00146204601F015
:1031C4009FFE3420D4F8AC6603F096FFF06194F8C7
:1031D4001F361A2202FB0342072192F8432681700C
:1031E400012A054608D0022A5AD0002A00F081801C
:1031F400022005B0BDE8F0834F49504A0163042121
:1032040011701A2202FB03421A2792F84C0692F814
:103214004866B2F84A262A8309289CBF0A22AA8350
:1032240007FB0342AE7692F8406688BFA883022E5D
:103234004FF0000128BF0226A97069719EB30022D5
:103244004FF0030802F1010907FB03F303EBC90381
:103254002344204693F840361A06194632D4EB70BC
:1032640003F01EF994F81D1694F81C36EA780091C0
:103274008646288B02907146CDF80480204685F856
:1032840000E003F0F7F829780022204603F0D2FE8C
:103294005FFA89F39E424A4605D994F81F36D1E76E
:1032A400274A0263ADE7002005B0BDE8F083D4F8F7
:1032B400AC26034611792046002201F02BFEFF289C
:1032C40096D07AE72B7103F0EBF894F81D1694F876
:1032D4001C362A7900918646288B02907146CDF8D7
:1032E4000480204685F801E003F0C4F800226978E0
:1032F400CBE7144AD4F82816914217D0B4F828160C
:1033040040F24C5291427FF47CAFB4F82A2640F24A
:10331400C4518A4204D040F6CC118A427FF471AF82
:103324000949064A2963032111706AE70749034AD8
:1033340001630221117064E72D4100080A01002095
:10334400294200084C056802994000087D3F0008A6
:10335400F0B5D0F8AC26654BD5691B6885B004463A
:1033640003936B79082B17D8DFE803F03416653420
:10337400058016961A00002221210A230174437441
:1033840042828282C282114602F04CFF002800F081
:103394009980032800F096800126304605B0F0BDE0
:1033A4002126092040F20121002330222674607472
:1033B4006182A382E2824E49204602F033FF064630
:1033C4000028E9D101236B712046D4F8FC36022190
:1033D4009847E2E7092300934FF4045200F507737A
:1033E400012102F0BFFB0028D6D194F81C3285F8E5
:1033F400263094F81D3285F8273094F81F2294F86B
:103404001E3203EB02232B8594F8203285F82A30F0
:1034140094F8213285F82B3094F8223285F82C3038
:1034240094F8241294F82332022203EB0123EB854F
:103434006A710126B1E7EB8D00934FF4085200F551
:103444000773012102F08EFB06460028A4D1294B04
:10345400D4F828269A4245D0B4F8282640F24C5392
:103464009A4233D004236B71012696E7002221216E
:103474000B2301270174437447828282C28211465E
:1034840002F0D0FE0646002886D16F71D4F8FC36CF
:1034940020460221984780E709204FF47D712126B8
:1034A40000230422607461822674A382E28220468F
:1034B40003A902F0B7FE00287FF46EAF08236B71F6
:1034C40001266AE705236B71012666E7B4F82A36FC
:1034D40040F2C45293423FF475AF40F6CC1293428B
:1034E400C0D16FE707236B71012656E7F472000819
:1034F400280000204C0568020023028101608380BB
:10350400C3808372704700BF70B40446807A10BBD6
:103514000123A372FAB1E388A5889D4218BF064629
:1035240007D11DE0013080B2824214D0A5889D42AB
:1035340016D02568EB5C01F8013BE388258901334B
:103544009BB29D42E380EDD1013080B28242E6809D
:103554004FF00003EAD10023A372104670BC7047F9
:103564000023A37270BC704702780A2A00D0704707
:103574002DE9F04F90F81F261A2101FB02029DB09D
:1035840092F84356012D034605D0002D00F0038127
:103594001DB0BDE8F08F00F0E7FDC27A037B9342D3
:1035A40013D0AF4B1A789AB1407AAE4B58B11A780F
:1035B400002AEDD101221A7002F0D2FF1DB0BDE83D
:1035C400F04F03F09BB81870E2E7012BE9D1DFE775
:1035D400A54B1B9293F878100E9193F879100F91E4
:1035E40093F87210109193F87310119193F87A1064
:1035F400129193F87B10139193F87410149193F82B
:103604007510159193F87C10169193F87D1093F82A
:1036140077B093F8804093F8815093F8827093F8D0
:1036240083C093F87680179193F87E1093F87F30D7
:103634001993C2F3C0030D93C2F380031891099345
:10364400C2F34003059302F001030493D3090293E8
:10365400C2F3801A0023C2F34019C2F3001200F12E
:10366400090108930C930B930A93079306939E46C0
:103674001E460F300192CDF80CB011F8013BA34265
:1036840045D0AB4200F08280BB4200F081806345AC
:1036940000F07B82434500F0FF82039A934200F0DE
:1036A400FE820E9A934200F095800F9A934200F0A6
:1036B4000C83109A934200F02B83119A934200F0EA
:1036C4005183129A934200F07083139A934200F04C
:1036D4008783149A934200F08683159A934200F0EC
:1036E4008583169A934200F08483179A934200F0DC
:1036F4008383189A934200F08283089A9346199A16
:10370400934208BF4FF0010BCDF820B000E0FE2635
:103714008142B2D1019A9DF86C3006998DF86F60A0
:1037240062F304139DF86D208DF86EE061F382025C
:1037340069F3451302996AF3861361F3C713079972
:1037440061F3C302049961F300030A9961F304125B
:10375400059961F341030B9961F34512099961F3EA
:1037640082030C9961F386120D9961F3C3030899DE
:103774008DF86C3061F3C7128DF86D2072B63B4B37
:103784001B9A1A6062B61DB0BDE8F08F0126BFE730
:103794004FF0010EBCE7364AD0F8281691421CD0EF
:1037A400B0F8281640F24C5291427FF4F1AEB0F8D2
:1037B4002A2640F2C4518A4204D040F6CC118A42EF
:1037C4007FF4E6AE184600F089FC1DB0BDE8F04F6A
:1037D40000F01CBC4FF0010A9AE700F0F1FB06462A
:1037E40000F014FC1E4B1C78002C45D00843020C3E
:1037F4002943132C42EA01424FEA114300F0898124
:10380400142C00F00D8210431943020A42EA0162AB
:103814000B0A10431943020942EA01720B091043CF
:103824001943820842EA81728B08104319434B08FA
:103834004FEA3002104319434B084FEA30029942D1
:1038440008BF904200F09D810A4C2578002D7FF43A
:103854009FAE594050400123237002F0F3FEADE6C1
:10386400090100200101002074020020F802002058
:103874004C05680200010020E44BD3F820801B941F
:10388400D3F8249008EA000809EA010958EA090271
:1038940005D09DF86C2042F010028DF86C20D3F80E
:1038A4002880D3F82C9008EA000809EA010958EAAC
:1038B400090205D09DF86C2042F020028DF86C209E
:1038C400D3F83080D3F8349008EA000809EA0109F3
:1038D40058EA090205D09DF86C2042F040028DF8A8
:1038E4006C20D3F83880D3F83C9008EA000809EA41
:1038F400010958EA090205D09DF86C2042F08002C3
:103904008DF86C20D3F85080D3F8549008EA00085E
:1039140009EA010958EA090205D09DF86D2042F030
:1039240010028DF86D20D3F85880D3F85C9008EA23
:10393400000809EA010958EA090205D09DF86D203A
:1039440042F020028DF86D20D3F86080D3F86490A3
:1039540008EA000809EA010958EA090205D09DF8B5
:103964006D2042F040028DF86D20D3F86880D3F8C2
:103974006C9008EA000809EA010958EA090205D02E
:103984009DF86D2042F080028DF86D20D3F84080C0
:10399400D3F8449008EA000809EA010958EA090240
:1039A40005D09DF86D2042F004028DF86D20D3F807
:1039B4004880D3F84C9008EA000809EA010958EA5B
:1039C400090205D09DF86D2042F008028DF86D20A3
:1039D400D3F81080D3F8149008EA000809EA010922
:1039E40058EA090205D09DF86C2042F004028DF8D3
:1039F4006C20D3F80080D3F8049008EA000809EAA0
:103A0400010958EA090205D09DF86C2042F0010230
:103A14008DF86C20D3F80880D3F80C9008EA0008DD
:103A240009EA010958EA090205D09DF86C2042F020
:103A340002028DF86C20D3F81880D3F81C9000EAA9
:103A4400080001EA090150EA010205D09DF86C2042
:103A540042F008028DF86C2093F8712093F87030CE
:103A6400DFED6B5A9FED6B6AF17907EE102AB2799C
:103A740007EE903AA2F180035BB206EE903AB8EEFC
:103A8400C77AF8EEE66A27EE257AF8EEE77A36EE9C
:103A9400475AB4EEE67AA1F18003F1EE10FA67EE2C
:103AA400A57A5BB2C6EE055A00F291809FED5A6A80
:103AB40027EE866A76EEC76A26EE256A66EE266AE1
:103AC400FDEEE66ACDED016A9DF8040006EE903A3B
:103AD400F8EEE66AB4EEE67AF1EE10FA58D89FED05
:103AE4004E6A67EE867A36EEC77A67EEA57A67EE97
:103AF400877AFDEEE77A17EE904A6442E4B202F068
:103B04004BFE8DF86E00204602F046FE8DF86F00E5
:103B140034E602430B43100A40EA0360190A0243E5
:103B24000B43100940EA0370190902430B43900840
:103B340040EA8370990802430B4359084FEA320064
:103B440002430B4359084FEA32004B404240002BDA
:103B540008BF012A00F0A880002B08BF022A00F049
:103B6400B780002B08BF042A00F0E880002B08BFB0
:103B7400082A00F0FA80002B08BFB2F5805F00F03D
:103B84001781264B00221A7002E54FF0FE0EBFE5A6
:103B9400B1EE476AF4EEC66AF1EE10FAAFD8C1F19D
:103BA4007F0149B29FED1C6A06EE901A67EE867A91
:103BB400F8EEE66A67EEA57A36EEC77A67EE277AFC
:103BC400FDEEE77ACDED017A9DF8044097E7B1EE7A
:103BD400476AF4EEC66AF1EE10FA63D8C2F17F02C6
:103BE40052B29FED0D6A06EE902A27EE866AF8EE31
:103BF400E66A26EE256A76EEC76A66EE866AFDEE0A
:103C0400E66A16EE900A4042C0B25FE774020020F2
:103C14005C8FA23F0000FE420402013C0001002030
:103C240002430B43100A40EA0360190A02430B43A0
:103C3400100940EA0370190902430B43900840EA53
:103C44008370990802430B4359084FEA3200024338
:103C54000B4359084FEA32004B404240002B08BF47
:103C6400012A44D0002B08BF022A54D0002B08BFDD
:103C7400042A00F08980002B08BF082A00F0A180E4
:103C8400002B08BFB2F5805F7FF47BAF5D4B1B78E0
:103C9400002B7FF47DAC91E40123019338E54FF0D0
:103CA400010935E5002011E756490B78002B7FF414
:103CB4006FAC554B93F8702001205E2A08704FD8E2
:103CC4000532D2B283F8702062E4012302931FE527
:103CD4004C490A78002A7FF45BAC4B4B93F8700094
:103CE400012405280C70EDD9421FD2B2EAE74549F8
:103CF4000B78002B7FF44CAC434B93F871200120DC
:103D04005E2A08704FD80532D2B283F871203FE49E
:103D140001230493FCE43B4A117800297FF438AC76
:103D2400394B93F87100052888BF411F4FF00104F7
:103D340088BFC9B2147083F8711029E4314A11782C
:103D440000297FF425AC304B93F870000124A04285
:103D540084BF00F1FF31C9B2147083F8701017E406
:103D64006422AFE701230593D2E426490B78002BA4
:103D74007FF40EAC244B93F870200120622A087063
:103D8400EED80244D2B29DE71E490A78002A7FF495
:103D9400FFAB1D4B93F871000124A0420C70B4D901
:103DA400421ED2B2B1E76422AFE701230693AFE427
:103DB400144B1A78002A7FF4EBAB01221A70FFF738
:103DC400FDBB10490B78002B7FF4E2AB0E4B93F84C
:103DD40071200120622A0870E5D80244D2B294E727
:103DE4000123079394E40123099391E401230D93A0
:103DF4008EE401230A938BE401230B9388E40123CB
:103E04000C9385E40001002074020020F8B5D0F87A
:103E1400AC36DC69A3780546062B0BD8DFE803F043
:103E24000C0E0A0A4F045E00D0F8F036DB0701D509
:103E34000423A3700020F8BD236B9847228B61698B
:103E44004FF48070D2B2A126012700236882EA824F
:103E54002E746F74AB82284602F0E4F90028E9D18D
:103E6400A07C38BB268BA77462691EB3A389E5893D
:103E7400591CA9421ED0013E12FA86F60746013AA1
:103E8400208A13E0A16812F8010FC854A389208A7C
:103E940001339BB28342A38104BF0023A781B242B2
:103EA40003F1010106D0E589A94203D08842E9D192
:103EB400002DE7D10023A3740523A370BAE7637828
:103EC400227E616902F0B6FAD5F8F0362362002347
:103ED400062284F82430A2700020F8BD617803F033
:103EE4009FF8012839D194F82430002BA2D194F8FA
:103EF40012E0BEF1000F27D1278BA07462691FB3B3
:103F0400A389E689591C8E421ED0013F12FA87F715
:103F1400208A013A14E0A16812F8010FC854A38959
:103F2400208A01339BB28342A38104BF0023A4F8F7
:103F34000CE0974203F1010106D0E689B14203D0B7
:103F44008142E8D1002EE6D10023A3740123284640
:103F540084F82430FFF708FB6CE76178284603F007
:103F64005FF805287FF466AF2846A17E02F084F846
:103F740000283FF45DAF5DE738B5D0F8AC360546B0
:103F8400DC690D483022002103F0D1F830220021F1
:103F94000A4803F0CCF8238B0C2B84BF0C23238317
:103FA400064B636104F1080005F507714FF4F072E4
:103FB400FFF7A2FA002038BDA00100207001002004
:103FC400D0F8AC3670B5DC69228B0AB9002070BD1C
:103FD4000A4904F10800FFF797FA238B8342F5D1CD
:103FE400074D084E0024E1B2304600F03DF901349B
:103FF400302C05F8010FF6D1034870BD7001002084
:104004009F010020FC720008A0010020204B9A7838
:10401400DB78D009C2F38011800040EA4100C2F38A
:1040240000110843C2F3401140EAC100C2F3C001C9
:1040340040EA011002F0010140EA4110C2F34001DC
:1040440040EA8110C2F3800240EAC210C3F3800246
:1040540040EA0220C3F3C00240EA4220C3F38012C4
:1040640040EA0230C3F3401240EA4230DA0940EA3F
:104074008230C3F3001240EAC23003F0010240EA86
:104084000240C3F3400340EA4340C117704700BFF6
:10409400A001002038B5D0F8AC360546DC690D48DF
:1040A4004022002103F043F8402200210A4803F093
:1040B4003EF8238B102B84BF10232383064B6361AC
:1040C40004F1080005F507714FF42072FFF714FAA4
:1040D400002038BDD001002010020020D0F8AC36FA
:1040E40070B5DC69228B0AB9002070BD0A4904F15D
:1040F4000800FFF709FA238B8342F5D1074D084ED8
:104104000024E1B2304600F0AFF80134402C05F849
:10411400010FF6D1034870BD10020020CF0100202A
:104124001C730008D001002038B5D0F8AC360C4C14
:10413400DA690C49158B54610023022DC1F8013052
:10414400C1F805302360636084BF0223138300F544
:10415400077102F108005022FFF7CEF9002038BDA4
:104164005002002058020020D0F8AC3670B5DC694B
:10417400228B0AB9002070BD1F4904F10800FFF723
:10418400C3F9238B8342F5D100211C481C4D1D4EDD
:1041940000F06AF8002168701B4800F065F80021FF
:1041A400A8701A4800F060F80021E870184800F080
:1041B4005BF800212871174800F056F80021687157
:1041C400154800F051F80021A871144800F04CF88B
:1041D4000021E871124800F047F805F8080F0024A0
:1041E400E1B2304600F040F80134062C05F8010F26
:1041F400F6D1034870BD00BF500200207C73000854
:10420400580200203C730008BC7300085C7300086B
:104214009C730008FC7300083C740008DC730008FD
:104224001C74000838B5D0F8AC360D4ADC690D4969
:10423400258B61610023042D137053709370D37028
:1042440013710B6088BF042300F5077188BF2383B3
:1042540004F108002822FFF74FF9002038BD00BF01
:104264006802002070020020F0B4437A0568077ADF
:104274005BBB4668F408214616F0070F4FF00003B5
:1042840004F101041A4608BF0C4603E02A78D90059
:104294008A400133A342F9D1012101FA06F4FA401C
:1042A400631EC5681A40AA4211D303699A420ED804
:1042B400837ABBB1013E01FA06F6164212D064427B
:1042C400C069224300FB02F002E08B4202D80020C6
:1042D400F0BC7047466806FB017205EBD20502F09C
:1042E4000707C7E7C069F0BC00FB02F0704700BFD6
:1042F400002070472DE9F041D0F8AC3688B0DD6974
:104304002024064622466846002102F010FF95F854
:104314002030022B42D3032B44D9042B3ED1274F08
:1043240022460021684602F002FF3B788DF80230F5
:1043340003F1010E4FF005080920062155225323ED
:1043440087F800E08DF803008DF804108DF80B2039
:104354008DF801408DF800808DF80C302B7869467B
:104364000D22304602F076F822460021684602F01B
:10437400DEFE3B788DF80080591C012239708DF8DF
:1043840003208DF801408DF80230424669463046DC
:104394002B7802F05FF808B0BDE8F081002008B087
:1043A400BDE8F08140238DF80330694630462B7810
:1043B4000C2202F04FF808B0BDE8F081060100209D
:1043C40038B5D0F8AC36DC696178054669B921782E
:1043D400B1B9D5F8AC36D86908B102F095FE0D4AEA
:1043E4000D4B00201070187038BD02F053F861783E
:1043F400284602F0A9F82178002363700029E8D048
:10440400284602F047F82178284602F09DF8002358
:104414002370DEE7060100200A0100202DE9F043A5
:10442400044685B0202200214E4802F080FED4F8D4
:10443400AC36204619795D22812300F06BFDFF28FC
:1044440076D00227484A494B0146012600252046DA
:1044540016701D7000F054FD2420D4F8AC8602F0D0
:104464004BFEC8F81C0094F81F3680F820701A21FF
:1044740001FB0342064692F840768570022F92F8BB
:104484004806B07328BF0227B2F84A0692F84C26B1
:10449400B08132828FB32A464FF003080D4602F1F1
:1044A400010905FB03F303EBC9032344204693F8F6
:1044B40040361A06194624D4F37001F0F1FF94F83B
:1044C4001D16F27894F81C368646B0890290009145
:1044D400CDF804807146204686F800E001F0CAFF5A
:1044E40031780022204602F0A5FD5FFA89F39F424D
:1044F4004A4602D994F81F36D1E7002005B0BDE83A
:10450400F083337101F0CCFF94F81D16327994F8DE
:104514001C368646B08902900091CDF8048071461D
:10452400204686F801E001F0A5FF00227178D9E762
:10453400D4F8AC260123117920465D2200F0EAFC70
:10454400FF2801D003277DE7D4F8AC26D0231179C6
:104554002046472200F0DEFCFF2801D0042771E743
:104564000220CBE74C0100200A01002006010020B4
:1045740000207047164A174B12781B68052A164A02
:10458400127888BF43F48033052A88BF43F400338C
:10459400180C18430021020A42EA01620B0A104374
:1045A4001943020942EA01720B09104319438208B4
:1045B40042EA81728B08104319434B084FEA3002D8
:1045C400104319434B084FEA30025040594070479A
:1045D400040100204401002005010020D0F8AC367D
:1045E4002DE9F047DB6993F82030013B84B0032BBD
:1045F40000F22181DFE813F0DA0122015E021902E0
:10460400D54B1E6A03925F6A06400F403E4305D0B5
:104614009DF80C6046F010068DF80C609E6ADF6A07
:1046240006400F403E4305D09DF80C6046F020063E
:104634008DF80C601E6B5F6B06400F403E4305D047
:104644009DF80C6046F040068DF80C609E6BDF6BA5
:1046540006400F403E4305D09DF80C6046F08006AE
:104664008DF80C601E6D5F6D06400F403E4305D013
:104674009DF80D6046F010068DF80D609E6DDF6D9F
:1046840006400F403E4305D09DF80D6046F02006DD
:104694008DF80D601E6E5F6E06400F403E4305D0E0
:1046A4009DF80D6046F040068DF80D609E6EDF6E3D
:1046B40006400F403E4305D09DF80D6046F080064D
:1046C4008DF80D601E6C5F6C06400F403E4305D0B4
:1046D4009DF80D6046F004068DF80D609E6CDF6C4D
:1046E40006400F403E4305D09DF80D6046F0080695
:1046F4008DF80D601E695F6906400F403E4305D08A
:104704009DF80C6046F004068DF80C601E685F6826
:1047140006400F403E4305D09DF80C6046F001066C
:104724008DF80C609E68DF6806400F403E4305D05C
:104734009DF80C6046F002068DF80C609E69DF69F6
:1047440030403940014305D09DF80C1041F0080178
:104754008DF80C1093F87110DFED806A93F87030C7
:104764009FED7F6A9FED7F5A7F4E07EE101AB8EED9
:10477400C77A07EE903A27EE267A06EE90CAF8EE4C
:10478400E66A7A49F8EEE77A76EE474AB4EEE67AD4
:104794000023F1EE10FAC6EE245A33700B7067EE64
:1047A400857A40F28F81B1EE476AF4EEC66AF1EE83
:1047B40010FA18D86FEA0C0C9FED6D6AA5F800C0CA
:1047C40006EE90CA27EE866AF8EEE66A26EE256AB9
:1047D40076EEC76A66EE866AFCEEE66A16EE902A04
:1047E4005242D2B20A7006EE90EAF8EEE66AB4EEED
:1047F400E67AF1EE10FA00F298819FED5D6A67EEB9
:10480400867A36EEC77A67EEA57A67EE877AFCEE8B
:10481400E77A17EE903A3370104601F0BDFF8DF839
:104824000E00307801F0B8FF8DF80F0072B6514BCE
:10483400039A1A6062B604B0BDE8F0874E4BDF7A83
:10484400587B997A1A7BDD795C7A93F806C093F8E1
:1048540008E04A4E41EA072142EA002248483180F2
:104864004CEA052C4EEA042E464D474C474F484E21
:10487400484902800FFA8CFC58881A795B79A5F8AC
:1048840000C00FFA8EFEA4F800E0386032700B709E
:1048940007EE902AB8EEE77A07EE903ADFED3E6A2B
:1048A4003E493F4EF8EEE77A27EE267A67EEA67A7F
:1048B400BCEEC77AFCEEE77A8DED007A9DF8002015
:1048C400CDED017A9DF804300B70052A88BF40F4C1
:1048D4008030052B334B32701A7888BF40F4003097
:1048E4000021002A3FF48CAE132A00F0FD80142A24
:1048F40000F03C81020C42EA01420B0C10431943C4
:10490400020A42EA01620B0A10431943020942EA0D
:1049140001720B0910431943820842EA81728B0821
:10492400104319434B084FEA3002104319434B0814
:104934004FEA3002994208BF904200F0BD801A4C01
:104944002578002D7FF477AF594050400123237020
:1049540001F078FE27E100BF74020020C2D5A34312
:1049640000FEFF465C8FA23F0301002002010020ED
:1049740000010038F8020020500100206C010020E2
:1049840040010020420100203C010020440100209D
:104994003E01002048010020A1A0203D0501002087
:1049A400040100200901002007010020B84BB94A86
:1049B40019795888106011B140F480501060597909
:1049C40011B140F400501060997911B140F4804065
:1049D4001060D97911B140F4004010605F7C197CFB
:1049E400DE7C9A7C5D7BDC7B93F80CC093F80EE054
:1049F40041EA0721A84F3980A84942EA06220A80E1
:104A04004CEA052C4EEA042EA54DA64CA64EA74909
:104A14009A7ADB7A32700FFA8CFC0FFA8EFEA5F8C4
:104A240000C0A4F800E00B7032E79949DFF8649203
:104A34000D794F7B91F80CE04C798E7B91F80BA0AB
:104A440091F80AC0CA880B8991F80F80A8002D023A
:104A540000F030004EEA072E05F470454F7C097CC7
:104A6400054304F0CF002401284304F4407441EAD0
:104A740007218E4F8A4D2043C3F38703C9F80000F2
:104A840046EA08283B704CEA0A2C864CDFF8189258
:104A9400814E824FA6F800800FFA8CFC0FFA8EFE2E
:104AA400C2F38702A5F800C0A4F800E089F800204A
:104AB4003980EDE6764BC2E67D4B00221A7004B0D5
:104AC400BDE8F0879FED7B6A27EE866A76EEC76ABB
:104AD40026EE256A66EE266AFCEEE66ACDED006AED
:104AE4009DF800200A707EE6FFF744FD002908BF08
:104AF40001287FD0002908BF022800F08A800029FD
:104B040008BF042800F0A380002908BF082860D04B
:104B1400002908BFB0F5805FCED1654B1A78002A12
:104B24007FF489AE01221A703DE0B1EE476AF4EEDB
:104B3400C66AF1EE10FA3FF66FAE6FEA0E0E9FED05
:104B44005D6AA4F800E006EE90EA67EE867AF8EE75
:104B5400E66A67EEA57A36EEC77A67EE877AFCEEE8
:104B6400E77A17EE903A5B42337055E6FFF702FDA1
:104B7400002908BF01285BD0002908BF022875D08E
:104B8400002908BF042813D0002908BF082800F012
:104B94009580002908BFB0F5805F8DD1444B1B7808
:104BA400002B7FF448AE04B0BDE8F04701F0A6BD89
:104BB4003F480278002A7FF43EAE3F4B93F87110D1
:104BC4000124A142047001D94A1ED2B283F8712093
:104BD40031E637490B78002B7FF42DAE364B93F832
:104BE40070200120622A08704FD80244D2B283F8A0
:104BF400702020E62E490B78002B7FF41CAE2E4B40
:104C040093F8702001205E2A08703ED80532D2B293
:104C1400EDE727490A78002A7FF40DAE264B93F876
:104C24007000012405280C70E1D9421FD2B2DEE7DE
:104C34001F490B78002B7FF4FEAD1F4B93F87120B6
:104C440001205E2A087048D80532D2B2BEE718485F
:104C54000278002A7FF4EFAD174B93F8701001240B
:104C6400A1420470C3D94A1ED2B2C0E710490A78DF
:104C7400002A7FF4E0AD104B93F87100012405285D
:104C84000C70A3D9421FD2B2A0E76422AFE700BFE1
:104C94004C010020440100206C0100204001002050
:104CA400420100203C0100203E0100204801002078
:104CB40007010020000100387402002008490B7825
:104CC400002B7FF4B8AD074B93F871200120622AC2
:104CD400087002D80244D2B278E7642276E700BFB3
:104CE4000701002074020020D0F8AC36F0B5DC696E
:104CF400A57889B00646002D39D0012D5ED15F4FCD
:104D040063783946202201F095FB284602F0A4F985
:104D140094F82030032B70D0042B68D0022B4DD193
:104D24003978002940F083807B78012B00F08C8057
:104D34000F2B43D1D6F8AC36DC696846202202F04A
:104D4400F6F994F82030022B00F08B80032B73D1FA
:104D54000121032206238DF800108DF801208DF81F
:104D6400023069462378304601F074FB64E06378CE
:104D74004249202201F05EFB642002F06DF994F8B0
:104D84002030032BD6F8AC362946DF6968464FF04D
:104D9400200216D002F0CBF997F82020022A36D050
:104DA400032A09D101238DF801208DF800306946CA
:104DB40030463B7801F04EFB0123A370002009B07C
:104DC400F0BD02F0B4F997F82020022A2CD0032A6F
:104DD400F2D1012106238DF800108DF801208DF801
:104DE4000230694630463B7801F034FBE4E73B7817
:104DF400022B25D0202BE1D105E03B78002BDDD11F
:104E04007B78142BDAD13046FFF7E8FBD6E708228B
:104E140040238DF802208DF80330694630463B78F4
:104E2400042201F017FBC7E708224623F1E708290B
:104E3400C4D17B78802BC1D13046FFF75BFABDE744
:104E44007B78202BBAD1F7E7BB78002BB6D1FB785F
:104E5400F02BB3D13B79002BB0D17B79132BADD19F
:104E6400D1E7082246238DF802208DF803306946E5
:104E740023780422304601F0EDFADDE74C010020EE
:104E840060B370B50025044680F8F426C0F8AC562B
:104E9400C0F8B0563C220E4600F2B460294602F037
:104EA40046F94FF48062294604F5077002F03FF991
:104EB4000123402225706570C4F8F056657684F8A5
:104EC4001C56A370237684F81D36A2710EB1C4F863
:104ED400FC66204601F0FCFF002070BD02207047F4
:104EE40019B1D0F8B036012B01D90220704700EB7C
:104EF40083020133C0F8B0360020C2F8A41670470C
:104F040090F836368B4286BF80F81F1600200220A8
:104F1400704700BFFF2B00F09C80FF2A20D0FF29A0
:104F240064D010B490F841468C420FD090F85B46A0
:104F34008C4229D090F875468C422FD090F88F4639
:104F44008C4235D0FF205DF8044B704790F8424600
:104F54009442EBD190F843469C42E7D1002130E0E3
:104F6400FF2930D090F841268A4251D090F85B2630
:104F74008A4253D090F875268A4255D090F88F26ED
:104F84008A422CD0FF20704790F85C469442D1D1DD
:104F940090F85D469C42CDD1012112E090F876460E
:104FA4009442CBD190F877469C42C7D1022108E0C5
:104FB40090F890169142C5D190F891269A42C1D1A9
:104FC4000321C8B2BFE790F843269A4224D090F850
:104FD4005D269A4226D090F877269A4228D090F8F7
:104FE40091269A42CED10321C8B2704790F8421656
:104FF40091421FD090F85C16914220D090F876161A
:10500400914221D090F890169142E8D0FF20704749
:1050140090F843269A42A9D10021E5E790F85D264D
:105024009A42A7D10121DFE790F877269A42A5D1C9
:105034000221D9E790F843169942DBD1ECE790F8C6
:105044005D169942DAD1EDE790F877169942D9D1F5
:10505400EEE7FF2A16D0FF2937D090F841368B426D
:105064002ED090F85B368B4225D090F875368B4263
:105074001CD090F88F368B4284D190F890369342AE
:1050840080D1B0E7FF29C7D090F841368B42C3D016
:1050940090F85B368B42C5D090F875368B42C7D0FA
:1050A40090F88F368B427FF46DAF9CE790F876369C
:1050B4009342DED1BCE790F85C369342D5D1B1E798
:1050C40090F842369342CCD1A6E790F84236934208
:1050D400A2D090F85C369342A4D090F876369342EE
:1050E400CBD1A5E710B5044601F022FF20460121EB
:1050F40001F09AFF002010BD70B586B002238DF830
:105104001730037804460A2B2AD8DFE803F02C2949
:10511400396B29919AA8B206BC00D0F8B036FBB11D
:105124000022D0F8A436C0F8AC26197990F84126AC
:10513400914200F0B380D0F8A8361979914240F03A
:10514400AA80C4F8AC369B6820469847002840F0F3
:10515400A280062323702046D4F8FC360321984706
:10516400002006B070BD90F81E36002BF8D0012345
:105174000370C82001F070FF204601F003FFEFE741
:10518400642001F069FF204601F0EEFE0523237040
:1051940084F81D060021204601F082F98021607107
:1051A400204601F07DF994F81D2694F81C3601463A
:1051B4000025A07921718DE82400029080222046E8
:1051C40001F058F994F81D06A67994F81C36617913
:1051D400009001952A460296204601F04BF90020E2
:1051E40006B070BD3C22002100F2B46001F09FFFC4
:1051F4004FF48062002104F5077001F098FFD4F8A1
:10520400AC2600250123402125706570C4F8F056B2
:10521400657684F81C56A370237684F81D36A17134
:10522400002A9DD0D36820469847C4F8AC5697E727
:105234004378072B94D8DFE803F03B755E948A84A7
:105244007E50D0F8AC3633B31B6998478DF81700FD
:105254009DF81730002B83D10A23237080E7D0F800
:10526400FC36002B3FF47CAF0121984708232370C0
:1052740076E790F8371600F029FE00287FF470AF27
:10528400092323706CE7D0F8AC36002B3FF468AFE9
:105294005B69984764E70C23237061E7D0F8A8267C
:1052A400C0F8AC36107988427FF44DAF134648E716
:1052B400082100F0BDF8054600287FF451AF94F8AA
:1052C400272694F81D0694F81C36217901950126A9
:1052D400A27102926670009070E790F8301600296F
:1052E40051D194F831360022012B84F81F26BDD009
:1052F4000723237034E7012100F012FD054600283E
:105304007FF42EAF022001F0A7FE0326A07994F8C3
:105314001D2621790195012384F81C3666700290BC
:1053240000924BE7122100F083F800287FF418AFB5
:105334000223637014E790F82F1661BB0723637090
:105344000EE790F82E16A9B90623637008E7B0F8A3
:10535400341600F087F900287FF402AF0523637048
:10536400FEE6092100F07EF900287FF4F9AE04235B
:105374006370F5E6FF2300F5077200F0EDFA0028EC
:105384007FF4EEAEE0E7FF2300F5077200F0E4FAE5
:105394000028A6D0E4E6FF2300F5077200F0DCFA4B
:1053A40000287FF4DDAEC9E7C0F8F016704700BFEF
:1053B400D0F8F0260132C0F8F02602780A2A00D08C
:1053C4007047D0F8AC36002BFAD09B69184700BF61
:1053D400027808B54AB9D0F8FC26012180F81E16D7
:1053E4000AB104219047002008BD0278012A04BFB5
:1053F40002220270002008BD10B5044601F0A6FD8B
:105404002179204601F0A0F86179204601F09CF84A
:10541400D4F8FC36002284F81E2613B10521204658
:105424009847204601F084FD03232370002010BD1B
:10543400F0B504468078012883B011D0022802D048
:10544400012003B0F0BD237E013B0D460A2BF7D8A3
:10545400DFE803F02D3744A48594515E6A791B007C
:105464004FF0800E06274FF48076002504F507726E
:105474000223E182A181207684F810E067746682B9
:10548400A582A260A37003B0F0BD637E0133DBB2DA
:10549400022B637640F2C880D4F8FC3606212046FD
:1054A4009847002363760123A3700220C9E7627939
:1054B40004F11001204600F085FF02232376012029
:1054C400BFE76179204601F0ABFD012800F0BC8004
:1054D4000428B5D10B2323760120B2E7D4F8F036A3
:1054E400E381A2892379A168204600F093FF042375
:1054F40023760120A5E7002223791146204600F0F7
:1055040089FFD4F8F036E38108232376012098E755
:105514002179204601F084FD012848D00428D9D0FF
:1055240005288DD103208CE701250022637900959D
:105534001146204600F056FFD4F8F036E3810A23E2
:10554400284623767DE76179204601F069FD01282C
:105554002DD00228BCD109232376012071E701252F
:105564006379A289A1680095204600F03BFFD4F836
:10557400F036E38106232846237662E761792046E4
:1055840001F04EFD012858D0052849D0022861D0E9
:1055940004287FF455AF0B23237684E72179204632
:1055A40001F03EFD01284CD00528BBD090E794F8CB
:1055B4001F0294F81E3294F81C6294F81D12D4F859
:1055C400202284F8206603EB002301260020082D06
:1055D400A4F82236A670207684F82116C4F824266E
:1055E4007FF62FAF94F8295294F8283294F8257254
:1055F40094F8241294F8276294F8262203EB0523E6
:10560400D4F82A52A4F82C3601EB072102EB062227
:10561400A4F82816A4F82A26C4F82E5603B0F0BD20
:105624000C23237603200CE7204601F08FFC012095
:105634002076A07005E713068DD407232376012076
:10564400FFE609232376FBE6E38A227C002BF2D0D3
:10565400120603D4052323760120F2E603232376DE
:10566400EFE600BF2DE9F04304468078012883B0BB
:1056740004F11C0512D0022803D0012003B0BDE8B8
:10568400F083237E013B0E460A2BF6D8DFE803F0B5
:105694002C3643A68493505D69781A004FF0800E2F
:1056A40006274FF4007600220223E182A560A1813F
:1056B400207684F810E067746682A282A37003B037
:1056C400BDE8F083637E0133DBB2022B637640F2E4
:1056D4002481D4F8FC3606212046984700236376BB
:1056E4000123A3700220C9E7627904F11001204666
:1056F40000F068FE022323760120BFE7617920468B
:1057040001F08EFC012800F019810428B5D10B2387
:1057140023760120B2E7D4F8F036E381A289237915
:10572400A168204600F076FE042323760120A5E735
:10573400002223791146204600F06CFED4F8F0369E
:10574400E38108232376012098E72179204601F09C
:1057540067FC01284CD00428D9D005288DD103201A
:105764008CE701250022637900951146204600F05C
:1057740039FED4F8F036E3810A23284623767DE700
:105784006179204601F04CFC012831D00228BCD1BB
:1057940009232376012071E701256379A289A16891
:1057A4000095204600F01EFED4F8F036E38106236F
:1057B4002846237662E76179204601F031FC01280E
:1057C40000F0B580052800F0A480022800F0BC8019
:1057D40004287FF452AF0B23237681E721792046F6
:1057E40001F01EFC012800F0A6800528B7D08CE744
:1057F400E37FA27F217F677F94F8200084F832162C
:1058040002EB03220123A37094F8213084F8337649
:1058140092B2002194F8227084F8360684F8373660
:1058240094F8230094F82430A4F83426092E217621
:1058340084F8387684F8390684F83A360ED92B463B
:1058440026460D461A27092106E018780344014428
:105854005878042889B205D08A42F6D8002003B0CB
:10586400BDE8F083187886F83C06587886F83D063B
:10587400987886F83E06D87886F83F0693F8048030
:1058840086F84086587986F84106987986F8420663
:10589400D87986F84306187A86F844064FF0000E45
:1058A40007FB05FCC6452EDA8A422CD91878034436
:1058B40001445878052889B2F4D10EF1010E0CEB9D
:1058C400CE00204493F8008080F83E8693F801804F
:1058D40080F83F8693F8028080F8408693F803802E
:1058E40080F8418693F8059093F8048008EB092822
:1058F400A0F8428693F8068080F8448696F840869D
:105904004FFA8EFECEE70135042D06F11A06A5D016
:10591400A2E70C2323760320B0E6204601F016FB11
:1059240001202076A070A9E613063FF531AF0723C6
:1059340023760120A2E6092323769EE6E38A227CCD
:10594400002BF1D0120603D405232376012095E61B
:105954000323237692E600BFF0B50546807801283C
:1059640085B005F5077410D0022802D0012005B0D7
:10597400F0BD297E01390A29F8D8DFE801F02C3678
:1059840043AB8C9B505D6D7C1A0041F440714FF029
:10599400800E062740F2094602226982EB82AC603F
:1059A400AB81287685F810E06F74AE82AA7005B0DA
:1059B400F0BD6B7E0133DBB2022B6B7640F2B48018
:1059C400D5F8FC3606212846984700236B76012338
:1059D400AB700220CBE76A7905F11001284600F08C
:1059E400F1FC02232B760120C1E76979284601F0F6
:1059F40017FB012800F0A8800428B7D10B232B76CD
:105A04000120B4E7D5F8F036EB81AA892B79A9688F
:105A1400284600F0FFFC04232B760120A7E7002290
:105A24002B791146284600F0F5FCD5F8F036EB81C9
:105A340008232B7601209AE72979039328460292BA
:105A440001F0EEFA0128029A039B4CD00428D5D029
:105A540005288BD103208AE7012400226B79009466
:105A64001146284600F0BEFCD5F8F036EB810A2337
:105A740020462B767BE7697903932846029201F04E
:105A8400CFFA0128029A039B2DD00228B4D109230E
:105A94002B7601206BE701246B79AA89A96800940D
:105AA400284600F09FFCD5F8F036EB81062320460B
:105AB4002B765CE76979284601F0B2FA01283CD0DC
:105AC40005282DD0022845D004287FF44FAF0B239E
:105AD4002B767CE72979284601F0A2FA012830D0F8
:105AE4000528B7D088E795F81D1201260020032960
:105AF400AE7028767FF43BAF95F81C1202398B42C6
:105B0400A8BF0B4699B239B12318023080B29B78F2
:105B140002F8013B8142F7D80020107005B0F0BDB7
:105B24000C232B76032022E7284601F00FFA0120EC
:105B34002876A8701BE71306A9D407232B76012027
:105B440015E709232B7611E7EB8A2A7C002BF2D088
:105B5400120603D405232B76012008E703232B76B2
:105B640005E700BFF0B5847883B0012CBDF8205060
:105B740012D0022C03D00124204603B0F0BD037ED2
:105B8400013B05460A2BF6D8DFE803F02F38439A89
:105B94007E8B4F5B66731E0002F47F46B6F5407F32
:105BA40061F07F0140F20946017418BF0026062700
:105BB40002214282C582836085810476868247748D
:105BC4008170204603B0F0BD437E0133DBB2022B6B
:105BD400437640F28880D0F8FC36062198470023AB
:105BE4006B760123AB700224C6E7427900F1100101
:105BF40000F0E8FB02232B760124BDE7417901F094
:105C04000FFA01287ED00428B5D10B232B7601246A
:105C1400B2E7D0F8F036C38182890379816800F055
:105C2400F9FB04232B760124A6E70022037911460D
:105C340000F0F0FBD5F8F036EB8108232B76012435
:105C44009AE7017901F0ECF9012841D00428DCD06D
:105C5400052890D103248FE700220124437900947E
:105C6400114600F0BFFBD5F8F036EB810A232B7602
:105C740082E7417901F0D4F9012829D00228C2D160
:105C840009232B76012477E70124437982898168EB
:105C9400009400F0A7FBD5F8F036EB8106232B76B1
:105CA4006AE7417901F0BCF9012824D0052816D00F
:105CB40002282DD004287FF45EAF0B232B7690E7C7
:105CC400017901F0ADF9012819D00528C2D09AE76D
:105CD400002401232046AB702C7603B0F0BD0C23C6
:105CE4002B76032448E7012401F030F92C76AC70BC
:105CF40042E71306C4D407232B7601243CE7092387
:105D04002B7638E7EB8A2A7C002BF2D0120603D4D8
:105D140005232B7601242FE7032304462B762BE758
